{
  "_format": "hh-sol-artifact-1",
  "contractName": "SpritzPayV1",
  "sourceName": "contracts/SpritzPayV1.sol",
  "abi": [
    {
      "inputs": [
        {
          "internalType": "address",
          "name": "tokenAddress",
          "type": "address"
        },
        {
          "internalType": "uint256",
          "name": "amount",
          "type": "uint256"
        }
      ],
      "name": "FailedRefund",
      "type": "error"
    },
    {
      "inputs": [
        {
          "internalType": "address",
          "name": "tokenAddress",
          "type": "address"
        },
        {
          "internalType": "address",
          "name": "to",
          "type": "address"
        },
        {
          "internalType": "uint256",
          "name": "amount",
          "type": "uint256"
        }
      ],
      "name": "FailedTokenTransfer",
      "type": "error"
    },
    {
      "inputs": [],
      "name": "SetZeroAddress",
      "type": "error"
    },
    {
      "anonymous": false,
      "inputs": [
        {
          "indexed": false,
          "internalType": "uint8",
          "name": "version",
          "type": "uint8"
        }
      ],
      "name": "Initialized",
      "type": "event"
    },
    {
      "anonymous": false,
      "inputs": [
        {
          "indexed": true,
          "internalType": "address",
          "name": "previousOwner",
          "type": "address"
        },
        {
          "indexed": true,
          "internalType": "address",
          "name": "newOwner",
          "type": "address"
        }
      ],
      "name": "OwnershipTransferred",
      "type": "event"
    },
    {
      "anonymous": false,
      "inputs": [
        {
          "indexed": false,
          "internalType": "address",
          "name": "account",
          "type": "address"
        }
      ],
      "name": "Paused",
      "type": "event"
    },
    {
      "anonymous": false,
      "inputs": [
        {
          "indexed": false,
          "internalType": "address",
          "name": "to",
          "type": "address"
        },
        {
          "indexed": true,
          "internalType": "address",
          "name": "from",
          "type": "address"
        },
        {
          "indexed": true,
          "internalType": "address",
          "name": "sourceToken",
          "type": "address"
        },
        {
          "indexed": false,
          "internalType": "uint256",
          "name": "sourceTokenAmount",
          "type": "uint256"
        },
        {
          "indexed": false,
          "internalType": "address",
          "name": "paymentToken",
          "type": "address"
        },
        {
          "indexed": false,
          "internalType": "uint256",
          "name": "paymentTokenAmount",
          "type": "uint256"
        },
        {
          "indexed": false,
          "internalType": "bytes32",
          "name": "paymentReference",
          "type": "bytes32"
        }
      ],
      "name": "Payment",
      "type": "event"
    },
    {
      "anonymous": false,
      "inputs": [
        {
          "indexed": false,
          "internalType": "address",
          "name": "recipient",
          "type": "address"
        },
        {
          "indexed": false,
          "internalType": "address",
          "name": "sender",
          "type": "address"
        }
      ],
      "name": "PaymentRecipientChanged",
      "type": "event"
    },
    {
      "anonymous": false,
      "inputs": [
        {
          "indexed": false,
          "internalType": "address",
          "name": "account",
          "type": "address"
        }
      ],
      "name": "Unpaused",
      "type": "event"
    },
    {
      "stateMutability": "payable",
      "type": "fallback"
    },
    {
      "inputs": [
        {
          "internalType": "address",
          "name": "_paymentRecipient",
          "type": "address"
        },
        {
          "internalType": "address",
          "name": "_swapTarget",
          "type": "address"
        },
        {
          "internalType": "address",
          "name": "_wrappedNative",
          "type": "address"
        }
      ],
      "name": "initialize",
      "outputs": [],
      "stateMutability": "nonpayable",
      "type": "function"
    },
    {
      "inputs": [],
      "name": "owner",
      "outputs": [
        {
          "internalType": "address",
          "name": "",
          "type": "address"
        }
      ],
      "stateMutability": "view",
      "type": "function"
    },
    {
      "inputs": [],
      "name": "pause",
      "outputs": [],
      "stateMutability": "nonpayable",
      "type": "function"
    },
    {
      "inputs": [],
      "name": "paused",
      "outputs": [
        {
          "internalType": "bool",
          "name": "",
          "type": "bool"
        }
      ],
      "stateMutability": "view",
      "type": "function"
    },
    {
      "inputs": [
        {
          "internalType": "address",
          "name": "sourceTokenAddress",
          "type": "address"
        },
        {
          "internalType": "uint256",
          "name": "sourceTokenAmountMax",
          "type": "uint256"
        },
        {
          "internalType": "address",
          "name": "paymentTokenAddress",
          "type": "address"
        },
        {
          "internalType": "uint256",
          "name": "paymentTokenAmount",
          "type": "uint256"
        },
        {
          "internalType": "bytes32",
          "name": "paymentReference",
          "type": "bytes32"
        }
      ],
      "name": "payWithSwap",
      "outputs": [],
      "stateMutability": "payable",
      "type": "function"
    },
    {
      "inputs": [
        {
          "internalType": "address",
          "name": "paymentTokenAddress",
          "type": "address"
        },
        {
          "internalType": "uint256",
          "name": "paymentTokenAmount",
          "type": "uint256"
        },
        {
          "internalType": "bytes32",
          "name": "paymentReference",
          "type": "bytes32"
        }
      ],
      "name": "payWithToken",
      "outputs": [],
      "stateMutability": "nonpayable",
      "type": "function"
    },
    {
      "inputs": [],
      "name": "renounceOwnership",
      "outputs": [],
      "stateMutability": "nonpayable",
      "type": "function"
    },
    {
      "inputs": [
        {
          "internalType": "address",
          "name": "newPaymentRecipient",
          "type": "address"
        }
      ],
      "name": "setPaymentRecipient",
      "outputs": [],
      "stateMutability": "nonpayable",
      "type": "function"
    },
    {
      "inputs": [
        {
          "internalType": "address",
          "name": "newOwner",
          "type": "address"
        }
      ],
      "name": "transferOwnership",
      "outputs": [],
      "stateMutability": "nonpayable",
      "type": "function"
    },
    {
      "inputs": [],
      "name": "unpause",
      "outputs": [],
      "stateMutability": "nonpayable",
      "type": "function"
    },
    {
      "stateMutability": "payable",
      "type": "receive"
    }
  ],
  "bytecode": "0x608060405234801561001057600080fd5b5061151a806100206000396000f3fe6080604052600436106100a95760003560e01c80638456cb5911610063578063c0c53b8b1161004b578063c0c53b8b14610174578063d71d963214610194578063f2fde38b146101b457005b80638456cb59146101375780638da5cb5b1461014c57005b80635c975abb116100915780635c975abb146100e7578063715018a61461010f57806374f19f251461012457005b80632983c4b8146100b25780633f4ba83a146100d257005b366100b057005b005b3480156100be57600080fd5b506100b06100cd3660046111e6565b6101d4565b3480156100de57600080fd5b506100b06101e8565b3480156100f357600080fd5b5060975460ff1660405190151581526020015b60405180910390f35b34801561011b57600080fd5b506100b06101fa565b6100b061013236600461124b565b61020c565b34801561014357600080fd5b506100b061072f565b34801561015857600080fd5b506065546040516001600160a01b039091168152602001610106565b34801561018057600080fd5b506100b061018f366004611208565b61073f565b3480156101a057600080fd5b506100b06101af366004611299565b61088d565b3480156101c057600080fd5b506100b06101cf3660046111e6565b61094e565b6101dc6109db565b6101e581610a35565b50565b6101f06109db565b6101f8610ab5565b565b6102026109db565b6101f86000610b07565b610214610b59565b600260c954141561026c5760405162461bcd60e51b815260206004820152601f60248201527f5265656e7472616e637947756172643a207265656e7472616e742063616c6c0060448201526064015b60405180910390fd5b600260c9819055546001546001600160a01b039182168783161491879116826103cc57600154604051636eb1769f60e11b81523060048201526001600160a01b039182166024820152889184169063dd62ed3e9060440160206040518083038186803b1580156102db57600080fd5b505afa1580156102ef573d6000803e3d6000fd5b505050506040513d601f19601f8201168201806040525081019061031391906113b3565b101561038457600154600090610333908a906001600160a01b0316610bac565b9050806103825760405162461bcd60e51b815260206004820152601c60248201527f436f756c64206e6f7420617070726f76652073776170546172676574000000006044820152606401610263565b505b60006103928933308b610bcf565b9050806103ca57604051630d88598b60e41b81526001600160a01b038a16600482015230602482015260448101899052606401610263565b505b6040805160028082526060820183526000926020830190803683370190505090508881600081518110610401576104016114e1565b60200260200101906001600160a01b031690816001600160a01b0316815250508681600181518110610435576104356114e1565b60200260200101906001600160a01b031690816001600160a01b0316815250506060846104f357600054604051634401edf760e11b81526001600160a01b0385811692638803dbee92610496928c928f928992909116904290600401611480565b600060405180830381600087803b1580156104b057600080fd5b505af11580156104c4573d6000803e3d6000fd5b505050506040513d6000823e601f3d908101601f191682016040526104ec91908101906112cc565b9050610586565b60005460405163fb3bdb4160e01b81526001600160a01b038581169263fb3bdb4192349261052d928d92899290911690429060040161144b565b6000604051808303818588803b15801561054657600080fd5b505af115801561055a573d6000803e3d6000fd5b50505050506040513d6000823e601f3d908101601f1916820160405261058391908101906112cc565b90505b60008160008151811061059b5761059b6114e1565b6020026020010151905087826001815181106105b9576105b96114e1565b6020026020010151146106345760405162461bcd60e51b815260206004820152602a60248201527f5377617020646964206e6f74207969656c64206465636c61726564207061796d60448201527f656e7420616d6f756e74000000000000000000000000000000000000000000006064820152608401610263565b600054604080516001600160a01b039283168152602081018490528b831681830152606081018b9052608081018a90529051918d169133917f2415a5b602fd0082bd30dae862c30bbf8abbfcf39db48726b2d8ef555ee1abde919081900360a00190a360006106a3828c6114bc565b9050801561071c576000876106cb576106c66001600160a01b0388163384610bf1565b6106e8565b604051339083156108fc029084906000818181858888f193505050505b90508061071a57604051630814880360e01b81526001600160a01b038e16600482015260248101839052604401610263565b505b5050600160c95550505050505050505050565b6107376109db565b6101f8610cba565b603254610100900460ff161580801561075f5750603254600160ff909116105b806107795750303b158015610779575060325460ff166001145b6107eb5760405162461bcd60e51b815260206004820152602e60248201527f496e697469616c697a61626c653a20636f6e747261637420697320616c72656160448201527f647920696e697469616c697a65640000000000000000000000000000000000006064820152608401610263565b6032805460ff19166001179055801561080e576032805461ff0019166101001790555b61081784610a35565b61082083610cf7565b61082982610d40565b610831610d89565b610839610dfc565b610841610e6f565b8015610887576032805461ff0019169055604051600181527f7f26b83ff96e1f2b6a682f133852f6798a09c465da95921460cefb38474024989060200160405180910390a15b50505050565b610895610b59565b600054604080516001600160a01b0392831681526020810185905291851682820181905260608301859052608083018490529051909133917f2415a5b602fd0082bd30dae862c30bbf8abbfcf39db48726b2d8ef555ee1abde9181900360a00190a3600061091084336000546001600160a01b031686610bcf565b90508061088757600054604051630d88598b60e41b81526001600160a01b038087166004830152909116602482015260448101849052606401610263565b6109566109db565b6001600160a01b0381166109d25760405162461bcd60e51b815260206004820152602660248201527f4f776e61626c653a206e6577206f776e657220697320746865207a65726f206160448201527f64647265737300000000000000000000000000000000000000000000000000006064820152608401610263565b6101e581610b07565b6065546001600160a01b031633146101f85760405162461bcd60e51b815260206004820181905260248201527f4f776e61626c653a2063616c6c6572206973206e6f7420746865206f776e65726044820152606401610263565b6001600160a01b038116610a5c57604051631508131960e01b815260040160405180910390fd5b600080546001600160a01b0319166001600160a01b038316908117909155604080519182523360208301527ff2aee2de2705c86bdfda6c3ddaddc83ce3b729f850c62f38aa6c9fc93158a5d4910160405180910390a150565b610abd610ee2565b6097805460ff191690557f5db9ee0a495bf2e6ff9c91a7834c1ba4fdd244a5e8aa4e537bd38aeae4b073aa335b6040516001600160a01b03909116815260200160405180910390a1565b606580546001600160a01b038381166001600160a01b0319831681179093556040519116919082907f8be0079c531659141344cd1fd0a4f28419497f9722a3daafe3b4186f6b6457e090600090a35050565b60975460ff16156101f85760405162461bcd60e51b815260206004820152601060248201527f5061757361626c653a20706175736564000000000000000000000000000000006044820152606401610263565b600082600019610bc66001600160a01b0383168583610f34565b95945050505050565b600084610be76001600160a01b038216868686610f91565b9695505050505050565b6040516001600160a01b03838116602483015260448201839052600091829182919087169060640160408051601f198184030181529181526020820180516001600160e01b031663a9059cbb60e01b17905251610c4e9190611410565b6000604051808303816000865af19150503d8060008114610c8b576040519150601f19603f3d011682016040523d82523d6000602084013e610c90565b606091505b5091509150818015610be7575080511580610be7575080806020019051810190610be79190611391565b610cc2610b59565b6097805460ff191660011790557f62e78cea01bee320cd4e420270b5ea74000d11b0c9f74754ebdbfc544b05a258610aea3390565b6001600160a01b038116610d1e57604051631508131960e01b815260040160405180910390fd5b600180546001600160a01b0319166001600160a01b0392909216919091179055565b6001600160a01b038116610d6757604051631508131960e01b815260040160405180910390fd5b600280546001600160a01b0319166001600160a01b0392909216919091179055565b603254610100900460ff16610df45760405162461bcd60e51b815260206004820152602b60248201527f496e697469616c697a61626c653a20636f6e7472616374206973206e6f74206960448201526a6e697469616c697a696e6760a81b6064820152608401610263565b6101f861106d565b603254610100900460ff16610e675760405162461bcd60e51b815260206004820152602b60248201527f496e697469616c697a61626c653a20636f6e7472616374206973206e6f74206960448201526a6e697469616c697a696e6760a81b6064820152608401610263565b6101f86110e1565b603254610100900460ff16610eda5760405162461bcd60e51b815260206004820152602b60248201527f496e697469616c697a61626c653a20636f6e7472616374206973206e6f74206960448201526a6e697469616c697a696e6760a81b6064820152608401610263565b6101f8611158565b60975460ff166101f85760405162461bcd60e51b815260206004820152601460248201527f5061757361626c653a206e6f74207061757365640000000000000000000000006044820152606401610263565b6040516001600160a01b03838116602483015260448201839052600091829182919087169060640160408051601f198184030181529181526020820180516001600160e01b031663095ea7b360e01b17905251610c4e9190611410565b6040516001600160a01b038481166024830152838116604483015260648201839052600091829182919088169060840160408051601f198184030181529181526020820180516001600160e01b03166323b872dd60e01b17905251610ff69190611410565b6000604051808303816000865af19150503d8060008114611033576040519150601f19603f3d011682016040523d82523d6000602084013e611038565b606091505b50915091508180156110625750805115806110625750808060200190518101906110629190611391565b979650505050505050565b603254610100900460ff166110d85760405162461bcd60e51b815260206004820152602b60248201527f496e697469616c697a61626c653a20636f6e7472616374206973206e6f74206960448201526a6e697469616c697a696e6760a81b6064820152608401610263565b6101f833610b07565b603254610100900460ff1661114c5760405162461bcd60e51b815260206004820152602b60248201527f496e697469616c697a61626c653a20636f6e7472616374206973206e6f74206960448201526a6e697469616c697a696e6760a81b6064820152608401610263565b6097805460ff19169055565b603254610100900460ff166111c35760405162461bcd60e51b815260206004820152602b60248201527f496e697469616c697a61626c653a20636f6e7472616374206973206e6f74206960448201526a6e697469616c697a696e6760a81b6064820152608401610263565b600160c955565b80356001600160a01b03811681146111e157600080fd5b919050565b6000602082840312156111f857600080fd5b611201826111ca565b9392505050565b60008060006060848603121561121d57600080fd5b611226846111ca565b9250611234602085016111ca565b9150611242604085016111ca565b90509250925092565b600080600080600060a0868803121561126357600080fd5b61126c866111ca565b945060208601359350611281604087016111ca565b94979396509394606081013594506080013592915050565b6000806000606084860312156112ae57600080fd5b6112b7846111ca565b95602085013595506040909401359392505050565b600060208083850312156112df57600080fd5b825167ffffffffffffffff808211156112f757600080fd5b818501915085601f83011261130b57600080fd5b81518181111561131d5761131d6114f7565b8060051b604051601f19603f83011681018181108582111715611342576113426114f7565b604052828152858101935084860182860187018a101561136157600080fd5b600095505b83861015611384578051855260019590950194938601938601611366565b5098975050505050505050565b6000602082840312156113a357600080fd5b8151801515811461120157600080fd5b6000602082840312156113c557600080fd5b5051919050565b600081518084526020808501945080840160005b838110156114055781516001600160a01b0316875295820195908201906001016113e0565b509495945050505050565b6000825160005b818110156114315760208186018101518583015201611417565b81811115611440576000828501525b509190910192915050565b84815260806020820152600061146460808301866113cc565b6001600160a01b03949094166040830152506060015292915050565b85815284602082015260a06040820152600061149f60a08301866113cc565b6001600160a01b0394909416606083015250608001529392505050565b6000828210156114dc57634e487b7160e01b600052601160045260246000fd5b500390565b634e487b7160e01b600052603260045260246000fd5b634e487b7160e01b600052604160045260246000fdfea164736f6c6343000807000a",
  "linkReferences": {},
  "deployedLinkReferences": {}
}