{
  "_format": "hh-sol-artifact-1",
  "contractName": "SpritzPay_V2",
  "sourceName": "contracts/SpritzPay_V2.sol",
  "abi": [
    {
      "inputs": [
        {
          "internalType": "address",
          "name": "tokenAddress",
          "type": "address"
        },
        {
          "internalType": "address",
          "name": "to",
          "type": "address"
        },
        {
          "internalType": "uint256",
          "name": "amount",
          "type": "uint256"
        }
      ],
      "name": "FailedTokenTransfer",
      "type": "error"
    },
    {
      "anonymous": false,
      "inputs": [
        {
          "indexed": false,
          "internalType": "uint8",
          "name": "version",
          "type": "uint8"
        }
      ],
      "name": "Initialized",
      "type": "event"
    },
    {
      "anonymous": false,
      "inputs": [
        {
          "indexed": true,
          "internalType": "address",
          "name": "previousOwner",
          "type": "address"
        },
        {
          "indexed": true,
          "internalType": "address",
          "name": "newOwner",
          "type": "address"
        }
      ],
      "name": "OwnershipTransferred",
      "type": "event"
    },
    {
      "anonymous": false,
      "inputs": [
        {
          "indexed": false,
          "internalType": "address",
          "name": "to",
          "type": "address"
        },
        {
          "indexed": false,
          "internalType": "address",
          "name": "from",
          "type": "address"
        },
        {
          "indexed": false,
          "internalType": "address",
          "name": "sourceToken",
          "type": "address"
        },
        {
          "indexed": false,
          "internalType": "uint256",
          "name": "sourceTokenAmount",
          "type": "uint256"
        },
        {
          "indexed": false,
          "internalType": "address",
          "name": "paymentToken",
          "type": "address"
        },
        {
          "indexed": false,
          "internalType": "uint256",
          "name": "paymentTokenAmount",
          "type": "uint256"
        },
        {
          "indexed": false,
          "internalType": "bytes32",
          "name": "paymentReference",
          "type": "bytes32"
        }
      ],
      "name": "Payment",
      "type": "event"
    },
    {
      "inputs": [
        {
          "internalType": "address",
          "name": "_swapRouterAddress",
          "type": "address"
        },
        {
          "internalType": "address",
          "name": "_wrappedEtherAddress",
          "type": "address"
        }
      ],
      "name": "initialize",
      "outputs": [],
      "stateMutability": "nonpayable",
      "type": "function"
    },
    {
      "inputs": [],
      "name": "owner",
      "outputs": [
        {
          "internalType": "address",
          "name": "",
          "type": "address"
        }
      ],
      "stateMutability": "view",
      "type": "function"
    },
    {
      "inputs": [
        {
          "internalType": "address",
          "name": "to",
          "type": "address"
        },
        {
          "internalType": "address",
          "name": "sourceTokenAddress",
          "type": "address"
        },
        {
          "internalType": "uint256",
          "name": "sourceTokenAmount",
          "type": "uint256"
        },
        {
          "internalType": "address",
          "name": "paymentTokenAddress",
          "type": "address"
        },
        {
          "internalType": "uint256",
          "name": "paymentTokenAmount",
          "type": "uint256"
        },
        {
          "internalType": "address",
          "name": "allowanceTarget",
          "type": "address"
        },
        {
          "internalType": "address",
          "name": "swapTarget",
          "type": "address"
        },
        {
          "internalType": "bytes",
          "name": "swapCallData",
          "type": "bytes"
        },
        {
          "internalType": "bytes32",
          "name": "paymentReference",
          "type": "bytes32"
        }
      ],
      "name": "payWithAggregatedSwap",
      "outputs": [],
      "stateMutability": "payable",
      "type": "function"
    },
    {
      "inputs": [
        {
          "internalType": "address",
          "name": "_to",
          "type": "address"
        },
        {
          "internalType": "address",
          "name": "_sourceTokenAddress",
          "type": "address"
        },
        {
          "internalType": "address",
          "name": "_paymentTokenAddress",
          "type": "address"
        },
        {
          "internalType": "uint256",
          "name": "_paymentTokenAmount",
          "type": "uint256"
        },
        {
          "internalType": "uint256",
          "name": "_sourceTokenAmountMax",
          "type": "uint256"
        },
        {
          "internalType": "bytes",
          "name": "_path",
          "type": "bytes"
        },
        {
          "internalType": "bytes32",
          "name": "_paymentReference",
          "type": "bytes32"
        }
      ],
      "name": "payWithNative",
      "outputs": [],
      "stateMutability": "payable",
      "type": "function"
    },
    {
      "inputs": [
        {
          "internalType": "address",
          "name": "_to",
          "type": "address"
        },
        {
          "internalType": "address",
          "name": "_sourceTokenAddress",
          "type": "address"
        },
        {
          "internalType": "address",
          "name": "_paymentTokenAddress",
          "type": "address"
        },
        {
          "internalType": "uint256",
          "name": "_paymentTokenAmount",
          "type": "uint256"
        },
        {
          "internalType": "uint256",
          "name": "_sourceTokenAmountMax",
          "type": "uint256"
        },
        {
          "internalType": "bytes",
          "name": "_path",
          "type": "bytes"
        },
        {
          "internalType": "bytes32",
          "name": "_paymentReference",
          "type": "bytes32"
        }
      ],
      "name": "payWithSwap",
      "outputs": [
        {
          "internalType": "uint256",
          "name": "sourceTokenSpent",
          "type": "uint256"
        }
      ],
      "stateMutability": "nonpayable",
      "type": "function"
    },
    {
      "inputs": [
        {
          "internalType": "address",
          "name": "to",
          "type": "address"
        },
        {
          "internalType": "address",
          "name": "paymentTokenAddress",
          "type": "address"
        },
        {
          "internalType": "uint256",
          "name": "paymentTokenAmount",
          "type": "uint256"
        },
        {
          "internalType": "bytes32",
          "name": "paymentReference",
          "type": "bytes32"
        }
      ],
      "name": "payWithToken",
      "outputs": [],
      "stateMutability": "nonpayable",
      "type": "function"
    },
    {
      "inputs": [],
      "name": "renounceOwnership",
      "outputs": [],
      "stateMutability": "nonpayable",
      "type": "function"
    },
    {
      "inputs": [],
      "name": "swapRouter",
      "outputs": [
        {
          "internalType": "contract ISwapRouter",
          "name": "",
          "type": "address"
        }
      ],
      "stateMutability": "view",
      "type": "function"
    },
    {
      "inputs": [
        {
          "internalType": "address",
          "name": "newOwner",
          "type": "address"
        }
      ],
      "name": "transferOwnership",
      "outputs": [],
      "stateMutability": "nonpayable",
      "type": "function"
    },
    {
      "stateMutability": "payable",
      "type": "receive"
    }
  ],
  "bytecode": "0x608060405234801561001057600080fd5b50611dc9806100206000396000f3fe60806040526004361061009a5760003560e01c806375484388116100695780638da5cb5b1161004e5780638da5cb5b14610156578063c31c9c0714610188578063f2fde38b146101a857600080fd5b806375484388146101105780637c510b821461012357600080fd5b8063485cc955146100a65780634c3429a1146100c857806358fb6fac146100db578063715018a6146100fb57600080fd5b366100a157005b600080fd5b3480156100b257600080fd5b506100c66100c1366004611a48565b6101c8565b005b6100c66100d6366004611ac4565b61033f565b3480156100e757600080fd5b506100c66100f6366004611b7c565b610873565b34801561010757600080fd5b506100c6610941565b6100c661011e366004611bbe565b610955565b34801561012f57600080fd5b5061014361013e366004611bbe565b610b84565b6040519081526020015b60405180910390f35b34801561016257600080fd5b506033546001600160a01b03165b6040516001600160a01b03909116815260200161014d565b34801561019457600080fd5b50606654610170906001600160a01b031681565b3480156101b457600080fd5b506100c66101c3366004611c4e565b610dc0565b600054610100900460ff16158080156101e85750600054600160ff909116105b806102025750303b158015610202575060005460ff166001145b6102795760405162461bcd60e51b815260206004820152602e60248201527f496e697469616c697a61626c653a20636f6e747261637420697320616c72656160448201527f647920696e697469616c697a656400000000000000000000000000000000000060648201526084015b60405180910390fd5b6000805460ff19166001179055801561029c576000805461ff0019166101001790555b6066805473ffffffffffffffffffffffffffffffffffffffff19166001600160a01b0385161790556102cc610e50565b6065805473ffffffffffffffffffffffffffffffffffffffff19166001600160a01b038416179055801561033a576000805461ff0019169055604051600181527f7f26b83ff96e1f2b6a682f133852f6798a09c465da95921460cefb38474024989060200160405180910390a15b505050565b6001600160a01b0385161561035957610359898987610ec3565b6000846001600160a01b0316348585604051610376929190611c70565b60006040518083038185875af1925050503d80600081146103b3576040519150601f19603f3d011682016040523d82523d6000602084013e6103b8565b606091505b50509050806104095760405162461bcd60e51b815260206004820152601060248201527f537761702063616c6c206661696c6564000000000000000000000000000000006044820152606401610270565b60405163a9059cbb60e01b81526001600160a01b038c8116600483015260248201899052899160009183169063a9059cbb906044016020604051808303816000875af115801561045d573d6000803e3d6000fd5b505050506040513d601f19601f820116820180604052508101906104819190611c80565b9050806104f65760405162461bcd60e51b815260206004820152603760248201527f436f756c64206e6f74207472616e73666572207061796d656e7420746f6b656e60448201527f20746f2064657374696e6174696f6e20616464726573730000000000000000006064820152608401610270565b6040516370a0823160e01b81523060048201526000906001600160a01b0384169063a9059cbb90339083906370a0823190602401602060405180830381865afa158015610547573d6000803e3d6000fd5b505050506040513d601f19601f8201168201806040525081019061056b9190611ca2565b6040516001600160e01b031960e085901b1681526001600160a01b03909216600483015260248201526044016020604051808303816000875af11580156105b6573d6000803e3d6000fd5b505050506040513d601f19601f820116820180604052508101906105da9190611c80565b90508061064f5760405162461bcd60e51b815260206004820152603f60248201527f436f756c64206e6f7420726566756e642072656d61696e696e67207061796d6560448201527f6e7420746f6b656e20746f206f726967696e6174696e672061646472657373006064820152608401610270565b6001600160a01b038916156107bc576040516370a0823160e01b81523060048201528d906000906001600160a01b0383169063a9059cbb90339083906370a0823190602401602060405180830381865afa1580156106b1573d6000803e3d6000fd5b505050506040513d601f19601f820116820180604052508101906106d59190611ca2565b6040516001600160e01b031960e085901b1681526001600160a01b03909216600483015260248201526044016020604051808303816000875af1158015610720573d6000803e3d6000fd5b505050506040513d601f19601f820116820180604052508101906107449190611c80565b9050806107b95760405162461bcd60e51b815260206004820152603f60248201527f436f756c64206e6f7420726566756e642072656d61696e696e67207061796d6560448201527f6e7420746f6b656e20746f206f726967696e6174696e672061646472657373006064820152608401610270565b50505b604051600090339047908381818185875af1925050503d80600081146107fe576040519150601f19603f3d011682016040523d82523d6000602084013e610803565b606091505b50509050806108545760405162461bcd60e51b815260206004820152600d60248201527f526566756e64206661696c6564000000000000000000000000000000000000006044820152606401610270565b50506108648d8d8d8d8d89611000565b50505050505050505050505050565b6040516323b872dd60e01b81523360048201526001600160a01b0385811660248301526044820184905284916000918316906323b872dd906064016020604051808303816000875af11580156108cd573d6000803e3d6000fd5b505050506040513d601f19601f820116820180604052508101906108f19190611c80565b90508061092b57604051630d88598b60e41b81526001600160a01b0380871660048301528716602482015260448101859052606401610270565b610939868686888888611000565b505050505050565b61094961106e565b61095360006110c8565b565b8334146109a45760405162461bcd60e51b815260206004820152601060248201527f4e6f7420656e6f756768204574686572000000000000000000000000000000006044820152606401610270565b6065546001600160a01b03888116911614610a015760405162461bcd60e51b815260206004820152601c60248201527f496e76616c696420736f7572636520746f6b656e2061646472657373000000006044820152606401610270565b610a09611127565b6066548490610a229030906001600160a01b0316611186565b1015610a4457606554606654610a44916001600160a01b0390811691166112c1565b6040805160c06020601f8601819004028201810190925260a0810184815260009282919087908790819085018382808284376000920191909152505050908252506001600160a01b038b166020820152604001610aa242603c611cd1565b81526020810188905260409081018790526066549051631e51809360e31b81529192506000916001600160a01b039091169063f28c049890610ae8908590600401611d19565b6020604051808303816000875af1158015610b07573d6000803e3d6000fd5b505050506040513d601f19601f82011682018060405250810190610b2b9190611ca2565b90506000610b398288611d89565b606554606654919250610b5a916001600160a01b03918216911660006112d9565b8015610b6957610b69816113d2565b610b778b8b848c8c89611000565b5050505050505050505050565b604051636eb1769f60e11b8152336004820152306024820152600090889086906001600160a01b0383169063dd62ed3e90604401602060405180830381865afa158015610bd5573d6000803e3d6000fd5b505050506040513d601f19601f82011682018060405250810190610bf99190611ca2565b1015610c6d5760405162461bcd60e51b815260206004820152602760248201527f496e73756666696369656e7420616c6c6f77616e636520666f7220737761702060448201527f746f207061792e000000000000000000000000000000000000000000000000006064820152608401610270565b606654610c86908a9088906001600160a01b0316610ec3565b6040805160c06020601f8801819004028201810190925260a0810186815260009282919089908990819085018382808284376000920191909152505050908252506001600160a01b038d166020820152604001610ce442603c611cd1565b8152602081018a905260409081018990526066549051631e51809360e31b81529192506001600160a01b03169063f28c049890610d25908490600401611d19565b6020604051808303816000875af1158015610d44573d6000803e3d6000fd5b505050506040513d601f19601f82011682018060405250810190610d689190611ca2565b92506000610d768489611d89565b606654909150610d92908c906001600160a01b031660006112d9565b8015610da357610da38b3383611477565b610db18c8c868d8d8a611000565b50505098975050505050505050565b610dc861106e565b6001600160a01b038116610e445760405162461bcd60e51b815260206004820152602660248201527f4f776e61626c653a206e6577206f776e657220697320746865207a65726f206160448201527f64647265737300000000000000000000000000000000000000000000000000006064820152608401610270565b610e4d816110c8565b50565b600054610100900460ff16610ebb5760405162461bcd60e51b815260206004820152602b60248201527f496e697469616c697a61626c653a20636f6e7472616374206973206e6f74206960448201526a6e697469616c697a696e6760a81b6064820152608401610270565b610953611570565b604051636eb1769f60e11b81523060048201526001600160a01b0382811660248301528491849183169063dd62ed3e90604401602060405180830381865afa158015610f13573d6000803e3d6000fd5b505050506040513d601f19601f82011682018060405250810190610f379190611ca2565b1015610f4757610f4784836112c1565b6040516323b872dd60e01b8152336004820152306024820152604481018490526000906001600160a01b038316906323b872dd906064016020604051808303816000875af1158015610f9d573d6000803e3d6000fd5b505050506040513d601f19601f82011682018060405250810190610fc19190611c80565b905080610ff957604051630d88598b60e41b81526001600160a01b038616600482015230602482015260448101859052606401610270565b5050505050565b604080516001600160a01b03888116825233602083015287811682840152606082018790528516608082015260a0810184905260c0810183905290517f2415a5b602fd0082bd30dae862c30bbf8abbfcf39db48726b2d8ef555ee1abde9181900360e00190a1505050505050565b6033546001600160a01b031633146109535760405162461bcd60e51b815260206004820181905260248201527f4f776e61626c653a2063616c6c6572206973206e6f7420746865206f776e65726044820152606401610270565b603380546001600160a01b0383811673ffffffffffffffffffffffffffffffffffffffff19831681179093556040519116919082907f8be0079c531659141344cd1fd0a4f28419497f9722a3daafe3b4186f6b6457e090600090a35050565b61112f6115e4565b34611139306116c2565b146109535760405162461bcd60e51b815260206004820152601260248201527f4e61746976652077726170206661696c656400000000000000000000000000006044820152606401610270565b604080516001600160a01b03848116602483015283811660448084019190915283518084039091018152606490920183526020820180516001600160e01b0316636eb1769f60e11b1790526065549251600093849283929116906111eb908590611da0565b600060405180830381855afa9150503d8060008114611226576040519150601f19603f3d011682016040523d82523d6000602084013e61122b565b606091505b5091509150816112a35760405162461bcd60e51b815260206004820152602960248201527f57453a204661696c656420746f20676574207772617070656420746f6b656e2060448201527f616c6c6f77616e636500000000000000000000000000000000000000000000006064820152608401610270565b808060200190518101906112b79190611ca2565b9695505050505050565b81600019610ff96001600160a01b03831684836117da565b604080516001600160a01b038481166024830152604480830185905283518084039091018152606490920183526020820180516001600160e01b031663095ea7b360e01b17905291516000928392908716916113359190611da0565b6000604051808303816000865af19150503d8060008114611372576040519150601f19603f3d011682016040523d82523d6000602084013e611377565b606091505b50915091508180156113a15750805115806113a15750808060200190518101906113a19190611c80565b610ff95760405162461bcd60e51b8152602060048201526002602482015261534160f01b6044820152606401610270565b6113db816118a3565b604051600090339083908381818185875af1925050503d806000811461141d576040519150601f19603f3d011682016040523d82523d6000602084013e611422565b606091505b50509050806114735760405162461bcd60e51b815260206004820152601e60248201527f4661696c656420746f2072657475726e2045746865722062616c616e636500006044820152606401610270565b5050565b604080516001600160a01b038481166024830152604480830185905283518084039091018152606490920183526020820180516001600160e01b031663a9059cbb60e01b17905291516000928392908716916114d39190611da0565b6000604051808303816000865af19150503d8060008114611510576040519150601f19603f3d011682016040523d82523d6000602084013e611515565b606091505b509150915081801561153f57508051158061153f57508080602001905181019061153f9190611c80565b610ff95760405162461bcd60e51b815260206004820152600260248201526114d560f21b6044820152606401610270565b600054610100900460ff166115db5760405162461bcd60e51b815260206004820152602b60248201527f496e697469616c697a61626c653a20636f6e7472616374206973206e6f74206960448201526a6e697469616c697a696e6760a81b6064820152608401610270565b610953336110c8565b60408051600481526024810182526020810180516001600160e01b0316630d0e30db60e41b179052606554915190916000916001600160a01b0390911690349061162f908590611da0565b60006040518083038185875af1925050503d806000811461166c576040519150601f19603f3d011682016040523d82523d6000602084013e611671565b606091505b50509050806114735760405162461bcd60e51b815260206004820152601b60248201527f57453a204661696c656420746f206465706f73697420457468657200000000006044820152606401610270565b604080516001600160a01b0383811660248084019190915283518084039091018152604490920183526020820180516001600160e01b03166370a0823160e01b17905260655492516000938492839291169061171f908590611da0565b600060405180830381855afa9150503d806000811461175a576040519150601f19603f3d011682016040523d82523d6000602084013e61175f565b606091505b5091509150816117bd5760405162461bcd60e51b8152602060048201526024808201527f57453a204661696c656420746f206765742062616c616e6365206f66206163636044820152631bdd5b9d60e21b6064820152608401610270565b808060200190518101906117d19190611ca2565b95945050505050565b6040516001600160a01b03838116602483015260448201839052600091829182919087169060640160408051601f198184030181529181526020820180516001600160e01b031663095ea7b360e01b179052516118379190611da0565b6000604051808303816000865af19150503d8060008114611874576040519150601f19603f3d011682016040523d82523d6000602084013e611879565b606091505b50915091508180156112b75750805115806112b75750808060200190518101906112b79190611c80565b476118ad82611905565b816118b88247611d89565b146114735760405162461bcd60e51b815260206004820152601f60248201527f4661696c656420746f207769746864726177206e617469766520746f6b656e006044820152606401610270565b60007f2e1a7d4d13322e7b96f9a57413e1525c250fb7a9021cf91d1540d5b69f16a49f8260405160240161193b91815260200190565b60408051601f198184030181529181526020820180516001600160e01b03166001600160e01b03199094169390931790925260655491519092506000916001600160a01b03169061198d908490611da0565b6000604051808303816000865af19150503d80600081146119ca576040519150601f19603f3d011682016040523d82523d6000602084013e6119cf565b606091505b505090508061033a5760405162461bcd60e51b8152602060048201526024808201527f57453a204661696c656420746f20776974686472617720746f6b656e2062616c604482015263616e636560e01b6064820152608401610270565b80356001600160a01b0381168114611a4357600080fd5b919050565b60008060408385031215611a5b57600080fd5b611a6483611a2c565b9150611a7260208401611a2c565b90509250929050565b60008083601f840112611a8d57600080fd5b50813567ffffffffffffffff811115611aa557600080fd5b602083019150836020828501011115611abd57600080fd5b9250929050565b6000806000806000806000806000806101208b8d031215611ae457600080fd5b611aed8b611a2c565b9950611afb60208c01611a2c565b985060408b01359750611b1060608c01611a2c565b965060808b01359550611b2560a08c01611a2c565b9450611b3360c08c01611a2c565b935060e08b013567ffffffffffffffff811115611b4f57600080fd5b611b5b8d828e01611a7b565b915080945050809250506101008b013590509295989b9194979a5092959850565b60008060008060808587031215611b9257600080fd5b611b9b85611a2c565b9350611ba960208601611a2c565b93969395505050506040820135916060013590565b60008060008060008060008060e0898b031215611bda57600080fd5b611be389611a2c565b9750611bf160208a01611a2c565b9650611bff60408a01611a2c565b9550606089013594506080890135935060a089013567ffffffffffffffff811115611c2957600080fd5b611c358b828c01611a7b565b999c989b50969995989497949560c00135949350505050565b600060208284031215611c6057600080fd5b611c6982611a2c565b9392505050565b8183823760009101908152919050565b600060208284031215611c9257600080fd5b81518015158114611c6957600080fd5b600060208284031215611cb457600080fd5b5051919050565b634e487b7160e01b600052601160045260246000fd5b60008219821115611ce457611ce4611cbb565b500190565b60005b83811015611d04578181015183820152602001611cec565b83811115611d13576000848401525b50505050565b602081526000825160a0602084015280518060c0850152611d418160e0860160208501611ce9565b6001600160a01b0360208601511660408501526040850151606085015260608501516080850152608085015160a085015260e0601f19601f8301168501019250505092915050565b600082821015611d9b57611d9b611cbb565b500390565b60008251611db2818460208701611ce9565b919091019291505056fea164736f6c634300080d000a",
  "linkReferences": {},
  "deployedLinkReferences": {}
}