{
  "_format": "hh-sol-artifact-1",
  "contractName": "SpritzPay_V2",
  "sourceName": "contracts/SpritzPay_V2.sol",
  "abi": [
    {
      "inputs": [
        {
          "internalType": "address",
          "name": "tokenAddress",
          "type": "address"
        },
        {
          "internalType": "address",
          "name": "to",
          "type": "address"
        },
        {
          "internalType": "uint256",
          "name": "amount",
          "type": "uint256"
        }
      ],
      "name": "FailedTokenTransfer",
      "type": "error"
    },
    {
      "anonymous": false,
      "inputs": [
        {
          "indexed": false,
          "internalType": "uint8",
          "name": "version",
          "type": "uint8"
        }
      ],
      "name": "Initialized",
      "type": "event"
    },
    {
      "anonymous": false,
      "inputs": [
        {
          "indexed": true,
          "internalType": "address",
          "name": "previousOwner",
          "type": "address"
        },
        {
          "indexed": true,
          "internalType": "address",
          "name": "newOwner",
          "type": "address"
        }
      ],
      "name": "OwnershipTransferred",
      "type": "event"
    },
    {
      "anonymous": false,
      "inputs": [
        {
          "indexed": false,
          "internalType": "address",
          "name": "to",
          "type": "address"
        },
        {
          "indexed": false,
          "internalType": "address",
          "name": "from",
          "type": "address"
        },
        {
          "indexed": false,
          "internalType": "address",
          "name": "sourceToken",
          "type": "address"
        },
        {
          "indexed": false,
          "internalType": "uint256",
          "name": "sourceTokenAmount",
          "type": "uint256"
        },
        {
          "indexed": false,
          "internalType": "address",
          "name": "paymentToken",
          "type": "address"
        },
        {
          "indexed": false,
          "internalType": "uint256",
          "name": "paymentTokenAmount",
          "type": "uint256"
        },
        {
          "indexed": false,
          "internalType": "bytes32",
          "name": "paymentReference",
          "type": "bytes32"
        }
      ],
      "name": "Payment",
      "type": "event"
    },
    {
      "inputs": [
        {
          "internalType": "address",
          "name": "_swapRouterAddress",
          "type": "address"
        },
        {
          "internalType": "address",
          "name": "_wrappedEtherAddress",
          "type": "address"
        }
      ],
      "name": "initialize",
      "outputs": [],
      "stateMutability": "nonpayable",
      "type": "function"
    },
    {
      "inputs": [],
      "name": "owner",
      "outputs": [
        {
          "internalType": "address",
          "name": "",
          "type": "address"
        }
      ],
      "stateMutability": "view",
      "type": "function"
    },
    {
      "inputs": [
        {
          "internalType": "address",
          "name": "to",
          "type": "address"
        },
        {
          "internalType": "address",
          "name": "sourceTokenAddress",
          "type": "address"
        },
        {
          "internalType": "uint256",
          "name": "sourceTokenAmount",
          "type": "uint256"
        },
        {
          "internalType": "address",
          "name": "paymentTokenAddress",
          "type": "address"
        },
        {
          "internalType": "uint256",
          "name": "paymentTokenAmount",
          "type": "uint256"
        },
        {
          "internalType": "address",
          "name": "allowanceTarget",
          "type": "address"
        },
        {
          "internalType": "address",
          "name": "swapTarget",
          "type": "address"
        },
        {
          "internalType": "bytes",
          "name": "swapCallData",
          "type": "bytes"
        },
        {
          "internalType": "bytes32",
          "name": "paymentReference",
          "type": "bytes32"
        }
      ],
      "name": "payWithSwap",
      "outputs": [],
      "stateMutability": "payable",
      "type": "function"
    },
    {
      "inputs": [
        {
          "internalType": "address",
          "name": "to",
          "type": "address"
        },
        {
          "internalType": "address",
          "name": "paymentTokenAddress",
          "type": "address"
        },
        {
          "internalType": "uint256",
          "name": "paymentTokenAmount",
          "type": "uint256"
        },
        {
          "internalType": "bytes32",
          "name": "paymentReference",
          "type": "bytes32"
        }
      ],
      "name": "payWithToken",
      "outputs": [],
      "stateMutability": "nonpayable",
      "type": "function"
    },
    {
      "inputs": [],
      "name": "renounceOwnership",
      "outputs": [],
      "stateMutability": "nonpayable",
      "type": "function"
    },
    {
      "inputs": [],
      "name": "swapRouter",
      "outputs": [
        {
          "internalType": "contract ISwapRouter",
          "name": "",
          "type": "address"
        }
      ],
      "stateMutability": "view",
      "type": "function"
    },
    {
      "inputs": [
        {
          "internalType": "address",
          "name": "newOwner",
          "type": "address"
        }
      ],
      "name": "transferOwnership",
      "outputs": [],
      "stateMutability": "nonpayable",
      "type": "function"
    },
    {
      "stateMutability": "payable",
      "type": "receive"
    }
  ],
  "bytecode": "0x608060405234801561001057600080fd5b5061100d806100206000396000f3fe6080604052600436106100745760003560e01c80638da5cb5b1161004e5780638da5cb5b146100d757806398295f251461010d578063c31c9c0714610120578063f2fde38b1461014057600080fd5b8063485cc9551461008057806358fb6fac146100a2578063715018a6146100c257600080fd5b3661007b57005b600080fd5b34801561008c57600080fd5b506100a061009b366004610dff565b610160565b005b3480156100ae57600080fd5b506100a06100bd366004610e32565b6102d7565b3480156100ce57600080fd5b506100a06103a5565b3480156100e357600080fd5b506033546001600160a01b03165b6040516001600160a01b03909116815260200160405180910390f35b6100a061011b366004610e74565b6103b9565b34801561012c57600080fd5b506066546100f1906001600160a01b031681565b34801561014c57600080fd5b506100a061015b366004610f58565b61090d565b600054610100900460ff16158080156101805750600054600160ff909116105b8061019a5750303b15801561019a575060005460ff166001145b6102115760405162461bcd60e51b815260206004820152602e60248201527f496e697469616c697a61626c653a20636f6e747261637420697320616c72656160448201527f647920696e697469616c697a656400000000000000000000000000000000000060648201526084015b60405180910390fd5b6000805460ff191660011790558015610234576000805461ff0019166101001790555b6066805473ffffffffffffffffffffffffffffffffffffffff19166001600160a01b03851617905561026461099d565b6065805473ffffffffffffffffffffffffffffffffffffffff19166001600160a01b03841617905580156102d2576000805461ff0019169055604051600181527f7f26b83ff96e1f2b6a682f133852f6798a09c465da95921460cefb38474024989060200160405180910390a15b505050565b6040516323b872dd60e01b81523360048201526001600160a01b0385811660248301526044820184905284916000918316906323b872dd906064016020604051808303816000875af1158015610331573d6000803e3d6000fd5b505050506040513d601f19601f820116820180604052508101906103559190610f7a565b90508061038f57604051630d88598b60e41b81526001600160a01b0380871660048301528716602482015260448101859052606401610208565b61039d868686888888610a10565b505050505050565b6103ad610a7e565b6103b76000610ad8565b565b6001600160a01b038516156103d3576103d3898987610b37565b6000846001600160a01b03163485856040516103f0929190610f9c565b60006040518083038185875af1925050503d806000811461042d576040519150601f19603f3d011682016040523d82523d6000602084013e610432565b606091505b50509050806104835760405162461bcd60e51b815260206004820152601060248201527f537761702063616c6c206661696c6564000000000000000000000000000000006044820152606401610208565b60405163a9059cbb60e01b81526001600160a01b038c8116600483015260248201899052899160009183169063a9059cbb906044016020604051808303816000875af11580156104d7573d6000803e3d6000fd5b505050506040513d601f19601f820116820180604052508101906104fb9190610f7a565b9050806105705760405162461bcd60e51b815260206004820152603760248201527f436f756c64206e6f74207472616e73666572207061796d656e7420746f6b656e60448201527f20746f2064657374696e6174696f6e20616464726573730000000000000000006064820152608401610208565b6040516370a0823160e01b81523060048201526000906001600160a01b0384169063a9059cbb90339083906370a0823190602401602060405180830381865afa1580156105c1573d6000803e3d6000fd5b505050506040513d601f19601f820116820180604052508101906105e59190610fac565b6040517fffffffff0000000000000000000000000000000000000000000000000000000060e085901b1681526001600160a01b03909216600483015260248201526044016020604051808303816000875af1158015610648573d6000803e3d6000fd5b505050506040513d601f19601f8201168201806040525081019061066c9190610f7a565b9050806106e15760405162461bcd60e51b815260206004820152603f60248201527f436f756c64206e6f7420726566756e642072656d61696e696e67207061796d6560448201527f6e7420746f6b656e20746f206f726967696e6174696e672061646472657373006064820152608401610208565b6040516370a0823160e01b81523060048201528d906000906001600160a01b0383169063a9059cbb90339083906370a0823190602401602060405180830381865afa158015610734573d6000803e3d6000fd5b505050506040513d601f19601f820116820180604052508101906107589190610fac565b6040517fffffffff0000000000000000000000000000000000000000000000000000000060e085901b1681526001600160a01b03909216600483015260248201526044016020604051808303816000875af11580156107bb573d6000803e3d6000fd5b505050506040513d601f19601f820116820180604052508101906107df9190610f7a565b9050806108545760405162461bcd60e51b815260206004820152603f60248201527f436f756c64206e6f7420726566756e642072656d61696e696e67207061796d6560448201527f6e7420746f6b656e20746f206f726967696e6174696e672061646472657373006064820152608401610208565b604051600090339047908381818185875af1925050503d8060008114610896576040519150601f19603f3d011682016040523d82523d6000602084013e61089b565b606091505b50509050806108ec5760405162461bcd60e51b815260206004820152600d60248201527f526566756e64206661696c6564000000000000000000000000000000000000006044820152606401610208565b505050506108fe8d8d8d8d8d89610a10565b50505050505050505050505050565b610915610a7e565b6001600160a01b0381166109915760405162461bcd60e51b815260206004820152602660248201527f4f776e61626c653a206e6577206f776e657220697320746865207a65726f206160448201527f64647265737300000000000000000000000000000000000000000000000000006064820152608401610208565b61099a81610ad8565b50565b600054610100900460ff16610a085760405162461bcd60e51b815260206004820152602b60248201527f496e697469616c697a61626c653a20636f6e7472616374206973206e6f74206960448201526a6e697469616c697a696e6760a81b6064820152608401610208565b6103b7610c74565b604080516001600160a01b03888116825233602083015287811682840152606082018790528516608082015260a0810184905260c0810183905290517f2415a5b602fd0082bd30dae862c30bbf8abbfcf39db48726b2d8ef555ee1abde9181900360e00190a1505050505050565b6033546001600160a01b031633146103b75760405162461bcd60e51b815260206004820181905260248201527f4f776e61626c653a2063616c6c6572206973206e6f7420746865206f776e65726044820152606401610208565b603380546001600160a01b0383811673ffffffffffffffffffffffffffffffffffffffff19831681179093556040519116919082907f8be0079c531659141344cd1fd0a4f28419497f9722a3daafe3b4186f6b6457e090600090a35050565b604051636eb1769f60e11b81523060048201526001600160a01b0382811660248301528491849183169063dd62ed3e90604401602060405180830381865afa158015610b87573d6000803e3d6000fd5b505050506040513d601f19601f82011682018060405250810190610bab9190610fac565b1015610bbb57610bbb8483610ce8565b6040516323b872dd60e01b8152336004820152306024820152604481018490526000906001600160a01b038316906323b872dd906064016020604051808303816000875af1158015610c11573d6000803e3d6000fd5b505050506040513d601f19601f82011682018060405250810190610c359190610f7a565b905080610c6d57604051630d88598b60e41b81526001600160a01b038616600482015230602482015260448101859052606401610208565b5050505050565b600054610100900460ff16610cdf5760405162461bcd60e51b815260206004820152602b60248201527f496e697469616c697a61626c653a20636f6e7472616374206973206e6f74206960448201526a6e697469616c697a696e6760a81b6064820152608401610208565b6103b733610ad8565b81600019610c6d6001600160a01b03831684836040516001600160a01b03838116602483015260448201839052600091829182919087169060640160408051601f198184030181529181526020820180517bffffffffffffffffffffffffffffffffffffffffffffffffffffffff1663095ea7b360e01b17905251610d6d9190610fc5565b6000604051808303816000865af19150503d8060008114610daa576040519150601f19603f3d011682016040523d82523d6000602084013e610daf565b606091505b5091509150818015610dd9575080511580610dd9575080806020019051810190610dd99190610f7a565b9695505050505050565b80356001600160a01b0381168114610dfa57600080fd5b919050565b60008060408385031215610e1257600080fd5b610e1b83610de3565b9150610e2960208401610de3565b90509250929050565b60008060008060808587031215610e4857600080fd5b610e5185610de3565b9350610e5f60208601610de3565b93969395505050506040820135916060013590565b6000806000806000806000806000806101208b8d031215610e9457600080fd5b610e9d8b610de3565b9950610eab60208c01610de3565b985060408b01359750610ec060608c01610de3565b965060808b01359550610ed560a08c01610de3565b9450610ee360c08c01610de3565b935060e08b013567ffffffffffffffff80821115610f0057600080fd5b818d0191508d601f830112610f1457600080fd5b813581811115610f2357600080fd5b8e6020828501011115610f3557600080fd5b6020830195508094505050506101008b013590509295989b9194979a5092959850565b600060208284031215610f6a57600080fd5b610f7382610de3565b9392505050565b600060208284031215610f8c57600080fd5b81518015158114610f7357600080fd5b8183823760009101908152919050565b600060208284031215610fbe57600080fd5b5051919050565b6000825160005b81811015610fe65760208186018101518583015201610fcc565b81811115610ff5576000828501525b50919091019291505056fea164736f6c634300080d000a",
  "linkReferences": {},
  "deployedLinkReferences": {}
}