{
  "_format": "hh-sol-artifact-1",
  "contractName": "SpritzPayV2",
  "sourceName": "contracts/SpritzPayV2.sol",
  "abi": [
    {
      "inputs": [
        {
          "internalType": "address",
          "name": "tokenAddress",
          "type": "address"
        },
        {
          "internalType": "uint256",
          "name": "amount",
          "type": "uint256"
        }
      ],
      "name": "FailedRefund",
      "type": "error"
    },
    {
      "inputs": [
        {
          "internalType": "uint256",
          "name": "required",
          "type": "uint256"
        },
        {
          "internalType": "uint256",
          "name": "amount",
          "type": "uint256"
        }
      ],
      "name": "InsufficientValue",
      "type": "error"
    },
    {
      "inputs": [
        {
          "internalType": "address",
          "name": "token",
          "type": "address"
        }
      ],
      "name": "NonAcceptedToken",
      "type": "error"
    },
    {
      "inputs": [],
      "name": "SetZeroAddress",
      "type": "error"
    },
    {
      "inputs": [
        {
          "internalType": "address",
          "name": "caller",
          "type": "address"
        }
      ],
      "name": "UnauthorizedExecutor",
      "type": "error"
    },
    {
      "inputs": [],
      "name": "V2RouterNotConfigured",
      "type": "error"
    },
    {
      "inputs": [],
      "name": "V3RouterNotConfigured",
      "type": "error"
    },
    {
      "anonymous": false,
      "inputs": [
        {
          "indexed": false,
          "internalType": "uint8",
          "name": "version",
          "type": "uint8"
        }
      ],
      "name": "Initialized",
      "type": "event"
    },
    {
      "anonymous": false,
      "inputs": [
        {
          "indexed": false,
          "internalType": "address",
          "name": "account",
          "type": "address"
        }
      ],
      "name": "Paused",
      "type": "event"
    },
    {
      "anonymous": false,
      "inputs": [
        {
          "indexed": false,
          "internalType": "address",
          "name": "to",
          "type": "address"
        },
        {
          "indexed": true,
          "internalType": "address",
          "name": "from",
          "type": "address"
        },
        {
          "indexed": true,
          "internalType": "address",
          "name": "sourceToken",
          "type": "address"
        },
        {
          "indexed": false,
          "internalType": "uint256",
          "name": "sourceTokenAmount",
          "type": "uint256"
        },
        {
          "indexed": false,
          "internalType": "address",
          "name": "paymentToken",
          "type": "address"
        },
        {
          "indexed": false,
          "internalType": "uint256",
          "name": "paymentTokenAmount",
          "type": "uint256"
        },
        {
          "indexed": true,
          "internalType": "bytes32",
          "name": "paymentReference",
          "type": "bytes32"
        }
      ],
      "name": "Payment",
      "type": "event"
    },
    {
      "anonymous": false,
      "inputs": [
        {
          "indexed": false,
          "internalType": "address",
          "name": "recipient",
          "type": "address"
        },
        {
          "indexed": false,
          "internalType": "address",
          "name": "sender",
          "type": "address"
        }
      ],
      "name": "PaymentRecipientChanged",
      "type": "event"
    },
    {
      "anonymous": false,
      "inputs": [
        {
          "indexed": false,
          "internalType": "address",
          "name": "token",
          "type": "address"
        }
      ],
      "name": "PaymentTokenAdded",
      "type": "event"
    },
    {
      "anonymous": false,
      "inputs": [
        {
          "indexed": false,
          "internalType": "address",
          "name": "token",
          "type": "address"
        }
      ],
      "name": "PaymentTokenRemoved",
      "type": "event"
    },
    {
      "anonymous": false,
      "inputs": [
        {
          "indexed": true,
          "internalType": "bytes32",
          "name": "role",
          "type": "bytes32"
        },
        {
          "indexed": true,
          "internalType": "bytes32",
          "name": "previousAdminRole",
          "type": "bytes32"
        },
        {
          "indexed": true,
          "internalType": "bytes32",
          "name": "newAdminRole",
          "type": "bytes32"
        }
      ],
      "name": "RoleAdminChanged",
      "type": "event"
    },
    {
      "anonymous": false,
      "inputs": [
        {
          "indexed": true,
          "internalType": "bytes32",
          "name": "role",
          "type": "bytes32"
        },
        {
          "indexed": true,
          "internalType": "address",
          "name": "account",
          "type": "address"
        },
        {
          "indexed": true,
          "internalType": "address",
          "name": "sender",
          "type": "address"
        }
      ],
      "name": "RoleGranted",
      "type": "event"
    },
    {
      "anonymous": false,
      "inputs": [
        {
          "indexed": true,
          "internalType": "bytes32",
          "name": "role",
          "type": "bytes32"
        },
        {
          "indexed": true,
          "internalType": "address",
          "name": "account",
          "type": "address"
        },
        {
          "indexed": true,
          "internalType": "address",
          "name": "sender",
          "type": "address"
        }
      ],
      "name": "RoleRevoked",
      "type": "event"
    },
    {
      "anonymous": false,
      "inputs": [
        {
          "indexed": false,
          "internalType": "address",
          "name": "account",
          "type": "address"
        }
      ],
      "name": "Unpaused",
      "type": "event"
    },
    {
      "inputs": [],
      "name": "DEFAULT_ADMIN_ROLE",
      "outputs": [
        {
          "internalType": "bytes32",
          "name": "",
          "type": "bytes32"
        }
      ],
      "stateMutability": "view",
      "type": "function"
    },
    {
      "inputs": [],
      "name": "PAUSER_ROLE",
      "outputs": [
        {
          "internalType": "bytes32",
          "name": "",
          "type": "bytes32"
        }
      ],
      "stateMutability": "view",
      "type": "function"
    },
    {
      "inputs": [],
      "name": "acceptedPaymentTokens",
      "outputs": [
        {
          "internalType": "address[]",
          "name": "",
          "type": "address[]"
        }
      ],
      "stateMutability": "view",
      "type": "function"
    },
    {
      "inputs": [
        {
          "internalType": "address",
          "name": "newToken",
          "type": "address"
        }
      ],
      "name": "addPaymentToken",
      "outputs": [],
      "stateMutability": "nonpayable",
      "type": "function"
    },
    {
      "inputs": [
        {
          "internalType": "bytes32",
          "name": "role",
          "type": "bytes32"
        }
      ],
      "name": "getRoleAdmin",
      "outputs": [
        {
          "internalType": "bytes32",
          "name": "",
          "type": "bytes32"
        }
      ],
      "stateMutability": "view",
      "type": "function"
    },
    {
      "inputs": [
        {
          "internalType": "bytes32",
          "name": "role",
          "type": "bytes32"
        },
        {
          "internalType": "uint256",
          "name": "index",
          "type": "uint256"
        }
      ],
      "name": "getRoleMember",
      "outputs": [
        {
          "internalType": "address",
          "name": "",
          "type": "address"
        }
      ],
      "stateMutability": "view",
      "type": "function"
    },
    {
      "inputs": [
        {
          "internalType": "bytes32",
          "name": "role",
          "type": "bytes32"
        }
      ],
      "name": "getRoleMemberCount",
      "outputs": [
        {
          "internalType": "uint256",
          "name": "",
          "type": "uint256"
        }
      ],
      "stateMutability": "view",
      "type": "function"
    },
    {
      "inputs": [
        {
          "internalType": "bytes32",
          "name": "role",
          "type": "bytes32"
        },
        {
          "internalType": "address",
          "name": "account",
          "type": "address"
        }
      ],
      "name": "grantRole",
      "outputs": [],
      "stateMutability": "nonpayable",
      "type": "function"
    },
    {
      "inputs": [
        {
          "internalType": "bytes32",
          "name": "role",
          "type": "bytes32"
        },
        {
          "internalType": "address",
          "name": "account",
          "type": "address"
        }
      ],
      "name": "hasRole",
      "outputs": [
        {
          "internalType": "bool",
          "name": "",
          "type": "bool"
        }
      ],
      "stateMutability": "view",
      "type": "function"
    },
    {
      "inputs": [
        {
          "internalType": "address",
          "name": "_admin",
          "type": "address"
        },
        {
          "internalType": "address",
          "name": "_paymentRecipient",
          "type": "address"
        },
        {
          "internalType": "address",
          "name": "_swapTarget",
          "type": "address"
        },
        {
          "internalType": "address",
          "name": "_wrappedNative",
          "type": "address"
        },
        {
          "internalType": "address[]",
          "name": "_acceptedTokens",
          "type": "address[]"
        }
      ],
      "name": "initialize",
      "outputs": [],
      "stateMutability": "nonpayable",
      "type": "function"
    },
    {
      "inputs": [],
      "name": "pause",
      "outputs": [],
      "stateMutability": "nonpayable",
      "type": "function"
    },
    {
      "inputs": [],
      "name": "paused",
      "outputs": [
        {
          "internalType": "bool",
          "name": "",
          "type": "bool"
        }
      ],
      "stateMutability": "view",
      "type": "function"
    },
    {
      "inputs": [
        {
          "internalType": "address[]",
          "name": "path",
          "type": "address[]"
        },
        {
          "internalType": "uint256",
          "name": "sourceTokenAmountMax",
          "type": "uint256"
        },
        {
          "internalType": "uint256",
          "name": "paymentTokenAmount",
          "type": "uint256"
        },
        {
          "internalType": "bytes32",
          "name": "paymentReference",
          "type": "bytes32"
        },
        {
          "internalType": "uint256",
          "name": "deadline",
          "type": "uint256"
        }
      ],
      "name": "payWithSwap",
      "outputs": [],
      "stateMutability": "payable",
      "type": "function"
    },
    {
      "inputs": [
        {
          "internalType": "address",
          "name": "paymentTokenAddress",
          "type": "address"
        },
        {
          "internalType": "uint256",
          "name": "paymentTokenAmount",
          "type": "uint256"
        },
        {
          "internalType": "bytes32",
          "name": "paymentReference",
          "type": "bytes32"
        }
      ],
      "name": "payWithToken",
      "outputs": [],
      "stateMutability": "nonpayable",
      "type": "function"
    },
    {
      "inputs": [
        {
          "internalType": "address",
          "name": "payee",
          "type": "address"
        },
        {
          "internalType": "address",
          "name": "paymentTokenAddress",
          "type": "address"
        },
        {
          "internalType": "uint256",
          "name": "paymentTokenAmount",
          "type": "uint256"
        },
        {
          "internalType": "bytes32",
          "name": "paymentReference",
          "type": "bytes32"
        }
      ],
      "name": "payWithTokenSubscription",
      "outputs": [],
      "stateMutability": "nonpayable",
      "type": "function"
    },
    {
      "inputs": [
        {
          "internalType": "bytes",
          "name": "path",
          "type": "bytes"
        },
        {
          "internalType": "address",
          "name": "sourceTokenAddress",
          "type": "address"
        },
        {
          "internalType": "uint256",
          "name": "sourceTokenAmountMax",
          "type": "uint256"
        },
        {
          "internalType": "address",
          "name": "paymentTokenAddress",
          "type": "address"
        },
        {
          "internalType": "uint256",
          "name": "paymentTokenAmount",
          "type": "uint256"
        },
        {
          "internalType": "bytes32",
          "name": "paymentReference",
          "type": "bytes32"
        },
        {
          "internalType": "uint256",
          "name": "deadline",
          "type": "uint256"
        }
      ],
      "name": "payWithV3Swap",
      "outputs": [],
      "stateMutability": "payable",
      "type": "function"
    },
    {
      "inputs": [],
      "name": "paymentRecipient",
      "outputs": [
        {
          "internalType": "address",
          "name": "",
          "type": "address"
        }
      ],
      "stateMutability": "view",
      "type": "function"
    },
    {
      "inputs": [
        {
          "internalType": "address",
          "name": "newToken",
          "type": "address"
        }
      ],
      "name": "removePaymentToken",
      "outputs": [],
      "stateMutability": "nonpayable",
      "type": "function"
    },
    {
      "inputs": [
        {
          "internalType": "bytes32",
          "name": "role",
          "type": "bytes32"
        },
        {
          "internalType": "address",
          "name": "account",
          "type": "address"
        }
      ],
      "name": "renounceRole",
      "outputs": [],
      "stateMutability": "nonpayable",
      "type": "function"
    },
    {
      "inputs": [
        {
          "internalType": "bytes32",
          "name": "role",
          "type": "bytes32"
        },
        {
          "internalType": "address",
          "name": "account",
          "type": "address"
        }
      ],
      "name": "revokeRole",
      "outputs": [],
      "stateMutability": "nonpayable",
      "type": "function"
    },
    {
      "inputs": [
        {
          "internalType": "address",
          "name": "newPaymentRecipient",
          "type": "address"
        }
      ],
      "name": "setPaymentRecipient",
      "outputs": [],
      "stateMutability": "nonpayable",
      "type": "function"
    },
    {
      "inputs": [
        {
          "internalType": "address",
          "name": "swapPayAddress",
          "type": "address"
        }
      ],
      "name": "setSmartPayAddress",
      "outputs": [],
      "stateMutability": "nonpayable",
      "type": "function"
    },
    {
      "inputs": [
        {
          "internalType": "address",
          "name": "newSwapTarget",
          "type": "address"
        }
      ],
      "name": "setV3SwapTarget",
      "outputs": [],
      "stateMutability": "nonpayable",
      "type": "function"
    },
    {
      "inputs": [
        {
          "internalType": "bytes4",
          "name": "interfaceId",
          "type": "bytes4"
        }
      ],
      "name": "supportsInterface",
      "outputs": [
        {
          "internalType": "bool",
          "name": "",
          "type": "bool"
        }
      ],
      "stateMutability": "view",
      "type": "function"
    },
    {
      "inputs": [],
      "name": "swapTarget",
      "outputs": [
        {
          "internalType": "address",
          "name": "",
          "type": "address"
        }
      ],
      "stateMutability": "view",
      "type": "function"
    },
    {
      "inputs": [],
      "name": "unpause",
      "outputs": [],
      "stateMutability": "nonpayable",
      "type": "function"
    },
    {
      "stateMutability": "payable",
      "type": "receive"
    }
  ],
  "bytecode": "0x608060405234801561001057600080fd5b50612d68806100206000396000f3fe6080604052600436106101a55760003560e01c80638456cb59116100e1578063aa2aedc41161008a578063d71d963211610064578063d71d96321461049d578063dd95e1d4146104bd578063e63ab1e9146104dd578063f8453e7c1461051157600080fd5b8063aa2aedc41461043b578063ca15c8731461045d578063d547741f1461047d57600080fd5b8063a217fddf116100bb578063a217fddf146103f3578063a4d819f614610408578063a51254211461041b57600080fd5b80638456cb59146103785780639010d07c1461038d57806391d14854146103ad57600080fd5b806336568abe1161014e5780634c26a1cc116101285780634c26a1cc1461030e5780635c975abb146103215780637e7f0cde14610339578063819565b91461035857600080fd5b806336568abe146102b95780633f4ba83a146102d95780634a7dc8e0146102ee57600080fd5b80632983c4b81161017f5780632983c4b8146102465780632b1eaf29146102665780632f2ff15d1461029957600080fd5b806301ffc9a7146101b1578063174a78c4146101e6578063248a9ca31461020857600080fd5b366101ac57005b600080fd5b3480156101bd57600080fd5b506101d16101cc366004612920565b610531565b60405190151581526020015b60405180910390f35b3480156101f257600080fd5b5061020661020136600461265a565b610575565b005b34801561021457600080fd5b506102386102233660046128b9565b60009081526097602052604090206001015490565b6040519081526020016101dd565b34801561025257600080fd5b5061020661026136600461265a565b61058d565b34801561027257600080fd5b5061012d546001600160a01b03165b6040516001600160a01b0390911681526020016101dd565b3480156102a557600080fd5b506102066102b43660046128d2565b6105a1565b3480156102c557600080fd5b506102066102d43660046128d2565b6105cb565b3480156102e557600080fd5b50610206610658565b3480156102fa57600080fd5b5061020661030936600461265a565b61066e565b61020661031c366004612770565b610682565b34801561032d57600080fd5b5060335460ff166101d1565b34801561034557600080fd5b5061012e546001600160a01b0316610281565b34801561036457600080fd5b506102066103733660046126fb565b610b81565b34801561038457600080fd5b50610206610c51565b34801561039957600080fd5b506102816103a83660046128fe565b610c83565b3480156103b957600080fd5b506101d16103c83660046128d2565b60009182526097602090815260408084206001600160a01b0393909316845291905290205460ff1690565b3480156103ff57600080fd5b50610238600081565b61020661041636600461294a565b610ca2565b34801561042757600080fd5b5061020661043636600461265a565b611118565b34801561044757600080fd5b5061045061112c565b6040516101dd9190612b29565b34801561046957600080fd5b506102386104783660046128b9565b61113e565b34801561048957600080fd5b506102066104983660046128d2565b611155565b3480156104a957600080fd5b506102066104b836600461273d565b61117a565b3480156104c957600080fd5b506102066104d836600461265a565b611231565b3480156104e957600080fd5b506102387f65d7a28e3265b37a6474929f336521b332c1681b933f6cb9f3376673440d862a81565b34801561051d57600080fd5b5061020661052c366004612675565b611245565b60006001600160e01b031982167f5a05180f00000000000000000000000000000000000000000000000000000000148061056f575061056f82611389565b92915050565b6000610580816113f0565b610589826113fa565b5050565b6000610598816113f0565b61058982611444565b6000828152609760205260409020600101546105bc816113f0565b6105c683836114c6565b505050565b6001600160a01b038116331461064e5760405162461bcd60e51b815260206004820152602f60248201527f416363657373436f6e74726f6c3a2063616e206f6e6c792072656e6f756e636560448201527f20726f6c657320666f722073656c66000000000000000000000000000000000060648201526084015b60405180910390fd5b61058982826114e8565b6000610663816113f0565b61066b61150a565b50565b6000610679816113f0565b6105898261155c565b61068a6115a2565b600260fb5414156106dd5760405162461bcd60e51b815260206004820152601f60248201527f5265656e7472616e637947756172643a207265656e7472616e742063616c6c006044820152606401610645565b600260fb5561012e546001600160a01b0316610725576040517f6746d0d500000000000000000000000000000000000000000000000000000000815260040160405180910390fd5b60008686600081811061073a5761073a612d2f565b905060200201602081019061074f919061265a565b905060008787610760600182612c8e565b81811061076f5761076f612d2f565b9050602002016020810190610784919061265a565b905061078f816115f7565b6107b75760405163785fb0e760e11b81526001600160a01b0382166004820152602401610645565b61012f5482906001600160a01b03808316911614806108975761012e54604051636eb1769f60e11b81523060048201526001600160a01b03918216602482015260009184169063dd62ed3e9060440160206040518083038186803b15801561081e57600080fd5b505afa158015610832573d6000803e3d6000fd5b505050506040513d601f19601f820116820180604052508101906108569190612a00565b9050888110156108805761012e5481199061087e906001600160a01b03868116911683611605565b505b6108956001600160a01b03841633308c61170e565b505b61012e546060906001600160a01b03168261095557806001600160a01b0316638803dbee8a8c8f8f61012d60009054906101000a90046001600160a01b03168d6040518763ffffffff1660e01b81526004016108f896959493929190612c19565b600060405180830381600087803b15801561091257600080fd5b505af1158015610926573d6000803e3d6000fd5b505050506040513d6000823e601f3d908101601f1916820160405261094e91908101906127d2565b91506109f9565b806001600160a01b031663fb3bdb41348b8f8f61012d60009054906101000a90046001600160a01b03168d6040518763ffffffff1660e01b81526004016109a0959493929190612be2565b6000604051808303818588803b1580156109b957600080fd5b505af11580156109cd573d6000803e3d6000fd5b50505050506040513d6000823e601f3d908101601f191682016040526109f691908101906127d2565b91505b50600081600081518110610a0f57610a0f612d2f565b60209081029190910181015161012d54604080516001600160a01b03928316815293840183905288821690840152606083018c905290925089919088169033907f2415a5b602fd0082bd30dae862c30bbf8abbfcf39db48726b2d8ef555ee1abde9060800160405180910390a46000610a88828c612c8e565b90508015610b6d57600084610b1c5760405163a9059cbb60e01b8152336004820152602481018390526001600160a01b0387169063a9059cbb90604401602060405180830381600087803b158015610adf57600080fd5b505af1158015610af3573d6000803e3d6000fd5b505050506040513d601f19601f82011682018060405250810190610b179190612897565b610b39565b604051339083156108fc029084906000818181858888f193505050505b905080610b6b57604051630814880360e01b81526001600160a01b038916600482015260248101839052604401610645565b505b5050600160fb555050505050505050505050565b610b896115a2565b610133546001600160a01b03163314610bd0576040517f170b9abb000000000000000000000000000000000000000000000000000000008152336004820152602401610645565b61012d54604080516001600160a01b039283168152602081018590528583169181018290526060810185905283928716907f2415a5b602fd0082bd30dae862c30bbf8abbfcf39db48726b2d8ef555ee1abde9060800160405180910390a461012d54610c4b906001600160a01b03858116913391168561170e565b50505050565b7f65d7a28e3265b37a6474929f336521b332c1681b933f6cb9f3376673440d862a610c7b816113f0565b61066b61175f565b600082815260c960205260408120610c9b908361179c565b9392505050565b610caa6115a2565b600260fb541415610cfd5760405162461bcd60e51b815260206004820152601f60248201527f5265656e7472616e637947756172643a207265656e7472616e742063616c6c006044820152606401610645565b600260fb55610132546001600160a01b0316610d45576040517f29ce9e1a00000000000000000000000000000000000000000000000000000000815260040160405180910390fd5b610d4e846115f7565b610d765760405163785fb0e760e11b81526001600160a01b0385166004820152602401610645565b61012f546001600160a01b03878116911614868115610e2b5786341015610dd2576040517f7040b58c00000000000000000000000000000000000000000000000000000000815260048101889052346024820152604401610645565b876001600160a01b031663d0e30db0886040518263ffffffff1660e01b81526004016000604051808303818588803b158015610e0d57600080fd5b505af1158015610e21573d6000803e3d6000fd5b5050505050610e40565b610e406001600160a01b03821633308a61170e565b61013254610e5b906001600160a01b03838116911689611605565b6000806040518060a001604052808d8d8080601f01602080910402602001604051908101604052809392919081815260200183838082843760009201919091525050509082525061012d546001600160a01b0390811660208301526040808301899052606083018b905260809092018c90526101325491517ff28c04980000000000000000000000000000000000000000000000000000000081529293501690819063f28c049890610f11908590600401612b89565b602060405180830381600087803b158015610f2b57600080fd5b505af1158015610f3f573d6000803e3d6000fd5b505050506040513d601f19601f82011682018060405250810190610f639190612a00565b9250505060008189610f759190612c8e565b61013254909150610f94906001600160a01b03858116911660006117a8565b80156110a8578315611094576040517f2e1a7d4d000000000000000000000000000000000000000000000000000000008152600481018290526001600160a01b038b1690632e1a7d4d90602401600060405180830381600087803b158015610ffb57600080fd5b505af115801561100f573d6000803e3d6000fd5b50506040516000925033915083908381818185875af1925050503d8060008114611055576040519150601f19603f3d011682016040523d82523d6000602084013e61105a565b606091505b505090508061108e57604051630814880360e01b81526001600160a01b038c16600482015260248101839052604401610645565b506110a8565b6110a86001600160a01b03841633836118d3565b61012d54604080516001600160a01b039283168152602081018590528a831681830152606081018a9052905188928d169133917f2415a5b602fd0082bd30dae862c30bbf8abbfcf39db48726b2d8ef555ee1abde9181900360800190a45050600160fb5550505050505050505050565b6000611123816113f0565b61058982611903565b6060611139610130611949565b905090565b600081815260c96020526040812061056f90611956565b600082815260976020526040902060010154611170816113f0565b6105c683836114e8565b6111826115a2565b8261118f61013082611960565b6111b75760405163785fb0e760e11b81526001600160a01b0382166004820152602401610645565b61012d54604080516001600160a01b0392831681526020810186905291861690820181905260608201859052839133907f2415a5b602fd0082bd30dae862c30bbf8abbfcf39db48726b2d8ef555ee1abde9060800160405180910390a461012d54610c4b906001600160a01b03868116913391168661170e565b600061123c816113f0565b61058982611982565b600054610100900460ff16158080156112655750600054600160ff909116105b8061127f5750303b15801561127f575060005460ff166001145b6112f15760405162461bcd60e51b815260206004820152602e60248201527f496e697469616c697a61626c653a20636f6e747261637420697320616c72656160448201527f647920696e697469616c697a65640000000000000000000000000000000000006064820152608401610645565b6000805460ff191660011790558015611314576000805461ff0019166101001790555b6113228787878787876119cc565b61132a611ad3565b611332611b46565b61133a611bb1565b8015611380576000805461ff0019169055604051600181527f7f26b83ff96e1f2b6a682f133852f6798a09c465da95921460cefb38474024989060200160405180910390a15b50505050505050565b60006001600160e01b031982167f7965db0b00000000000000000000000000000000000000000000000000000000148061056f57507f01ffc9a7000000000000000000000000000000000000000000000000000000006001600160e01b031983161461056f565b61066b8133611c24565b6001600160a01b03811661142157604051631508131960e01b815260040160405180910390fd5b61013280546001600160a01b0319166001600160a01b0392909216919091179055565b6001600160a01b03811661146b57604051631508131960e01b815260040160405180910390fd5b61012d80546001600160a01b0319166001600160a01b038316908117909155604080519182523360208301527ff2aee2de2705c86bdfda6c3ddaddc83ce3b729f850c62f38aa6c9fc93158a5d491015b60405180910390a150565b6114d08282611ca4565b600082815260c9602052604090206105c69082611d46565b6114f28282611d5b565b600082815260c9602052604090206105c69082611dde565b611512611df3565b6033805460ff191690557f5db9ee0a495bf2e6ff9c91a7834c1ba4fdd244a5e8aa4e537bd38aeae4b073aa335b6040516001600160a01b03909116815260200160405180910390a1565b61156861013082611d46565b506040516001600160a01b03821681527fa317c10673baf4f03b3c1041bd5ddbb537d0333a86fec3607c75f9dbb630f48f906020016114bb565b60335460ff16156115f55760405162461bcd60e51b815260206004820152601060248201527f5061757361626c653a20706175736564000000000000000000000000000000006044820152606401610645565b565b600061056f61013083611960565b604051636eb1769f60e11b81523060048201526001600160a01b038381166024830152600091839186169063dd62ed3e9060440160206040518083038186803b15801561165157600080fd5b505afa158015611665573d6000803e3d6000fd5b505050506040513d601f19601f820116820180604052508101906116899190612a00565b6116939190612c57565b6040516001600160a01b038516602482015260448101829052909150610c4b90859063095ea7b360e01b906064015b60408051601f198184030181529190526020810180517bffffffffffffffffffffffffffffffffffffffffffffffffffffffff166001600160e01b031990931692909217909152611e45565b6040516001600160a01b0380851660248301528316604482015260648101829052610c4b9085907f23b872dd00000000000000000000000000000000000000000000000000000000906084016116c2565b6117676115a2565b6033805460ff191660011790557f62e78cea01bee320cd4e420270b5ea74000d11b0c9f74754ebdbfc544b05a25861153f3390565b6000610c9b8383611f2a565b8015806118315750604051636eb1769f60e11b81523060048201526001600160a01b03838116602483015284169063dd62ed3e9060440160206040518083038186803b1580156117f757600080fd5b505afa15801561180b573d6000803e3d6000fd5b505050506040513d601f19601f8201168201806040525081019061182f9190612a00565b155b6118a35760405162461bcd60e51b815260206004820152603660248201527f5361666545524332303a20617070726f76652066726f6d206e6f6e2d7a65726f60448201527f20746f206e6f6e2d7a65726f20616c6c6f77616e6365000000000000000000006064820152608401610645565b6040516001600160a01b0383166024820152604481018290526105c690849063095ea7b360e01b906064016116c2565b6040516001600160a01b0383166024820152604481018290526105c690849063a9059cbb60e01b906064016116c2565b61190f61013082611dde565b506040516001600160a01b03821681527f85a3e72f8dd6db3794f93109c3c5f5b79d6112f6979431c45f98b26134b42af2906020016114bb565b60606000610c9b83611f54565b600061056f825490565b6001600160a01b03811660009081526001830160205260408120541515610c9b565b6001600160a01b0381166119a957604051631508131960e01b815260040160405180910390fd5b61013380546001600160a01b0319166001600160a01b0392909216919091179055565b600054610100900460ff16611a375760405162461bcd60e51b815260206004820152602b60248201527f496e697469616c697a61626c653a20636f6e7472616374206973206e6f74206960448201526a6e697469616c697a696e6760a81b6064820152608401610645565b611a42600087611fb0565b611a6c7f65d7a28e3265b37a6474929f336521b332c1681b933f6cb9f3376673440d862a87611fb0565b611a7585611444565b611a7e84611fba565b611a8783612004565b60005b8181101561138057611ac1838383818110611aa757611aa7612d2f565b9050602002016020810190611abc919061265a565b61155c565b80611acb81612ce8565b915050611a8a565b600054610100900460ff16611b3e5760405162461bcd60e51b815260206004820152602b60248201527f496e697469616c697a61626c653a20636f6e7472616374206973206e6f74206960448201526a6e697469616c697a696e6760a81b6064820152608401610645565b6115f561204e565b600054610100900460ff166115f55760405162461bcd60e51b815260206004820152602b60248201527f496e697469616c697a61626c653a20636f6e7472616374206973206e6f74206960448201526a6e697469616c697a696e6760a81b6064820152608401610645565b600054610100900460ff16611c1c5760405162461bcd60e51b815260206004820152602b60248201527f496e697469616c697a61626c653a20636f6e7472616374206973206e6f74206960448201526a6e697469616c697a696e6760a81b6064820152608401610645565b6115f56120c5565b60008281526097602090815260408083206001600160a01b038516845290915290205460ff1661058957611c62816001600160a01b03166014612137565b611c6d836020612137565b604051602001611c7e929190612aa8565b60408051601f198184030181529082905262461bcd60e51b825261064591600401612b76565b60008281526097602090815260408083206001600160a01b038516845290915290205460ff166105895760008281526097602090815260408083206001600160a01b03851684529091529020805460ff19166001179055611d023390565b6001600160a01b0316816001600160a01b0316837f2f8788117e7eff1d82e926ec794901d17c78024a50270940304540a733656f0d60405160405180910390a45050565b6000610c9b836001600160a01b038416612318565b60008281526097602090815260408083206001600160a01b038516845290915290205460ff16156105895760008281526097602090815260408083206001600160a01b0385168085529252808320805460ff1916905551339285917ff6391f5c32d9c69d2a47ea670b442974b53935d1edc7fd64eb21e047a839171b9190a45050565b6000610c9b836001600160a01b038416612367565b60335460ff166115f55760405162461bcd60e51b815260206004820152601460248201527f5061757361626c653a206e6f74207061757365640000000000000000000000006044820152606401610645565b6000611e9a826040518060400160405280602081526020017f5361666545524332303a206c6f772d6c6576656c2063616c6c206661696c6564815250856001600160a01b031661245a9092919063ffffffff16565b8051909150156105c65780806020019051810190611eb89190612897565b6105c65760405162461bcd60e51b815260206004820152602a60248201527f5361666545524332303a204552433230206f7065726174696f6e20646964206e60448201527f6f742073756363656564000000000000000000000000000000000000000000006064820152608401610645565b6000826000018281548110611f4157611f41612d2f565b9060005260206000200154905092915050565b606081600001805480602002602001604051908101604052809291908181526020018280548015611fa457602002820191906000526020600020905b815481526020019060010190808311611f90575b50505050509050919050565b61058982826114c6565b6001600160a01b038116611fe157604051631508131960e01b815260040160405180910390fd5b61012e80546001600160a01b0319166001600160a01b0392909216919091179055565b6001600160a01b03811661202b57604051631508131960e01b815260040160405180910390fd5b61012f80546001600160a01b0319166001600160a01b0392909216919091179055565b600054610100900460ff166120b95760405162461bcd60e51b815260206004820152602b60248201527f496e697469616c697a61626c653a20636f6e7472616374206973206e6f74206960448201526a6e697469616c697a696e6760a81b6064820152608401610645565b6033805460ff19169055565b600054610100900460ff166121305760405162461bcd60e51b815260206004820152602b60248201527f496e697469616c697a61626c653a20636f6e7472616374206973206e6f74206960448201526a6e697469616c697a696e6760a81b6064820152608401610645565b600160fb55565b60606000612146836002612c6f565b612151906002612c57565b67ffffffffffffffff81111561216957612169612d45565b6040519080825280601f01601f191660200182016040528015612193576020820181803683370190505b5090507f3000000000000000000000000000000000000000000000000000000000000000816000815181106121ca576121ca612d2f565b60200101906001600160f81b031916908160001a9053507f78000000000000000000000000000000000000000000000000000000000000008160018151811061221557612215612d2f565b60200101906001600160f81b031916908160001a9053506000612239846002612c6f565b612244906001612c57565b90505b60018111156122c9577f303132333435363738396162636465660000000000000000000000000000000085600f166010811061228557612285612d2f565b1a60f81b82828151811061229b5761229b612d2f565b60200101906001600160f81b031916908160001a90535060049490941c936122c281612cd1565b9050612247565b508315610c9b5760405162461bcd60e51b815260206004820181905260248201527f537472696e67733a20686578206c656e67746820696e73756666696369656e746044820152606401610645565b600081815260018301602052604081205461235f5750815460018181018455600084815260208082209093018490558454848252828601909352604090209190915561056f565b50600061056f565b6000818152600183016020526040812054801561245057600061238b600183612c8e565b855490915060009061239f90600190612c8e565b90508181146124045760008660000182815481106123bf576123bf612d2f565b90600052602060002001549050808760000184815481106123e2576123e2612d2f565b6000918252602080832090910192909255918252600188019052604090208390555b855486908061241557612415612d19565b60019003818190600052602060002001600090559055856001016000868152602001908152602001600020600090556001935050505061056f565b600091505061056f565b60606124698484600085612471565b949350505050565b6060824710156124e95760405162461bcd60e51b815260206004820152602660248201527f416464726573733a20696e73756666696369656e742062616c616e636520666f60448201527f722063616c6c00000000000000000000000000000000000000000000000000006064820152608401610645565b6001600160a01b0385163b6125405760405162461bcd60e51b815260206004820152601d60248201527f416464726573733a2063616c6c20746f206e6f6e2d636f6e74726163740000006044820152606401610645565b600080866001600160a01b0316858760405161255c9190612a8c565b60006040518083038185875af1925050503d8060008114612599576040519150601f19603f3d011682016040523d82523d6000602084013e61259e565b606091505b50915091506125ae8282866125b9565b979650505050505050565b606083156125c8575081610c9b565b8251156125d85782518084602001fd5b8160405162461bcd60e51b81526004016106459190612b76565b80356001600160a01b038116811461260957600080fd5b919050565b60008083601f84011261262057600080fd5b50813567ffffffffffffffff81111561263857600080fd5b6020830191508360208260051b850101111561265357600080fd5b9250929050565b60006020828403121561266c57600080fd5b610c9b826125f2565b60008060008060008060a0878903121561268e57600080fd5b612697876125f2565b95506126a5602088016125f2565b94506126b3604088016125f2565b93506126c1606088016125f2565b9250608087013567ffffffffffffffff8111156126dd57600080fd5b6126e989828a0161260e565b979a9699509497509295939492505050565b6000806000806080858703121561271157600080fd5b61271a856125f2565b9350612728602086016125f2565b93969395505050506040820135916060013590565b60008060006060848603121561275257600080fd5b61275b846125f2565b95602085013595506040909401359392505050565b60008060008060008060a0878903121561278957600080fd5b863567ffffffffffffffff8111156127a057600080fd5b6127ac89828a0161260e565b909a90995060208901359860408101359850606081013597506080013595509350505050565b600060208083850312156127e557600080fd5b825167ffffffffffffffff808211156127fd57600080fd5b818501915085601f83011261281157600080fd5b81518181111561282357612823612d45565b8060051b604051601f19603f8301168101818110858211171561284857612848612d45565b604052828152858101935084860182860187018a101561286757600080fd5b600095505b8386101561288a57805185526001959095019493860193860161286c565b5098975050505050505050565b6000602082840312156128a957600080fd5b81518015158114610c9b57600080fd5b6000602082840312156128cb57600080fd5b5035919050565b600080604083850312156128e557600080fd5b823591506128f5602084016125f2565b90509250929050565b6000806040838503121561291157600080fd5b50508035926020909101359150565b60006020828403121561293257600080fd5b81356001600160e01b031981168114610c9b57600080fd5b60008060008060008060008060e0898b03121561296657600080fd5b883567ffffffffffffffff8082111561297e57600080fd5b818b0191508b601f83011261299257600080fd5b8135818111156129a157600080fd5b8c60208285010111156129b357600080fd5b60209283019a5098506129c9918b0190506125f2565b9550604089013594506129de60608a016125f2565b979a96995094979396956080850135955060a08501359460c001359350915050565b600060208284031215612a1257600080fd5b5051919050565b8183526000602080850194508260005b85811015612a55576001600160a01b03612a42836125f2565b1687529582019590820190600101612a29565b509495945050505050565b60008151808452612a78816020860160208601612ca5565b601f01601f19169290920160200192915050565b60008251612a9e818460208701612ca5565b9190910192915050565b7f416363657373436f6e74726f6c3a206163636f756e7420000000000000000000815260008351612ae0816017850160208801612ca5565b7f206973206d697373696e6720726f6c65200000000000000000000000000000006017918401918201528351612b1d816028840160208801612ca5565b01602801949350505050565b6020808252825182820181905260009190848201906040850190845b81811015612b6a5783516001600160a01b031683529284019291840191600101612b45565b50909695505050505050565b602081526000610c9b6020830184612a60565b602081526000825160a06020840152612ba560c0840182612a60565b90506001600160a01b0360208501511660408401526040840151606084015260608401516080840152608084015160a08401528091505092915050565b858152608060208201526000612bfc608083018688612a19565b6001600160a01b0394909416604083015250606001529392505050565b86815285602082015260a060408201526000612c3960a083018688612a19565b6001600160a01b039490941660608301525060800152949350505050565b60008219821115612c6a57612c6a612d03565b500190565b6000816000190483118215151615612c8957612c89612d03565b500290565b600082821015612ca057612ca0612d03565b500390565b60005b83811015612cc0578181015183820152602001612ca8565b83811115610c4b5750506000910152565b600081612ce057612ce0612d03565b506000190190565b6000600019821415612cfc57612cfc612d03565b5060010190565b634e487b7160e01b600052601160045260246000fd5b634e487b7160e01b600052603160045260246000fd5b634e487b7160e01b600052603260045260246000fd5b634e487b7160e01b600052604160045260246000fdfea164736f6c6343000807000a",
  "linkReferences": {},
  "deployedLinkReferences": {}
}