{
  "_format": "hh-sol-artifact-1",
  "contractName": "SpritzPayV3",
  "sourceName": "contracts/SpritzPayV3.sol",
  "abi": [
    {
      "inputs": [],
      "name": "InvalidSourceToken",
      "type": "error"
    },
    {
      "inputs": [
        {
          "internalType": "address",
          "name": "token",
          "type": "address"
        }
      ],
      "name": "NonAcceptedToken",
      "type": "error"
    },
    {
      "inputs": [],
      "name": "SetZeroAddress",
      "type": "error"
    },
    {
      "inputs": [
        {
          "internalType": "address",
          "name": "caller",
          "type": "address"
        }
      ],
      "name": "UnauthorizedExecutor",
      "type": "error"
    },
    {
      "anonymous": false,
      "inputs": [
        {
          "indexed": false,
          "internalType": "uint8",
          "name": "version",
          "type": "uint8"
        }
      ],
      "name": "Initialized",
      "type": "event"
    },
    {
      "anonymous": false,
      "inputs": [
        {
          "indexed": false,
          "internalType": "address",
          "name": "account",
          "type": "address"
        }
      ],
      "name": "Paused",
      "type": "event"
    },
    {
      "anonymous": false,
      "inputs": [
        {
          "indexed": false,
          "internalType": "address",
          "name": "to",
          "type": "address"
        },
        {
          "indexed": true,
          "internalType": "address",
          "name": "from",
          "type": "address"
        },
        {
          "indexed": true,
          "internalType": "address",
          "name": "sourceToken",
          "type": "address"
        },
        {
          "indexed": false,
          "internalType": "uint256",
          "name": "sourceTokenAmount",
          "type": "uint256"
        },
        {
          "indexed": false,
          "internalType": "address",
          "name": "paymentToken",
          "type": "address"
        },
        {
          "indexed": false,
          "internalType": "uint256",
          "name": "paymentTokenAmount",
          "type": "uint256"
        },
        {
          "indexed": true,
          "internalType": "bytes32",
          "name": "paymentReference",
          "type": "bytes32"
        }
      ],
      "name": "Payment",
      "type": "event"
    },
    {
      "anonymous": false,
      "inputs": [
        {
          "indexed": false,
          "internalType": "address",
          "name": "recipient",
          "type": "address"
        },
        {
          "indexed": false,
          "internalType": "address",
          "name": "sender",
          "type": "address"
        }
      ],
      "name": "PaymentRecipientChanged",
      "type": "event"
    },
    {
      "anonymous": false,
      "inputs": [
        {
          "indexed": false,
          "internalType": "address",
          "name": "token",
          "type": "address"
        }
      ],
      "name": "PaymentTokenAdded",
      "type": "event"
    },
    {
      "anonymous": false,
      "inputs": [
        {
          "indexed": false,
          "internalType": "address",
          "name": "token",
          "type": "address"
        }
      ],
      "name": "PaymentTokenRemoved",
      "type": "event"
    },
    {
      "anonymous": false,
      "inputs": [
        {
          "indexed": true,
          "internalType": "bytes32",
          "name": "role",
          "type": "bytes32"
        },
        {
          "indexed": true,
          "internalType": "bytes32",
          "name": "previousAdminRole",
          "type": "bytes32"
        },
        {
          "indexed": true,
          "internalType": "bytes32",
          "name": "newAdminRole",
          "type": "bytes32"
        }
      ],
      "name": "RoleAdminChanged",
      "type": "event"
    },
    {
      "anonymous": false,
      "inputs": [
        {
          "indexed": true,
          "internalType": "bytes32",
          "name": "role",
          "type": "bytes32"
        },
        {
          "indexed": true,
          "internalType": "address",
          "name": "account",
          "type": "address"
        },
        {
          "indexed": true,
          "internalType": "address",
          "name": "sender",
          "type": "address"
        }
      ],
      "name": "RoleGranted",
      "type": "event"
    },
    {
      "anonymous": false,
      "inputs": [
        {
          "indexed": true,
          "internalType": "bytes32",
          "name": "role",
          "type": "bytes32"
        },
        {
          "indexed": true,
          "internalType": "address",
          "name": "account",
          "type": "address"
        },
        {
          "indexed": true,
          "internalType": "address",
          "name": "sender",
          "type": "address"
        }
      ],
      "name": "RoleRevoked",
      "type": "event"
    },
    {
      "anonymous": false,
      "inputs": [
        {
          "indexed": false,
          "internalType": "address",
          "name": "account",
          "type": "address"
        }
      ],
      "name": "Unpaused",
      "type": "event"
    },
    {
      "inputs": [],
      "name": "DEFAULT_ADMIN_ROLE",
      "outputs": [
        {
          "internalType": "bytes32",
          "name": "",
          "type": "bytes32"
        }
      ],
      "stateMutability": "view",
      "type": "function"
    },
    {
      "inputs": [],
      "name": "PAUSER_ROLE",
      "outputs": [
        {
          "internalType": "bytes32",
          "name": "",
          "type": "bytes32"
        }
      ],
      "stateMutability": "view",
      "type": "function"
    },
    {
      "inputs": [],
      "name": "PAYMENT_DELEGATE_ROLE",
      "outputs": [
        {
          "internalType": "bytes32",
          "name": "",
          "type": "bytes32"
        }
      ],
      "stateMutability": "view",
      "type": "function"
    },
    {
      "inputs": [],
      "name": "acceptedPaymentTokens",
      "outputs": [
        {
          "internalType": "address[]",
          "name": "",
          "type": "address[]"
        }
      ],
      "stateMutability": "view",
      "type": "function"
    },
    {
      "inputs": [
        {
          "internalType": "address",
          "name": "newToken",
          "type": "address"
        }
      ],
      "name": "addPaymentToken",
      "outputs": [],
      "stateMutability": "nonpayable",
      "type": "function"
    },
    {
      "inputs": [
        {
          "internalType": "address",
          "name": "from",
          "type": "address"
        },
        {
          "internalType": "address",
          "name": "sourceTokenAddress",
          "type": "address"
        },
        {
          "internalType": "uint256",
          "name": "sourceTokenAmountMax",
          "type": "uint256"
        },
        {
          "internalType": "uint256",
          "name": "paymentTokenAmount",
          "type": "uint256"
        },
        {
          "internalType": "bytes32",
          "name": "paymentReference",
          "type": "bytes32"
        },
        {
          "internalType": "uint256",
          "name": "deadline",
          "type": "uint256"
        },
        {
          "internalType": "bytes",
          "name": "path",
          "type": "bytes"
        }
      ],
      "name": "delegatedPayWithSwap",
      "outputs": [],
      "stateMutability": "nonpayable",
      "type": "function"
    },
    {
      "inputs": [
        {
          "internalType": "address",
          "name": "from",
          "type": "address"
        },
        {
          "internalType": "address",
          "name": "paymentTokenAddress",
          "type": "address"
        },
        {
          "internalType": "uint256",
          "name": "paymentTokenAmount",
          "type": "uint256"
        },
        {
          "internalType": "bytes32",
          "name": "paymentReference",
          "type": "bytes32"
        }
      ],
      "name": "delegatedPayWithToken",
      "outputs": [],
      "stateMutability": "nonpayable",
      "type": "function"
    },
    {
      "inputs": [
        {
          "internalType": "bytes32",
          "name": "role",
          "type": "bytes32"
        }
      ],
      "name": "getRoleAdmin",
      "outputs": [
        {
          "internalType": "bytes32",
          "name": "",
          "type": "bytes32"
        }
      ],
      "stateMutability": "view",
      "type": "function"
    },
    {
      "inputs": [
        {
          "internalType": "bytes32",
          "name": "role",
          "type": "bytes32"
        },
        {
          "internalType": "uint256",
          "name": "index",
          "type": "uint256"
        }
      ],
      "name": "getRoleMember",
      "outputs": [
        {
          "internalType": "address",
          "name": "",
          "type": "address"
        }
      ],
      "stateMutability": "view",
      "type": "function"
    },
    {
      "inputs": [
        {
          "internalType": "bytes32",
          "name": "role",
          "type": "bytes32"
        }
      ],
      "name": "getRoleMemberCount",
      "outputs": [
        {
          "internalType": "uint256",
          "name": "",
          "type": "uint256"
        }
      ],
      "stateMutability": "view",
      "type": "function"
    },
    {
      "inputs": [
        {
          "internalType": "bytes32",
          "name": "role",
          "type": "bytes32"
        },
        {
          "internalType": "address",
          "name": "account",
          "type": "address"
        }
      ],
      "name": "grantRole",
      "outputs": [],
      "stateMutability": "nonpayable",
      "type": "function"
    },
    {
      "inputs": [
        {
          "internalType": "bytes32",
          "name": "role",
          "type": "bytes32"
        },
        {
          "internalType": "address",
          "name": "account",
          "type": "address"
        }
      ],
      "name": "hasRole",
      "outputs": [
        {
          "internalType": "bool",
          "name": "",
          "type": "bool"
        }
      ],
      "stateMutability": "view",
      "type": "function"
    },
    {
      "inputs": [
        {
          "internalType": "address",
          "name": "_admin",
          "type": "address"
        },
        {
          "internalType": "address",
          "name": "_paymentRecipient",
          "type": "address"
        },
        {
          "internalType": "address",
          "name": "_swapTarget",
          "type": "address"
        },
        {
          "internalType": "address",
          "name": "_wrappedNative",
          "type": "address"
        },
        {
          "internalType": "address[]",
          "name": "_acceptedTokens",
          "type": "address[]"
        }
      ],
      "name": "initialize",
      "outputs": [],
      "stateMutability": "nonpayable",
      "type": "function"
    },
    {
      "inputs": [],
      "name": "pause",
      "outputs": [],
      "stateMutability": "nonpayable",
      "type": "function"
    },
    {
      "inputs": [],
      "name": "paused",
      "outputs": [
        {
          "internalType": "bool",
          "name": "",
          "type": "bool"
        }
      ],
      "stateMutability": "view",
      "type": "function"
    },
    {
      "inputs": [
        {
          "internalType": "uint256",
          "name": "sourceTokenAmountMax",
          "type": "uint256"
        },
        {
          "internalType": "uint256",
          "name": "paymentTokenAmount",
          "type": "uint256"
        },
        {
          "internalType": "bytes32",
          "name": "paymentReference",
          "type": "bytes32"
        },
        {
          "internalType": "uint256",
          "name": "deadline",
          "type": "uint256"
        },
        {
          "internalType": "bytes",
          "name": "path",
          "type": "bytes"
        }
      ],
      "name": "payWithNativeSwap",
      "outputs": [],
      "stateMutability": "payable",
      "type": "function"
    },
    {
      "inputs": [
        {
          "internalType": "address",
          "name": "sourceTokenAddress",
          "type": "address"
        },
        {
          "internalType": "uint256",
          "name": "sourceTokenAmountMax",
          "type": "uint256"
        },
        {
          "internalType": "uint256",
          "name": "paymentTokenAmount",
          "type": "uint256"
        },
        {
          "internalType": "bytes32",
          "name": "paymentReference",
          "type": "bytes32"
        },
        {
          "internalType": "uint256",
          "name": "deadline",
          "type": "uint256"
        },
        {
          "internalType": "bytes",
          "name": "path",
          "type": "bytes"
        }
      ],
      "name": "payWithSwap",
      "outputs": [],
      "stateMutability": "nonpayable",
      "type": "function"
    },
    {
      "inputs": [
        {
          "internalType": "address",
          "name": "paymentTokenAddress",
          "type": "address"
        },
        {
          "internalType": "uint256",
          "name": "paymentTokenAmount",
          "type": "uint256"
        },
        {
          "internalType": "bytes32",
          "name": "paymentReference",
          "type": "bytes32"
        }
      ],
      "name": "payWithToken",
      "outputs": [],
      "stateMutability": "nonpayable",
      "type": "function"
    },
    {
      "inputs": [],
      "name": "paymentRecipient",
      "outputs": [
        {
          "internalType": "address",
          "name": "",
          "type": "address"
        }
      ],
      "stateMutability": "view",
      "type": "function"
    },
    {
      "inputs": [
        {
          "internalType": "address",
          "name": "newToken",
          "type": "address"
        }
      ],
      "name": "removePaymentToken",
      "outputs": [],
      "stateMutability": "nonpayable",
      "type": "function"
    },
    {
      "inputs": [
        {
          "internalType": "bytes32",
          "name": "role",
          "type": "bytes32"
        },
        {
          "internalType": "address",
          "name": "account",
          "type": "address"
        }
      ],
      "name": "renounceRole",
      "outputs": [],
      "stateMutability": "nonpayable",
      "type": "function"
    },
    {
      "inputs": [
        {
          "internalType": "bytes32",
          "name": "role",
          "type": "bytes32"
        },
        {
          "internalType": "address",
          "name": "account",
          "type": "address"
        }
      ],
      "name": "revokeRole",
      "outputs": [],
      "stateMutability": "nonpayable",
      "type": "function"
    },
    {
      "inputs": [
        {
          "internalType": "address",
          "name": "newPaymentRecipient",
          "type": "address"
        }
      ],
      "name": "setPaymentRecipient",
      "outputs": [],
      "stateMutability": "nonpayable",
      "type": "function"
    },
    {
      "inputs": [
        {
          "internalType": "address",
          "name": "newSwapTarget",
          "type": "address"
        }
      ],
      "name": "setSwapModule",
      "outputs": [],
      "stateMutability": "nonpayable",
      "type": "function"
    },
    {
      "inputs": [
        {
          "internalType": "bytes4",
          "name": "interfaceId",
          "type": "bytes4"
        }
      ],
      "name": "supportsInterface",
      "outputs": [
        {
          "internalType": "bool",
          "name": "",
          "type": "bool"
        }
      ],
      "stateMutability": "view",
      "type": "function"
    },
    {
      "inputs": [],
      "name": "swapModule",
      "outputs": [
        {
          "internalType": "address",
          "name": "",
          "type": "address"
        }
      ],
      "stateMutability": "view",
      "type": "function"
    },
    {
      "inputs": [],
      "name": "swapTarget",
      "outputs": [
        {
          "internalType": "address",
          "name": "",
          "type": "address"
        }
      ],
      "stateMutability": "view",
      "type": "function"
    },
    {
      "inputs": [],
      "name": "unpause",
      "outputs": [],
      "stateMutability": "nonpayable",
      "type": "function"
    },
    {
      "inputs": [],
      "name": "v3SwapTarget",
      "outputs": [
        {
          "internalType": "address",
          "name": "",
          "type": "address"
        }
      ],
      "stateMutability": "view",
      "type": "function"
    }
  ],
  "bytecode": "0x608060405234801561001057600080fd5b5061261f806100206000396000f3fe6080604052600436106101c25760003560e01c80637e7f0cde116100f7578063a5eb94b011610095578063d71d963211610064578063d71d963214610533578063e63ab1e914610553578063f8453e7c14610587578063fa716b3f146105a757600080fd5b8063a5eb94b01461049d578063aa2aedc4146104d1578063ca15c873146104f3578063d547741f1461051357600080fd5b806391d14854116100d157806391d14854146104025780639bfa6aa114610448578063a217fddf14610468578063a51254211461047d57600080fd5b80637e7f0cde146103ae5780638456cb59146103cd5780639010d07c146103e257600080fd5b806336568abe11610164578063467ab01a1161013e578063467ab01a146103435780634a7dc8e0146103635780635c975abb1461038357806373d5d33c1461039b57600080fd5b806336568abe146102ee5780633f03d7ff1461030e5780633f4ba83a1461032e57600080fd5b8063248a9ca3116101a0578063248a9ca3146102515780632983c4b81461028f5780632b1eaf29146102af5780632f2ff15d146102ce57600080fd5b806301ffc9a7146101c757806310e05c59146101fc57806312f624981461022f575b600080fd5b3480156101d357600080fd5b506101e76101e236600461229a565b6105c6565b60405190151581526020015b60405180910390f35b34801561020857600080fd5b50610132546001600160a01b03165b6040516001600160a01b0390911681526020016101f3565b34801561023b57600080fd5b5061024f61024a366004611f7b565b61060a565b005b34801561025d57600080fd5b5061028161026c36600461223a565b60009081526097602052604090206001015490565b6040519081526020016101f3565b34801561029b57600080fd5b5061024f6102aa366004611f7b565b610622565b3480156102bb57600080fd5b5061012d546001600160a01b0316610217565b3480156102da57600080fd5b5061024f6102e9366004612253565b610636565b3480156102fa57600080fd5b5061024f610309366004612253565b610660565b34801561031a57600080fd5b5061024f61032936600461219b565b6106ed565b34801561033a57600080fd5b5061024f61070e565b34801561034f57600080fd5b5061024f61035e3660046120d7565b610724565b34801561036f57600080fd5b5061024f61037e366004611f7b565b610771565b34801561038f57600080fd5b5060335460ff166101e7565b61024f6103a93660046122dd565b610785565b3480156103ba57600080fd5b5061012e546001600160a01b0316610217565b3480156103d957600080fd5b5061024f6109b0565b3480156103ee57600080fd5b506102176103fd366004612278565b6109e2565b34801561040e57600080fd5b506101e761041d366004612253565b60009182526097602090815260408084206001600160a01b0393909316845291905290205460ff1690565b34801561045457600080fd5b5061024f610463366004612091565b610a01565b34801561047457600080fd5b50610281600081565b34801561048957600080fd5b5061024f610498366004611f7b565b610a46565b3480156104a957600080fd5b506102817f45fbae69cdc6a13ea2c83026dab8ff285f702acdc48836818359b98636b4717481565b3480156104dd57600080fd5b506104e6610a5a565b6040516101f39190612410565b3480156104ff57600080fd5b5061028161050e36600461223a565b610a6c565b34801561051f57600080fd5b5061024f61052e366004612253565b610a83565b34801561053f57600080fd5b5061024f61054e366004612166565b610aa8565b34801561055f57600080fd5b506102817f65d7a28e3265b37a6474929f336521b332c1681b933f6cb9f3376673440d862a81565b34801561059357600080fd5b5061024f6105a2366004611fd2565b610abc565b3480156105b357600080fd5b50610134546001600160a01b0316610217565b60006001600160e01b031982167f5a05180f000000000000000000000000000000000000000000000000000000001480610604575061060482610bff565b92915050565b600061061581610c66565b61061e82610c70565b5050565b600061062d81610c66565b61061e82610cc7565b60008281526097602052604090206001015461065181610c66565b61065b8383610d56565b505050565b6001600160a01b03811633146106e35760405162461bcd60e51b815260206004820152602f60248201527f416363657373436f6e74726f6c3a2063616e206f6e6c792072656e6f756e636560448201527f20726f6c657320666f722073656c66000000000000000000000000000000000060648201526084015b60405180910390fd5b61061e8282610d78565b6106f5610d9a565b6107053388888888888888610def565b50505050505050565b600061071981610c66565b61072161107d565b50565b61072c610d9a565b7f45fbae69cdc6a13ea2c83026dab8ff285f702acdc48836818359b98636b4717461075681610c66565b6107668989898989898989610def565b505050505050505050565b600061077c81610c66565b61061e826110cf565b61078d610d9a565b6101345460405163cde99e6360e01b815260009182916001600160a01b039091169063cde99e63906107c5908790879060040161245d565b6040805180830381600087803b1580156107de57600080fd5b505af11580156107f2573d6000803e3d6000fd5b505050506040513d601f19601f820116820180604052508101906108169190611f98565b9150915061082381611115565b61084b5760405163785fb0e760e11b81526001600160a01b03821660048201526024016106da565b610134546040805160c08101825261012d546001600160a01b039081168252336020808401919091528284018d9052606083018c9052608083018a90528351601f89018290048202810182019094528784526000949190911692632f2a1271928d92909160a08301918b908b908190840183828082843760009201919091525050509152506040516001600160e01b031960e085901b1681526108f1919060040161249f565b6020604051808303818588803b15801561090a57600080fd5b505af115801561091e573d6000803e3d6000fd5b50505050506040513d601f19601f8201168201806040525081019061094391906122c4565b61012d54604080516001600160a01b0392831681526020810184905285831681830152606081018c9052905192935089929186169133917f2415a5b602fd0082bd30dae862c30bbf8abbfcf39db48726b2d8ef555ee1abde919081900360800190a4505050505050505050565b7f65d7a28e3265b37a6474929f336521b332c1681b933f6cb9f3376673440d862a6109da81610c66565b610721611123565b600082815260c9602052604081206109fa9083611160565b9392505050565b610a09610d9a565b7f45fbae69cdc6a13ea2c83026dab8ff285f702acdc48836818359b98636b47174610a3381610c66565b610a3f8585858561116c565b5050505050565b6000610a5181610c66565b61061e8261121c565b6060610a67610130611262565b905090565b600081815260c9602052604081206106049061126f565b600082815260976020526040902060010154610a9e81610c66565b61065b8383610d78565b610ab0610d9a565b61065b3384848461116c565b600054610100900460ff1615808015610adc5750600054600160ff909116105b80610af65750303b158015610af6575060005460ff166001145b610b685760405162461bcd60e51b815260206004820152602e60248201527f496e697469616c697a61626c653a20636f6e747261637420697320616c72656160448201527f647920696e697469616c697a656400000000000000000000000000000000000060648201526084016106da565b6000805460ff191660011790558015610b8b576000805461ff0019166101001790555b610b99878787878787611279565b610ba16113a0565b610ba9611413565b610bb161147e565b8015610705576000805461ff0019169055604051600181527f7f26b83ff96e1f2b6a682f133852f6798a09c465da95921460cefb38474024989060200160405180910390a150505050505050565b60006001600160e01b031982167f7965db0b00000000000000000000000000000000000000000000000000000000148061060457507f01ffc9a7000000000000000000000000000000000000000000000000000000006001600160e01b0319831614610604565b61072181336114f1565b6001600160a01b038116610c9757604051631508131960e01b815260040160405180910390fd5b610134805473ffffffffffffffffffffffffffffffffffffffff19166001600160a01b0392909216919091179055565b6001600160a01b038116610cee57604051631508131960e01b815260040160405180910390fd5b61012d805473ffffffffffffffffffffffffffffffffffffffff19166001600160a01b038316908117909155604080519182523360208301527ff2aee2de2705c86bdfda6c3ddaddc83ce3b729f850c62f38aa6c9fc93158a5d491015b60405180910390a150565b610d608282611571565b600082815260c96020526040902061065b9082611613565b610d828282611628565b600082815260c96020526040902061065b90826116ab565b60335460ff1615610ded5760405162461bcd60e51b815260206004820152601060248201527f5061757361626c653a207061757365640000000000000000000000000000000060448201526064016106da565b565b6101345460405163cde99e6360e01b815260009182916001600160a01b039091169063cde99e6390610e27908790879060040161245d565b6040805180830381600087803b158015610e4057600080fd5b505af1158015610e54573d6000803e3d6000fd5b505050506040513d601f19601f82011682018060405250810190610e789190611f98565b91509150816001600160a01b0316896001600160a01b031614610ec7576040517f2889ee7500000000000000000000000000000000000000000000000000000000815260040160405180910390fd5b610ed081611115565b610ef85760405163785fb0e760e11b81526001600160a01b03821660048201526024016106da565b61013454610f15906001600160a01b03848116918d91168b6116c0565b610134546040805160c08101825261012d546001600160a01b0390811682528d81166020808401919091528284018d9052606083018c9052608083018a90528351601f8901829004820281018201909452878452600094919091169263cf0e8160929160a0830191908a908a908190840183828082843760009201919091525050509152506040516001600160e01b031960e084901b168152610fbb919060040161249f565b602060405180830381600087803b158015610fd557600080fd5b505af1158015610fe9573d6000803e3d6000fd5b505050506040513d601f19601f8201168201806040525081019061100d91906122c4565b61012d54604080516001600160a01b0392831681526020810184905285831681830152606081018c905290519293508992868316928f16917f2415a5b602fd0082bd30dae862c30bbf8abbfcf39db48726b2d8ef555ee1abde919081900360800190a45050505050505050505050565b61108561174e565b6033805460ff191690557f5db9ee0a495bf2e6ff9c91a7834c1ba4fdd244a5e8aa4e537bd38aeae4b073aa335b6040516001600160a01b03909116815260200160405180910390a1565b6110db61013082611613565b506040516001600160a01b03821681527fa317c10673baf4f03b3c1041bd5ddbb537d0333a86fec3607c75f9dbb630f48f90602001610d4b565b6000610604610130836117a0565b61112b610d9a565b6033805460ff191660011790557f62e78cea01bee320cd4e420270b5ea74000d11b0c9f74754ebdbfc544b05a2586110b23390565b60006109fa83836117c2565b82611179610130826117a0565b6111a15760405163785fb0e760e11b81526001600160a01b03821660048201526024016106da565b61012d54604080516001600160a01b039283168152602081018690528683169181018290526060810186905284928816907f2415a5b602fd0082bd30dae862c30bbf8abbfcf39db48726b2d8ef555ee1abde9060800160405180910390a461012d54610a3f906001600160a01b0386811691889116866116c0565b611228610130826116ab565b506040516001600160a01b03821681527f85a3e72f8dd6db3794f93109c3c5f5b79d6112f6979431c45f98b26134b42af290602001610d4b565b606060006109fa836117ec565b6000610604825490565b600054610100900460ff166112e45760405162461bcd60e51b815260206004820152602b60248201527f496e697469616c697a61626c653a20636f6e7472616374206973206e6f74206960448201526a6e697469616c697a696e6760a81b60648201526084016106da565b6112ef600087611848565b6113197f65d7a28e3265b37a6474929f336521b332c1681b933f6cb9f3376673440d862a87611848565b61132285610cc7565b61012e805473ffffffffffffffffffffffffffffffffffffffff19166001600160a01b03861617905561135483611852565b60005b818110156107055761138e838383818110611374576113746125d1565b90506020020160208101906113899190611f7b565b6110cf565b806113988161258a565b915050611357565b600054610100900460ff1661140b5760405162461bcd60e51b815260206004820152602b60248201527f496e697469616c697a61626c653a20636f6e7472616374206973206e6f74206960448201526a6e697469616c697a696e6760a81b60648201526084016106da565b610ded6118a9565b600054610100900460ff16610ded5760405162461bcd60e51b815260206004820152602b60248201527f496e697469616c697a61626c653a20636f6e7472616374206973206e6f74206960448201526a6e697469616c697a696e6760a81b60648201526084016106da565b600054610100900460ff166114e95760405162461bcd60e51b815260206004820152602b60248201527f496e697469616c697a61626c653a20636f6e7472616374206973206e6f74206960448201526a6e697469616c697a696e6760a81b60648201526084016106da565b610ded611920565b60008281526097602090815260408083206001600160a01b038516845290915290205460ff1661061e5761152f816001600160a01b03166014611992565b61153a836020611992565b60405160200161154b92919061238f565b60408051601f198184030181529082905262461bcd60e51b82526106da9160040161248c565b60008281526097602090815260408083206001600160a01b038516845290915290205460ff1661061e5760008281526097602090815260408083206001600160a01b03851684529091529020805460ff191660011790556115cf3390565b6001600160a01b0316816001600160a01b0316837f2f8788117e7eff1d82e926ec794901d17c78024a50270940304540a733656f0d60405160405180910390a45050565b60006109fa836001600160a01b038416611b73565b60008281526097602090815260408083206001600160a01b038516845290915290205460ff161561061e5760008281526097602090815260408083206001600160a01b0385168085529252808320805460ff1916905551339285917ff6391f5c32d9c69d2a47ea670b442974b53935d1edc7fd64eb21e047a839171b9190a45050565b60006109fa836001600160a01b038416611bc2565b604080516001600160a01b0385811660248301528416604482015260648082018490528251808303909101815260849091019091526020810180517bffffffffffffffffffffffffffffffffffffffffffffffffffffffff167f23b872dd00000000000000000000000000000000000000000000000000000000179052611748908590611cb5565b50505050565b60335460ff16610ded5760405162461bcd60e51b815260206004820152601460248201527f5061757361626c653a206e6f742070617573656400000000000000000000000060448201526064016106da565b6001600160a01b038116600090815260018301602052604081205415156109fa565b60008260000182815481106117d9576117d96125d1565b9060005260206000200154905092915050565b60608160000180548060200260200160405190810160405280929190818152602001828054801561183c57602002820191906000526020600020905b815481526020019060010190808311611828575b50505050509050919050565b61061e8282610d56565b6001600160a01b03811661187957604051631508131960e01b815260040160405180910390fd5b61012f805473ffffffffffffffffffffffffffffffffffffffff19166001600160a01b0392909216919091179055565b600054610100900460ff166119145760405162461bcd60e51b815260206004820152602b60248201527f496e697469616c697a61626c653a20636f6e7472616374206973206e6f74206960448201526a6e697469616c697a696e6760a81b60648201526084016106da565b6033805460ff19169055565b600054610100900460ff1661198b5760405162461bcd60e51b815260206004820152602b60248201527f496e697469616c697a61626c653a20636f6e7472616374206973206e6f74206960448201526a6e697469616c697a696e6760a81b60648201526084016106da565b600160fb55565b606060006119a1836002612511565b6119ac9060026124f9565b67ffffffffffffffff8111156119c4576119c46125e7565b6040519080825280601f01601f1916602001820160405280156119ee576020820181803683370190505b5090507f300000000000000000000000000000000000000000000000000000000000000081600081518110611a2557611a256125d1565b60200101906001600160f81b031916908160001a9053507f780000000000000000000000000000000000000000000000000000000000000081600181518110611a7057611a706125d1565b60200101906001600160f81b031916908160001a9053506000611a94846002612511565b611a9f9060016124f9565b90505b6001811115611b24577f303132333435363738396162636465660000000000000000000000000000000085600f1660108110611ae057611ae06125d1565b1a60f81b828281518110611af657611af66125d1565b60200101906001600160f81b031916908160001a90535060049490941c93611b1d81612573565b9050611aa2565b5083156109fa5760405162461bcd60e51b815260206004820181905260248201527f537472696e67733a20686578206c656e67746820696e73756666696369656e7460448201526064016106da565b6000818152600183016020526040812054611bba57508154600181810184556000848152602080822090930184905584548482528286019093526040902091909155610604565b506000610604565b60008181526001830160205260408120548015611cab576000611be6600183612530565b8554909150600090611bfa90600190612530565b9050818114611c5f576000866000018281548110611c1a57611c1a6125d1565b9060005260206000200154905080876000018481548110611c3d57611c3d6125d1565b6000918252602080832090910192909255918252600188019052604090208390555b8554869080611c7057611c706125bb565b600190038181906000526020600020016000905590558560010160008681526020019081526020016000206000905560019350505050610604565b6000915050610604565b6000611d0a826040518060400160405280602081526020017f5361666545524332303a206c6f772d6c6576656c2063616c6c206661696c6564815250856001600160a01b0316611d9a9092919063ffffffff16565b80519091501561065b5780806020019051810190611d289190612218565b61065b5760405162461bcd60e51b815260206004820152602a60248201527f5361666545524332303a204552433230206f7065726174696f6e20646964206e60448201527f6f7420737563636565640000000000000000000000000000000000000000000060648201526084016106da565b6060611da98484600085611db1565b949350505050565b606082471015611e295760405162461bcd60e51b815260206004820152602660248201527f416464726573733a20696e73756666696369656e742062616c616e636520666f60448201527f722063616c6c000000000000000000000000000000000000000000000000000060648201526084016106da565b6001600160a01b0385163b611e805760405162461bcd60e51b815260206004820152601d60248201527f416464726573733a2063616c6c20746f206e6f6e2d636f6e747261637400000060448201526064016106da565b600080866001600160a01b03168587604051611e9c9190612373565b60006040518083038185875af1925050503d8060008114611ed9576040519150601f19603f3d011682016040523d82523d6000602084013e611ede565b606091505b5091509150611eee828286611ef9565b979650505050505050565b60608315611f085750816109fa565b825115611f185782518084602001fd5b8160405162461bcd60e51b81526004016106da919061248c565b60008083601f840112611f4457600080fd5b50813567ffffffffffffffff811115611f5c57600080fd5b602083019150836020828501011115611f7457600080fd5b9250929050565b600060208284031215611f8d57600080fd5b81356109fa816125fd565b60008060408385031215611fab57600080fd5b8251611fb6816125fd565b6020840151909250611fc7816125fd565b809150509250929050565b60008060008060008060a08789031215611feb57600080fd5b8635611ff6816125fd565b95506020870135612006816125fd565b94506040870135612016816125fd565b93506060870135612026816125fd565b9250608087013567ffffffffffffffff8082111561204357600080fd5b818901915089601f83011261205757600080fd5b81358181111561206657600080fd5b8a60208260051b850101111561207b57600080fd5b6020830194508093505050509295509295509295565b600080600080608085870312156120a757600080fd5b84356120b2816125fd565b935060208501356120c2816125fd565b93969395505050506040820135916060013590565b60008060008060008060008060e0898b0312156120f357600080fd5b88356120fe816125fd565b9750602089013561210e816125fd565b965060408901359550606089013594506080890135935060a0890135925060c089013567ffffffffffffffff81111561214657600080fd5b6121528b828c01611f32565b999c989b5096995094979396929594505050565b60008060006060848603121561217b57600080fd5b8335612186816125fd565b95602085013595506040909401359392505050565b600080600080600080600060c0888a0312156121b657600080fd5b87356121c1816125fd565b96506020880135955060408801359450606088013593506080880135925060a088013567ffffffffffffffff8111156121f957600080fd5b6122058a828b01611f32565b989b979a50959850939692959293505050565b60006020828403121561222a57600080fd5b815180151581146109fa57600080fd5b60006020828403121561224c57600080fd5b5035919050565b6000806040838503121561226657600080fd5b823591506020830135611fc7816125fd565b6000806040838503121561228b57600080fd5b50508035926020909101359150565b6000602082840312156122ac57600080fd5b81356001600160e01b0319811681146109fa57600080fd5b6000602082840312156122d657600080fd5b5051919050565b60008060008060008060a087890312156122f657600080fd5b86359550602087013594506040870135935060608701359250608087013567ffffffffffffffff81111561232957600080fd5b61233589828a01611f32565b979a9699509497509295939492505050565b6000815180845261235f816020860160208601612547565b601f01601f19169290920160200192915050565b60008251612385818460208701612547565b9190910192915050565b7f416363657373436f6e74726f6c3a206163636f756e74200000000000000000008152600083516123c7816017850160208801612547565b7f206973206d697373696e6720726f6c65200000000000000000000000000000006017918401918201528351612404816028840160208801612547565b01602801949350505050565b6020808252825182820181905260009190848201906040850190845b818110156124515783516001600160a01b03168352928401929184019160010161242c565b50909695505050505050565b60208152816020820152818360408301376000818301604090810191909152601f909201601f19160101919050565b6020815260006109fa6020830184612347565b6020815260006001600160a01b03808451166020840152806020850151166040840152506040830151606083015260608301516080830152608083015160a083015260a083015160c080840152611da960e0840182612347565b6000821982111561250c5761250c6125a5565b500190565b600081600019048311821515161561252b5761252b6125a5565b500290565b600082821015612542576125426125a5565b500390565b60005b8381101561256257818101518382015260200161254a565b838111156117485750506000910152565b600081612582576125826125a5565b506000190190565b600060001982141561259e5761259e6125a5565b5060010190565b634e487b7160e01b600052601160045260246000fd5b634e487b7160e01b600052603160045260246000fd5b634e487b7160e01b600052603260045260246000fd5b634e487b7160e01b600052604160045260246000fd5b6001600160a01b038116811461072157600080fdfea164736f6c6343000807000a",
  "linkReferences": {},
  "deployedLinkReferences": {}
}