{
  "_format": "hh-sol-artifact-1",
  "contractName": "SpritzSmartPay",
  "sourceName": "contracts/SpritzSmartPay.sol",
  "abi": [
    {
      "inputs": [
        {
          "internalType": "address",
          "name": "admin",
          "type": "address"
        },
        {
          "internalType": "address",
          "name": "_spritzPay",
          "type": "address"
        },
        {
          "internalType": "address",
          "name": "paymentBot",
          "type": "address"
        }
      ],
      "stateMutability": "nonpayable",
      "type": "constructor"
    },
    {
      "inputs": [
        {
          "internalType": "bytes32",
          "name": "subscriptionId",
          "type": "bytes32"
        },
        {
          "internalType": "uint256",
          "name": "date",
          "type": "uint256"
        }
      ],
      "name": "InvalidPaymentCharge",
      "type": "error"
    },
    {
      "inputs": [],
      "name": "InvalidPaymentValue",
      "type": "error"
    },
    {
      "inputs": [],
      "name": "InvalidSignature",
      "type": "error"
    },
    {
      "inputs": [],
      "name": "InvalidSubscription",
      "type": "error"
    },
    {
      "inputs": [],
      "name": "InvalidSubscriptionType",
      "type": "error"
    },
    {
      "inputs": [
        {
          "internalType": "bytes32",
          "name": "subscriptionId",
          "type": "bytes32"
        }
      ],
      "name": "SubscriptionAlreadyExists",
      "type": "error"
    },
    {
      "inputs": [
        {
          "internalType": "bytes32",
          "name": "subscriptionId",
          "type": "bytes32"
        }
      ],
      "name": "SubscriptionNotFound",
      "type": "error"
    },
    {
      "anonymous": false,
      "inputs": [
        {
          "indexed": true,
          "internalType": "address",
          "name": "subscriber",
          "type": "address"
        },
        {
          "indexed": true,
          "internalType": "bytes32",
          "name": "subscriptionId",
          "type": "bytes32"
        }
      ],
      "name": "PaymentProcessed",
      "type": "event"
    },
    {
      "anonymous": false,
      "inputs": [
        {
          "indexed": true,
          "internalType": "bytes32",
          "name": "role",
          "type": "bytes32"
        },
        {
          "indexed": true,
          "internalType": "bytes32",
          "name": "previousAdminRole",
          "type": "bytes32"
        },
        {
          "indexed": true,
          "internalType": "bytes32",
          "name": "newAdminRole",
          "type": "bytes32"
        }
      ],
      "name": "RoleAdminChanged",
      "type": "event"
    },
    {
      "anonymous": false,
      "inputs": [
        {
          "indexed": true,
          "internalType": "bytes32",
          "name": "role",
          "type": "bytes32"
        },
        {
          "indexed": true,
          "internalType": "address",
          "name": "account",
          "type": "address"
        },
        {
          "indexed": true,
          "internalType": "address",
          "name": "sender",
          "type": "address"
        }
      ],
      "name": "RoleGranted",
      "type": "event"
    },
    {
      "anonymous": false,
      "inputs": [
        {
          "indexed": true,
          "internalType": "bytes32",
          "name": "role",
          "type": "bytes32"
        },
        {
          "indexed": true,
          "internalType": "address",
          "name": "account",
          "type": "address"
        },
        {
          "indexed": true,
          "internalType": "address",
          "name": "sender",
          "type": "address"
        }
      ],
      "name": "RoleRevoked",
      "type": "event"
    },
    {
      "anonymous": false,
      "inputs": [
        {
          "indexed": true,
          "internalType": "address",
          "name": "subscriber",
          "type": "address"
        },
        {
          "indexed": true,
          "internalType": "bytes32",
          "name": "subscriptionId",
          "type": "bytes32"
        },
        {
          "indexed": true,
          "internalType": "address",
          "name": "paymentToken",
          "type": "address"
        },
        {
          "indexed": false,
          "internalType": "uint256",
          "name": "paymentAmountMax",
          "type": "uint256"
        },
        {
          "indexed": false,
          "internalType": "uint256",
          "name": "startTime",
          "type": "uint256"
        },
        {
          "indexed": false,
          "internalType": "uint256",
          "name": "totalPayments",
          "type": "uint256"
        },
        {
          "indexed": false,
          "internalType": "bytes32",
          "name": "paymentReference",
          "type": "bytes32"
        },
        {
          "indexed": false,
          "internalType": "enum SpritzSmartPay.SubscriptionCadence",
          "name": "cadence",
          "type": "uint8"
        },
        {
          "indexed": false,
          "internalType": "enum SpritzSmartPay.SubscriptionType",
          "name": "subscriptionType",
          "type": "uint8"
        }
      ],
      "name": "SubscriptionCreated",
      "type": "event"
    },
    {
      "anonymous": false,
      "inputs": [
        {
          "indexed": true,
          "internalType": "bytes32",
          "name": "subscriptionId",
          "type": "bytes32"
        }
      ],
      "name": "SubscriptionDeleted",
      "type": "event"
    },
    {
      "inputs": [],
      "name": "DEFAULT_ADMIN_ROLE",
      "outputs": [
        {
          "internalType": "bytes32",
          "name": "",
          "type": "bytes32"
        }
      ],
      "stateMutability": "view",
      "type": "function"
    },
    {
      "inputs": [],
      "name": "PAYMENT_PROCESSOR_ROLE",
      "outputs": [
        {
          "internalType": "bytes32",
          "name": "",
          "type": "bytes32"
        }
      ],
      "stateMutability": "view",
      "type": "function"
    },
    {
      "inputs": [],
      "name": "SUBSCRIPTION_TYPEHASH",
      "outputs": [
        {
          "internalType": "bytes32",
          "name": "",
          "type": "bytes32"
        }
      ],
      "stateMutability": "view",
      "type": "function"
    },
    {
      "inputs": [
        {
          "internalType": "address",
          "name": "paymentToken",
          "type": "address"
        },
        {
          "internalType": "uint256",
          "name": "paymentAmountMax",
          "type": "uint256"
        },
        {
          "internalType": "uint256",
          "name": "startTime",
          "type": "uint256"
        },
        {
          "internalType": "uint256",
          "name": "totalPayments",
          "type": "uint256"
        },
        {
          "internalType": "bytes32",
          "name": "paymentReference",
          "type": "bytes32"
        },
        {
          "internalType": "enum SpritzSmartPay.SubscriptionCadence",
          "name": "cadence",
          "type": "uint8"
        },
        {
          "internalType": "enum SpritzSmartPay.SubscriptionType",
          "name": "subscriptionType",
          "type": "uint8"
        }
      ],
      "name": "createSubscription",
      "outputs": [],
      "stateMutability": "nonpayable",
      "type": "function"
    },
    {
      "inputs": [
        {
          "internalType": "address",
          "name": "_subscriber",
          "type": "address"
        },
        {
          "internalType": "address",
          "name": "paymentToken",
          "type": "address"
        },
        {
          "internalType": "uint256",
          "name": "paymentAmountMax",
          "type": "uint256"
        },
        {
          "internalType": "uint256",
          "name": "startTime",
          "type": "uint256"
        },
        {
          "internalType": "uint256",
          "name": "totalPayments",
          "type": "uint256"
        },
        {
          "internalType": "bytes32",
          "name": "paymentReference",
          "type": "bytes32"
        },
        {
          "internalType": "enum SpritzSmartPay.SubscriptionCadence",
          "name": "cadence",
          "type": "uint8"
        },
        {
          "internalType": "enum SpritzSmartPay.SubscriptionType",
          "name": "subscriptionType",
          "type": "uint8"
        },
        {
          "components": [
            {
              "internalType": "uint8",
              "name": "v",
              "type": "uint8"
            },
            {
              "internalType": "bytes32",
              "name": "r",
              "type": "bytes32"
            },
            {
              "internalType": "bytes32",
              "name": "s",
              "type": "bytes32"
            }
          ],
          "internalType": "struct SpritzSmartPay.Signature",
          "name": "signature",
          "type": "tuple"
        }
      ],
      "name": "createSubscriptionBySignature",
      "outputs": [],
      "stateMutability": "nonpayable",
      "type": "function"
    },
    {
      "inputs": [
        {
          "internalType": "bytes32",
          "name": "subscriptionId",
          "type": "bytes32"
        }
      ],
      "name": "deleteSubscription",
      "outputs": [],
      "stateMutability": "nonpayable",
      "type": "function"
    },
    {
      "inputs": [
        {
          "internalType": "bytes32",
          "name": "role",
          "type": "bytes32"
        }
      ],
      "name": "getRoleAdmin",
      "outputs": [
        {
          "internalType": "bytes32",
          "name": "",
          "type": "bytes32"
        }
      ],
      "stateMutability": "view",
      "type": "function"
    },
    {
      "inputs": [
        {
          "internalType": "bytes32",
          "name": "role",
          "type": "bytes32"
        },
        {
          "internalType": "uint256",
          "name": "index",
          "type": "uint256"
        }
      ],
      "name": "getRoleMember",
      "outputs": [
        {
          "internalType": "address",
          "name": "",
          "type": "address"
        }
      ],
      "stateMutability": "view",
      "type": "function"
    },
    {
      "inputs": [
        {
          "internalType": "bytes32",
          "name": "role",
          "type": "bytes32"
        }
      ],
      "name": "getRoleMemberCount",
      "outputs": [
        {
          "internalType": "uint256",
          "name": "",
          "type": "uint256"
        }
      ],
      "stateMutability": "view",
      "type": "function"
    },
    {
      "inputs": [
        {
          "internalType": "address",
          "name": "processor",
          "type": "address"
        }
      ],
      "name": "grantPaymentProcessor",
      "outputs": [],
      "stateMutability": "nonpayable",
      "type": "function"
    },
    {
      "inputs": [
        {
          "internalType": "bytes32",
          "name": "role",
          "type": "bytes32"
        },
        {
          "internalType": "address",
          "name": "account",
          "type": "address"
        }
      ],
      "name": "grantRole",
      "outputs": [],
      "stateMutability": "nonpayable",
      "type": "function"
    },
    {
      "inputs": [
        {
          "internalType": "bytes32",
          "name": "role",
          "type": "bytes32"
        },
        {
          "internalType": "address",
          "name": "account",
          "type": "address"
        }
      ],
      "name": "hasRole",
      "outputs": [
        {
          "internalType": "bool",
          "name": "",
          "type": "bool"
        }
      ],
      "stateMutability": "view",
      "type": "function"
    },
    {
      "inputs": [
        {
          "internalType": "address",
          "name": "subscriber",
          "type": "address"
        },
        {
          "internalType": "address",
          "name": "paymentToken",
          "type": "address"
        },
        {
          "internalType": "uint256",
          "name": "paymentAmount",
          "type": "uint256"
        },
        {
          "internalType": "uint256",
          "name": "startTime",
          "type": "uint256"
        },
        {
          "internalType": "uint256",
          "name": "totalPayments",
          "type": "uint256"
        },
        {
          "internalType": "bytes32",
          "name": "paymentReference",
          "type": "bytes32"
        },
        {
          "internalType": "enum SpritzSmartPay.SubscriptionCadence",
          "name": "cadence",
          "type": "uint8"
        },
        {
          "internalType": "enum SpritzSmartPay.SubscriptionType",
          "name": "subscriptionType",
          "type": "uint8"
        }
      ],
      "name": "hashSubscription",
      "outputs": [
        {
          "internalType": "bytes32",
          "name": "",
          "type": "bytes32"
        }
      ],
      "stateMutability": "view",
      "type": "function"
    },
    {
      "inputs": [
        {
          "internalType": "address",
          "name": "subscriber",
          "type": "address"
        },
        {
          "internalType": "address",
          "name": "paymentToken",
          "type": "address"
        },
        {
          "internalType": "uint256",
          "name": "paymentAmount",
          "type": "uint256"
        },
        {
          "internalType": "uint256",
          "name": "startTime",
          "type": "uint256"
        },
        {
          "internalType": "uint256",
          "name": "totalPayments",
          "type": "uint256"
        },
        {
          "internalType": "bytes32",
          "name": "paymentReference",
          "type": "bytes32"
        },
        {
          "internalType": "enum SpritzSmartPay.SubscriptionCadence",
          "name": "cadence",
          "type": "uint8"
        },
        {
          "internalType": "enum SpritzSmartPay.SubscriptionType",
          "name": "subscriptionType",
          "type": "uint8"
        },
        {
          "components": [
            {
              "internalType": "uint256",
              "name": "sourceTokenAmountMax",
              "type": "uint256"
            },
            {
              "internalType": "uint256",
              "name": "paymentTokenAmount",
              "type": "uint256"
            },
            {
              "internalType": "uint256",
              "name": "deadline",
              "type": "uint256"
            },
            {
              "internalType": "bytes",
              "name": "swapData",
              "type": "bytes"
            }
          ],
          "internalType": "struct SpritzSmartPay.SwapParams",
          "name": "swapParams",
          "type": "tuple"
        }
      ],
      "name": "processSwapPayment",
      "outputs": [],
      "stateMutability": "nonpayable",
      "type": "function"
    },
    {
      "inputs": [
        {
          "internalType": "address",
          "name": "subscriber",
          "type": "address"
        },
        {
          "internalType": "uint256",
          "name": "paymentAmount",
          "type": "uint256"
        },
        {
          "internalType": "address",
          "name": "paymentToken",
          "type": "address"
        },
        {
          "internalType": "uint256",
          "name": "paymentAmountMax",
          "type": "uint256"
        },
        {
          "internalType": "uint256",
          "name": "startTime",
          "type": "uint256"
        },
        {
          "internalType": "uint256",
          "name": "totalPayments",
          "type": "uint256"
        },
        {
          "internalType": "bytes32",
          "name": "paymentReference",
          "type": "bytes32"
        },
        {
          "internalType": "enum SpritzSmartPay.SubscriptionCadence",
          "name": "cadence",
          "type": "uint8"
        },
        {
          "internalType": "enum SpritzSmartPay.SubscriptionType",
          "name": "subscriptionType",
          "type": "uint8"
        }
      ],
      "name": "processTokenPayment",
      "outputs": [],
      "stateMutability": "nonpayable",
      "type": "function"
    },
    {
      "inputs": [
        {
          "internalType": "bytes32",
          "name": "role",
          "type": "bytes32"
        },
        {
          "internalType": "address",
          "name": "account",
          "type": "address"
        }
      ],
      "name": "renounceRole",
      "outputs": [],
      "stateMutability": "nonpayable",
      "type": "function"
    },
    {
      "inputs": [
        {
          "internalType": "address",
          "name": "processor",
          "type": "address"
        }
      ],
      "name": "revokePaymentProcessor",
      "outputs": [],
      "stateMutability": "nonpayable",
      "type": "function"
    },
    {
      "inputs": [
        {
          "internalType": "bytes32",
          "name": "role",
          "type": "bytes32"
        },
        {
          "internalType": "address",
          "name": "account",
          "type": "address"
        }
      ],
      "name": "revokeRole",
      "outputs": [],
      "stateMutability": "nonpayable",
      "type": "function"
    },
    {
      "inputs": [
        {
          "internalType": "bytes32",
          "name": "",
          "type": "bytes32"
        }
      ],
      "name": "subscriptions",
      "outputs": [
        {
          "internalType": "uint256",
          "name": "paymentCount",
          "type": "uint256"
        },
        {
          "internalType": "uint256",
          "name": "startTime",
          "type": "uint256"
        },
        {
          "internalType": "uint256",
          "name": "lastPaymentTimestamp",
          "type": "uint256"
        }
      ],
      "stateMutability": "view",
      "type": "function"
    },
    {
      "inputs": [
        {
          "internalType": "bytes4",
          "name": "interfaceId",
          "type": "bytes4"
        }
      ],
      "name": "supportsInterface",
      "outputs": [
        {
          "internalType": "bool",
          "name": "",
          "type": "bool"
        }
      ],
      "stateMutability": "view",
      "type": "function"
    },
    {
      "inputs": [],
      "name": "version",
      "outputs": [
        {
          "internalType": "string",
          "name": "",
          "type": "string"
        }
      ],
      "stateMutability": "pure",
      "type": "function"
    }
  ],
  "bytecode": "0x6101606040523480156200001257600080fd5b5060405162002940380380620029408339810160408190526200003591620002d4565b60408051808201909152600e81526d53707269747a536d61727450617960901b6020820152620000796040805180820190915260018152603160f81b602082015290565b815160209283012081519183019190912060e08290526101008190524660a0818152604080517f8b73c3c69bb8fe3d512ecc4cf759cc79239f7b179b0ffacaa9a75d522b39400f81880181905281830196909652606081810195909552608080820194909452308184018190528251808303909401845260c091820190925282519290960191909120909152811b9092526101205282901b6001600160601b031916610140526200012c60008462000161565b620001587fd7d8b7014b7ed36eb085c9e3e427b642d74cab75ecefda8a757042e63ec599198262000161565b5050506200031e565b620001788282620001a460201b62000bab1760201c565b60008281526001602090815260409091206200019f91839062000c4962000245821b17901c565b505050565b6000828152602081815260408083206001600160a01b038516845290915290205460ff1662000241576000828152602081815260408083206001600160a01b03851684529091529020805460ff19166001179055620002003390565b6001600160a01b0316816001600160a01b0316837f2f8788117e7eff1d82e926ec794901d17c78024a50270940304540a733656f0d60405160405180910390a45b5050565b60006200025c836001600160a01b03841662000265565b90505b92915050565b6000818152600183016020526040812054620002ae575081546001818101845560008481526020808220909301849055845484825282860190935260409020919091556200025f565b5060006200025f565b80516001600160a01b0381168114620002cf57600080fd5b919050565b600080600060608486031215620002ea57600080fd5b620002f584620002b7565b92506200030560208501620002b7565b91506200031560408501620002b7565b90509250925092565b60805160a05160c05160601c60e05161010051610120516101405160601c6125ba620003866000396000818161053701526107b30152600061113e0152600061118d01526000611168015260006110c1015260006110eb0152600061111501526125ba6000f3fe608060405234801561001057600080fd5b50600436106101775760003560e01c80639010d07c116100d8578063a217fddf1161008c578063ca15c87311610066578063ca15c873146103c2578063d547741f146103d5578063fae112b3146103e857600080fd5b8063a217fddf14610394578063a8ceacbe1461039c578063a90f0a0b146103af57600080fd5b806394259c6c116100bd57806394259c6c146103115780639a7f640d1461035a578063a031e2921461038157600080fd5b80639010d07c146102af57806391d14854146102da57600080fd5b80632f2ff15d1161012f57806354fd4d501161011457806354fd4d501461024a57806385c3d43f1461028957806389f7e63f1461029c57600080fd5b80632f2ff15d1461022457806336568abe1461023757600080fd5b80631cd00712116101605780631cd00712146101d95780631d1606be146101ee578063248a9ca31461020157600080fd5b806301ffc9a71461017c5780630b7fe72d146101a4575b600080fd5b61018f61018a366004611fcc565b6103fb565b60405190151581526020015b60405180910390f35b6101cb7fd7d8b7014b7ed36eb085c9e3e427b642d74cab75ecefda8a757042e63ec5991981565b60405190815260200161019b565b6101ec6101e7366004611e76565b61043f565b005b6101ec6101fc366004611f65565b6105d7565b6101cb61020f366004611f65565b60009081526020819052604090206001015490565b6101ec610232366004611f7e565b610683565b6101ec610245366004611f7e565b6106ad565b604080518082018252600181527f31000000000000000000000000000000000000000000000000000000000000006020820152905161019b91906121e5565b6101ec610297366004611dc8565b610739565b6101ec6102aa366004611c9a565b610817565b6102c26102bd366004611faa565b61084c565b6040516001600160a01b03909116815260200161019b565b61018f6102e8366004611f7e565b6000918252602082815260408084206001600160a01b0393909316845291905290205460ff1690565b61033f61031f366004611f65565b600260208190526000918252604090912080546001820154919092015483565b6040805193845260208401929092529082015260600161019b565b6101cb7f68851eea381a7b03bd660cf3a16b5b96991bfcf7a8bca9c7fbb96a86822b831b81565b6101ec61038f366004611c9a565b61086b565b6101cb600081565b6101ec6103aa366004611d30565b6108a0565b6101ec6103bd366004611efb565b610a4b565b6101cb6103d0366004611f65565b610b28565b6101ec6103e3366004611f7e565b610b3f565b6101cb6103f6366004611cb5565b610b64565b60006001600160e01b031982167f5a05180f000000000000000000000000000000000000000000000000000000001480610439575061043982610c5e565b92915050565b7fd7d8b7014b7ed36eb085c9e3e427b642d74cab75ecefda8a757042e63ec5991961046981610cc5565b600082600181111561047d5761047d612555565b1461049b57604051638dfa9e9560e01b815260040160405180910390fd5b60006104ad8b8a8a8a8a8a8a8a610cd2565b9050878a11156104e9576040517fc2bbfe3c00000000000000000000000000000000000000000000000000000000815260040160405180910390fd5b6040517f9bfa6aa10000000000000000000000000000000000000000000000000000000081526001600160a01b038c811660048301528a81166024830152604482018c9052606482018790527f00000000000000000000000000000000000000000000000000000000000000001690639bfa6aa1906084015b600060405180830381600087803b15801561057c57600080fd5b505af1158015610590573d6000803e3d6000fd5b50506040518392506001600160a01b038e1691507ffede1bfffe4b4708c47db227cb0825792eb1f0558b7edf8315b82675f966620b90600090a35050505050505050505050565b7fd7d8b7014b7ed36eb085c9e3e427b642d74cab75ecefda8a757042e63ec5991961060181610cc5565b600082815260026020526040902060010154610638576040516306c8caed60e11b8152600481018390526024015b60405180910390fd5b6000828152600260208190526040808320838155600181018490559091018290555183917f3c093978bc00bbe6287a008f77c1ed5111ed4981a0b302ab4e43740120c7ad0891a25050565b60008281526020819052604090206001015461069e81610cc5565b6106a88383610d8d565b505050565b6001600160a01b038116331461072b5760405162461bcd60e51b815260206004820152602f60248201527f416363657373436f6e74726f6c3a2063616e206f6e6c792072656e6f756e636560448201527f20726f6c657320666f722073656c660000000000000000000000000000000000606482015260840161062f565b6107358282610daf565b5050565b7fd7d8b7014b7ed36eb085c9e3e427b642d74cab75ecefda8a757042e63ec5991961076381610cc5565b600183600181111561077757610777612555565b1461079557604051638dfa9e9560e01b815260040160405180910390fd5b60006107a78b8b8b8b8b8b8b8b610cd2565b90506001600160a01b037f00000000000000000000000000000000000000000000000000000000000000001663467ab01a8c8c863560208801358b60408a01356107f460608c018c61224f565b6040518963ffffffff1660e01b81526004016105629897969594939291906120be565b600061082281610cc5565b6107357fd7d8b7014b7ed36eb085c9e3e427b642d74cab75ecefda8a757042e63ec5991983610daf565b60008281526001602052604081206108649083610dd1565b9392505050565b600061087681610cc5565b6107357fd7d8b7014b7ed36eb085c9e3e427b642d74cab75ecefda8a757042e63ec5991983610d8d565b8615806108ab575085155b156108c957604051630fb532db60e11b815260040160405180910390fd5b600061094761092b7f68851eea381a7b03bd660cf3a16b5b96991bfcf7a8bca9c7fbb96a86822b831b8b8b8b8b8b8b8b60405160200161091098979695949392919061218b565b60405160208183030381529060405280519060200120610ddd565b6109386020850185611ff6565b84602001358560400135610e46565b9050806001600160a01b03168a6001600160a01b031614610994576040517f8baa579f00000000000000000000000000000000000000000000000000000000815260040160405180910390fd5b60006109a6828b8b8b8b8b8b8b610b64565b6000818152600260205260409020600181015491925090156109de576040516354c1677160e01b81526004810183905260240161062f565b8881600101819055508a6001600160a01b031682846001600160a01b03167f84bcdef1fef5399eed7d5fab918a7d2fe721bca2d4cdf88278ff3422c0b98e148d8d8d8d8d8d604051610a3596959493929190612218565b60405180910390a4505050505050505050505050565b851580610a56575084155b15610a7457604051630fb532db60e11b815260040160405180910390fd5b6000610a863389898989898989610b64565b600081815260026020526040902060018101549192509015610abe576040516354c1677160e01b81526004810183905260240161062f565b868160010181905550886001600160a01b031682336001600160a01b03167f84bcdef1fef5399eed7d5fab918a7d2fe721bca2d4cdf88278ff3422c0b98e148b8b8b8b8b8b604051610b1596959493929190612218565b60405180910390a4505050505050505050565b600081815260016020526040812061043990610e70565b600082815260208190526040902060010154610b5a81610cc5565b6106a88383610daf565b6000888888888888888846604051602001610b8799989796959493929190612127565b60405160208183030381529060405280519060200120905098975050505050505050565b6000828152602081815260408083206001600160a01b038516845290915290205460ff16610735576000828152602081815260408083206001600160a01b03851684529091529020805460ff19166001179055610c053390565b6001600160a01b0316816001600160a01b0316837f2f8788117e7eff1d82e926ec794901d17c78024a50270940304540a733656f0d60405160405180910390a45050565b6000610864836001600160a01b038416610e7a565b60006001600160e01b031982167f7965db0b00000000000000000000000000000000000000000000000000000000148061043957507f01ffc9a7000000000000000000000000000000000000000000000000000000006001600160e01b0319831614610439565b610ccf8133610ec9565b50565b6000610ce48989898989898989610b64565b6000818152600260205260409020600181015491925090610d1b576040516306c8caed60e11b81526004810183905260240161062f565b6000610d31878360000154846001015488610f47565b905080610d73576040517f82f4b1560000000000000000000000000000000000000000000000000000000081526004810184905242602482015260440161062f565b504260028201558054600101905598975050505050505050565b610d978282610bab565b60008281526001602052604090206106a89082610c49565b610db98282610ff6565b60008281526001602052604090206106a89082611075565b6000610864838361108a565b6000610439610dea6110b4565b836040517f19010000000000000000000000000000000000000000000000000000000000006020820152602281018390526042810182905260009060620160405160208183030381529060405280519060200120905092915050565b6000806000610e57878787876111db565b91509150610e64816112c8565b5090505b949350505050565b6000610439825490565b6000818152600183016020526040812054610ec157508154600181810184556000848152602080822090930184905584548482528286019093526040902091909155610439565b506000610439565b6000828152602081815260408083206001600160a01b038516845290915290205460ff1661073557610f05816001600160a01b03166014611483565b610f10836020611483565b604051602001610f2192919061203d565b60408051601f198184030181529082905262461bcd60e51b825261062f916004016121e5565b600082421015610f5957506000610e68565b600085118015610f6857508484145b15610f7557506000610e68565b6000826002811115610f8957610f89612555565b1415610fa157610f9a428486611664565b9050610e68565b6001826002811115610fb557610fb5612555565b1415610fc657610f9a428486611708565b6002826002811115610fda57610fda612555565b1415610feb57610f9a428486611769565b506000949350505050565b6000828152602081815260408083206001600160a01b038516845290915290205460ff1615610735576000828152602081815260408083206001600160a01b0385168085529252808320805460ff1916905551339285917ff6391f5c32d9c69d2a47ea670b442974b53935d1edc7fd64eb21e047a839171b9190a45050565b6000610864836001600160a01b038416611790565b60008260000182815481106110a1576110a1612581565b9060005260206000200154905092915050565b6000306001600160a01b037f00000000000000000000000000000000000000000000000000000000000000001614801561110d57507f000000000000000000000000000000000000000000000000000000000000000046145b1561113757507f000000000000000000000000000000000000000000000000000000000000000090565b50604080517f00000000000000000000000000000000000000000000000000000000000000006020808301919091527f0000000000000000000000000000000000000000000000000000000000000000828401527f000000000000000000000000000000000000000000000000000000000000000060608301524660808301523060a0808401919091528351808403909101815260c0909201909252805191012090565b6000807f7fffffffffffffffffffffffffffffff5d576e7357a4501ddfe92f46681b20a083111561121257506000905060036112bf565b8460ff16601b1415801561122a57508460ff16601c14155b1561123b57506000905060046112bf565b6040805160008082526020820180845289905260ff881692820192909252606081018690526080810185905260019060a0016020604051602081039080840390855afa15801561128f573d6000803e3d6000fd5b5050604051601f1901519150506001600160a01b0381166112b8576000600192509250506112bf565b9150600090505b94509492505050565b60008160048111156112dc576112dc612555565b14156112e55750565b60018160048111156112f9576112f9612555565b14156113475760405162461bcd60e51b815260206004820152601860248201527f45434453413a20696e76616c6964207369676e61747572650000000000000000604482015260640161062f565b600281600481111561135b5761135b612555565b14156113a95760405162461bcd60e51b815260206004820152601f60248201527f45434453413a20696e76616c6964207369676e6174757265206c656e67746800604482015260640161062f565b60038160048111156113bd576113bd612555565b14156114165760405162461bcd60e51b815260206004820152602260248201527f45434453413a20696e76616c6964207369676e6174757265202773272076616c604482015261756560f01b606482015260840161062f565b600481600481111561142a5761142a612555565b1415610ccf5760405162461bcd60e51b815260206004820152602260248201527f45434453413a20696e76616c6964207369676e6174757265202776272076616c604482015261756560f01b606482015260840161062f565b606060006114928360026123e5565b61149d9060026122dc565b67ffffffffffffffff8111156114b5576114b5612597565b6040519080825280601f01601f1916602001820160405280156114df576020820181803683370190505b5090507f30000000000000000000000000000000000000000000000000000000000000008160008151811061151657611516612581565b60200101906001600160f81b031916908160001a9053507f78000000000000000000000000000000000000000000000000000000000000008160018151811061156157611561612581565b60200101906001600160f81b031916908160001a90535060006115858460026123e5565b6115909060016122dc565b90505b6001811115611615577f303132333435363738396162636465660000000000000000000000000000000085600f16601081106115d1576115d1612581565b1a60f81b8282815181106115e7576115e7612581565b60200101906001600160f81b031916908160001a90535060049490941c9361160e816124db565b9050611593565b5083156108645760405162461bcd60e51b815260206004820181905260248201527f537472696e67733a20686578206c656e67746820696e73756666696369656e74604482015260640161062f565b60008061167085611883565b9050600061167d85611883565b9050600061168b82846118f5565b9050848110156116a15760009350505050610864565b8151601d60ff8216106116dc5760006116c285604001518660200151611969565b9050836000015160ff168160ff1610156116da578091505b505b835160ff80831691161015806116fc57506116f88660016122dc565b8210155b98975050505050505050565b60008061171485611a03565b9050600061172185611a03565b9050600061172f8688611a37565b9050848110156117455760009350505050610864565b818310158061175e575061175a8560016122dc565b8110155b979650505050505050565b60008061177585611a5c565b9050600061178285611a5c565b9050600061172f8688611a7a565b600081815260018301602052604081205480156118795760006117b460018361246f565b85549091506000906117c89060019061246f565b905081811461182d5760008660000182815481106117e8576117e8612581565b906000526020600020015490508087600001848154811061180b5761180b612581565b6000918252602080832090910192909255918252600188019052604090208390555b855486908061183e5761183e61256b565b600190038181906000526020600020016000905590558560010160008681526020019081526020016000206000905560019350505050610439565b6000915050610439565b60408051608081018252600080825260208201819052918101829052606081018290529080806118be6118b9620151808761234a565b611a9e565b6040805160808101825260ff928316815291909216602082015263ffffffff90921690820152606081019590955250929392505050565b600081606001518360600151111561190c57600080fd5b826020015160ff168360400151600c6119259190612404565b836020015160ff168460400151600c61193e9190612404565b61194891906122f4565b6119529190612486565b61195c9190612486565b63ffffffff169392505050565b60008160ff166001148061198057508160ff166003145b8061198e57508160ff166005145b8061199c57508160ff166007145b806119aa57508160ff166008145b806119b857508160ff16600a145b806119c657508160ff16600c145b156119d35750601f610439565b8160ff166002146119e65750601e610439565b6119ef83611c12565b6119fa57601c610864565b50601d92915050565b600080611a13620151808461234a565b90506007611a228260036122dc565b611a2c91906124f2565b6108649060016122dc565b600080611a448484611a7a565b611a4f9060026122dc565b9050610e6860078261234a565b600080611a6c62015180846124f2565b9050610864610e108261234a565b600081831115611a8957600080fd5b82611a94818461246f565b610864919061234a565b60008080838162253d8c611ab58362010bd961229d565b611abf919061229d565b9050600062023ab1611ad283600461235e565b611adc919061231c565b90506004611aed8262023ab161235e565b611af890600361229d565b611b02919061231c565b611b0c9083612430565b9150600062164b09611b1f84600161229d565b611b2b90610fa061235e565b611b35919061231c565b90506004611b45826105b561235e565b611b4f919061231c565b611b599084612430565b611b6490601f61229d565b9250600061098f611b7685605061235e565b611b80919061231c565b905060006050611b928361098f61235e565b611b9c919061231c565b611ba69086612430565b9050611bb3600b8361231c565b9450611bc085600c61235e565b611bcb83600261229d565b611bd59190612430565b91508483611be4603187612430565b611bef90606461235e565b611bf9919061229d565b611c03919061229d565b9a919950975095505050505050565b6000611c1f600483612506565b63ffffffff16158015611c415750611c38606483612506565b63ffffffff1615155b806104395750611c5361019083612506565b63ffffffff161592915050565b80356001600160a01b0381168114611c7757600080fd5b919050565b803560038110611c7757600080fd5b803560028110611c7757600080fd5b600060208284031215611cac57600080fd5b61086482611c60565b600080600080600080600080610100898b031215611cd257600080fd5b611cdb89611c60565b9750611ce960208a01611c60565b965060408901359550606089013594506080890135935060a08901359250611d1360c08a01611c7c565b9150611d2160e08a01611c8b565b90509295985092959890939650565b6000806000806000806000806000898b03610160811215611d5057600080fd5b611d598b611c60565b9950611d6760208c01611c60565b985060408b0135975060608b0135965060808b0135955060a08b01359450611d9160c08c01611c7c565b9350611d9f60e08c01611c8b565b9250606060ff1982011215611db357600080fd5b506101008a0190509295985092959850929598565b60008060008060008060008060006101208a8c031215611de757600080fd5b611df08a611c60565b9850611dfe60208b01611c60565b975060408a0135965060608a0135955060808a0135945060a08a01359350611e2860c08b01611c7c565b9250611e3660e08b01611c8b565b91506101008a013567ffffffffffffffff811115611e5357600080fd5b8a016080818d031215611e6557600080fd5b809150509295985092959850929598565b60008060008060008060008060006101208a8c031215611e9557600080fd5b611e9e8a611c60565b985060208a01359750611eb360408b01611c60565b965060608a0135955060808a0135945060a08a0135935060c08a01359250611edd60e08b01611c7c565b9150611eec6101008b01611c8b565b90509295985092959850929598565b600080600080600080600060e0888a031215611f1657600080fd5b611f1f88611c60565b965060208801359550604088013594506060880135935060808801359250611f4960a08901611c7c565b9150611f5760c08901611c8b565b905092959891949750929550565b600060208284031215611f7757600080fd5b5035919050565b60008060408385031215611f9157600080fd5b82359150611fa160208401611c60565b90509250929050565b60008060408385031215611fbd57600080fd5b50508035926020909101359150565b600060208284031215611fde57600080fd5b81356001600160e01b03198116811461086457600080fd5b60006020828403121561200857600080fd5b813560ff8116811461086457600080fd5b6003811061202957612029612555565b9052565b6002811061202957612029612555565b7f416363657373436f6e74726f6c3a206163636f756e74200000000000000000008152600083516120758160178501602088016124ab565b7f206973206d697373696e6720726f6c652000000000000000000000000000000060179184019182015283516120b28160288401602088016124ab565b01602801949350505050565b60006001600160a01b03808b168352808a166020840152508760408301528660608301528560808301528460a083015260e060c08301528260e08301526101008385828501376000838501820152601f909301601f191690910190910198975050505050505050565b6001600160a01b038a811682528916602082015260408101889052606081018790526080810186905260a08101859052610120810161216960c0830186612019565b61217660e083018561202d565b826101008301529a9950505050505050505050565b6000610100820190508982526001600160a01b03891660208301528760408301528660608301528560808301528460a08301526121cb60c0830185612019565b6121d860e083018461202d565b9998505050505050505050565b60208152600082518060208401526122048160408501602087016124ab565b601f01601f19169190910160400192915050565b600060c0820190508782528660208301528560408301528460608301526122426080830185612019565b61175e60a083018461202d565b6000808335601e1984360301811261226657600080fd5b83018035915067ffffffffffffffff82111561228157600080fd5b60200191503681900382131561229657600080fd5b9250929050565b6000808212826001600160ff1b03038413811516156122be576122be612529565b82600160ff1b0384128116156122d6576122d6612529565b50500190565b600082198211156122ef576122ef612529565b500190565b600063ffffffff80831681851680830382111561231357612313612529565b01949350505050565b60008261232b5761232b61253f565b600160ff1b82146000198414161561234557612345612529565b500590565b6000826123595761235961253f565b500490565b60006001600160ff1b0360008413600084138583048511828216161561238657612386612529565b600160ff1b60008712868205881281841616156123a5576123a5612529565b600087129250878205871284841616156123c1576123c1612529565b878505871281841616156123d7576123d7612529565b505050929093029392505050565b60008160001904831182151516156123ff576123ff612529565b500290565b600063ffffffff8083168185168183048111821515161561242757612427612529565b02949350505050565b600080831283600160ff1b0183128115161561244e5761244e612529565b836001600160ff1b0301831381161561246957612469612529565b50500390565b60008282101561248157612481612529565b500390565b600063ffffffff838116908316818110156124a3576124a3612529565b039392505050565b60005b838110156124c65781810151838201526020016124ae565b838111156124d5576000848401525b50505050565b6000816124ea576124ea612529565b506000190190565b6000826125015761250161253f565b500690565b600063ffffffff8084168061251d5761251d61253f565b92169190910692915050565b634e487b7160e01b600052601160045260246000fd5b634e487b7160e01b600052601260045260246000fd5b634e487b7160e01b600052602160045260246000fd5b634e487b7160e01b600052603160045260246000fd5b634e487b7160e01b600052603260045260246000fd5b634e487b7160e01b600052604160045260246000fdfea164736f6c6343000807000a",
  "linkReferences": {},
  "deployedLinkReferences": {}
}