{
  "_format": "hh-sol-artifact-1",
  "contractName": "SpritzPayV3",
  "sourceName": "contracts/SpritzPayV3.sol",
  "abi": [
    {
      "inputs": [],
      "name": "InvalidSourceToken",
      "type": "error"
    },
    {
      "inputs": [
        {
          "internalType": "address",
          "name": "token",
          "type": "address"
        }
      ],
      "name": "NonAcceptedToken",
      "type": "error"
    },
    {
      "inputs": [],
      "name": "SetZeroAddress",
      "type": "error"
    },
    {
      "inputs": [
        {
          "internalType": "address",
          "name": "caller",
          "type": "address"
        }
      ],
      "name": "UnauthorizedExecutor",
      "type": "error"
    },
    {
      "anonymous": false,
      "inputs": [
        {
          "indexed": false,
          "internalType": "uint8",
          "name": "version",
          "type": "uint8"
        }
      ],
      "name": "Initialized",
      "type": "event"
    },
    {
      "anonymous": false,
      "inputs": [
        {
          "indexed": false,
          "internalType": "address",
          "name": "account",
          "type": "address"
        }
      ],
      "name": "Paused",
      "type": "event"
    },
    {
      "anonymous": false,
      "inputs": [
        {
          "indexed": false,
          "internalType": "address",
          "name": "to",
          "type": "address"
        },
        {
          "indexed": true,
          "internalType": "address",
          "name": "from",
          "type": "address"
        },
        {
          "indexed": true,
          "internalType": "address",
          "name": "sourceToken",
          "type": "address"
        },
        {
          "indexed": false,
          "internalType": "uint256",
          "name": "sourceTokenAmount",
          "type": "uint256"
        },
        {
          "indexed": false,
          "internalType": "address",
          "name": "paymentToken",
          "type": "address"
        },
        {
          "indexed": false,
          "internalType": "uint256",
          "name": "paymentTokenAmount",
          "type": "uint256"
        },
        {
          "indexed": true,
          "internalType": "bytes32",
          "name": "paymentReference",
          "type": "bytes32"
        }
      ],
      "name": "Payment",
      "type": "event"
    },
    {
      "anonymous": false,
      "inputs": [
        {
          "indexed": false,
          "internalType": "address",
          "name": "recipient",
          "type": "address"
        },
        {
          "indexed": false,
          "internalType": "address",
          "name": "sender",
          "type": "address"
        }
      ],
      "name": "PaymentRecipientChanged",
      "type": "event"
    },
    {
      "anonymous": false,
      "inputs": [
        {
          "indexed": false,
          "internalType": "address",
          "name": "token",
          "type": "address"
        }
      ],
      "name": "PaymentTokenAdded",
      "type": "event"
    },
    {
      "anonymous": false,
      "inputs": [
        {
          "indexed": false,
          "internalType": "address",
          "name": "token",
          "type": "address"
        }
      ],
      "name": "PaymentTokenRemoved",
      "type": "event"
    },
    {
      "anonymous": false,
      "inputs": [
        {
          "indexed": true,
          "internalType": "bytes32",
          "name": "role",
          "type": "bytes32"
        },
        {
          "indexed": true,
          "internalType": "bytes32",
          "name": "previousAdminRole",
          "type": "bytes32"
        },
        {
          "indexed": true,
          "internalType": "bytes32",
          "name": "newAdminRole",
          "type": "bytes32"
        }
      ],
      "name": "RoleAdminChanged",
      "type": "event"
    },
    {
      "anonymous": false,
      "inputs": [
        {
          "indexed": true,
          "internalType": "bytes32",
          "name": "role",
          "type": "bytes32"
        },
        {
          "indexed": true,
          "internalType": "address",
          "name": "account",
          "type": "address"
        },
        {
          "indexed": true,
          "internalType": "address",
          "name": "sender",
          "type": "address"
        }
      ],
      "name": "RoleGranted",
      "type": "event"
    },
    {
      "anonymous": false,
      "inputs": [
        {
          "indexed": true,
          "internalType": "bytes32",
          "name": "role",
          "type": "bytes32"
        },
        {
          "indexed": true,
          "internalType": "address",
          "name": "account",
          "type": "address"
        },
        {
          "indexed": true,
          "internalType": "address",
          "name": "sender",
          "type": "address"
        }
      ],
      "name": "RoleRevoked",
      "type": "event"
    },
    {
      "anonymous": false,
      "inputs": [
        {
          "indexed": false,
          "internalType": "address",
          "name": "account",
          "type": "address"
        }
      ],
      "name": "Unpaused",
      "type": "event"
    },
    {
      "inputs": [],
      "name": "DEFAULT_ADMIN_ROLE",
      "outputs": [
        {
          "internalType": "bytes32",
          "name": "",
          "type": "bytes32"
        }
      ],
      "stateMutability": "view",
      "type": "function"
    },
    {
      "inputs": [],
      "name": "PAUSER_ROLE",
      "outputs": [
        {
          "internalType": "bytes32",
          "name": "",
          "type": "bytes32"
        }
      ],
      "stateMutability": "view",
      "type": "function"
    },
    {
      "inputs": [],
      "name": "PAYMENT_DELEGATE_ROLE",
      "outputs": [
        {
          "internalType": "bytes32",
          "name": "",
          "type": "bytes32"
        }
      ],
      "stateMutability": "view",
      "type": "function"
    },
    {
      "inputs": [],
      "name": "acceptedPaymentTokens",
      "outputs": [
        {
          "internalType": "address[]",
          "name": "",
          "type": "address[]"
        }
      ],
      "stateMutability": "view",
      "type": "function"
    },
    {
      "inputs": [
        {
          "internalType": "address",
          "name": "newToken",
          "type": "address"
        }
      ],
      "name": "addPaymentToken",
      "outputs": [],
      "stateMutability": "nonpayable",
      "type": "function"
    },
    {
      "inputs": [
        {
          "internalType": "address",
          "name": "from",
          "type": "address"
        },
        {
          "internalType": "address",
          "name": "sourceTokenAddress",
          "type": "address"
        },
        {
          "internalType": "uint256",
          "name": "sourceTokenAmountMax",
          "type": "uint256"
        },
        {
          "internalType": "uint256",
          "name": "paymentTokenAmount",
          "type": "uint256"
        },
        {
          "internalType": "bytes32",
          "name": "paymentReference",
          "type": "bytes32"
        },
        {
          "internalType": "uint256",
          "name": "deadline",
          "type": "uint256"
        },
        {
          "internalType": "bytes",
          "name": "path",
          "type": "bytes"
        }
      ],
      "name": "delegatedPayWithSwap",
      "outputs": [],
      "stateMutability": "nonpayable",
      "type": "function"
    },
    {
      "inputs": [
        {
          "internalType": "address",
          "name": "from",
          "type": "address"
        },
        {
          "internalType": "address",
          "name": "paymentTokenAddress",
          "type": "address"
        },
        {
          "internalType": "uint256",
          "name": "paymentTokenAmount",
          "type": "uint256"
        },
        {
          "internalType": "bytes32",
          "name": "paymentReference",
          "type": "bytes32"
        }
      ],
      "name": "delegatedPayWithToken",
      "outputs": [],
      "stateMutability": "nonpayable",
      "type": "function"
    },
    {
      "inputs": [
        {
          "internalType": "bytes32",
          "name": "role",
          "type": "bytes32"
        }
      ],
      "name": "getRoleAdmin",
      "outputs": [
        {
          "internalType": "bytes32",
          "name": "",
          "type": "bytes32"
        }
      ],
      "stateMutability": "view",
      "type": "function"
    },
    {
      "inputs": [
        {
          "internalType": "bytes32",
          "name": "role",
          "type": "bytes32"
        },
        {
          "internalType": "uint256",
          "name": "index",
          "type": "uint256"
        }
      ],
      "name": "getRoleMember",
      "outputs": [
        {
          "internalType": "address",
          "name": "",
          "type": "address"
        }
      ],
      "stateMutability": "view",
      "type": "function"
    },
    {
      "inputs": [
        {
          "internalType": "bytes32",
          "name": "role",
          "type": "bytes32"
        }
      ],
      "name": "getRoleMemberCount",
      "outputs": [
        {
          "internalType": "uint256",
          "name": "",
          "type": "uint256"
        }
      ],
      "stateMutability": "view",
      "type": "function"
    },
    {
      "inputs": [
        {
          "internalType": "address",
          "name": "delegate",
          "type": "address"
        }
      ],
      "name": "grantPaymentDelegate",
      "outputs": [],
      "stateMutability": "nonpayable",
      "type": "function"
    },
    {
      "inputs": [
        {
          "internalType": "bytes32",
          "name": "role",
          "type": "bytes32"
        },
        {
          "internalType": "address",
          "name": "account",
          "type": "address"
        }
      ],
      "name": "grantRole",
      "outputs": [],
      "stateMutability": "nonpayable",
      "type": "function"
    },
    {
      "inputs": [
        {
          "internalType": "bytes32",
          "name": "role",
          "type": "bytes32"
        },
        {
          "internalType": "address",
          "name": "account",
          "type": "address"
        }
      ],
      "name": "hasRole",
      "outputs": [
        {
          "internalType": "bool",
          "name": "",
          "type": "bool"
        }
      ],
      "stateMutability": "view",
      "type": "function"
    },
    {
      "inputs": [
        {
          "internalType": "address",
          "name": "_admin",
          "type": "address"
        },
        {
          "internalType": "address",
          "name": "_paymentRecipient",
          "type": "address"
        },
        {
          "internalType": "address",
          "name": "_swapTarget",
          "type": "address"
        },
        {
          "internalType": "address",
          "name": "_wrappedNative",
          "type": "address"
        },
        {
          "internalType": "address[]",
          "name": "_acceptedTokens",
          "type": "address[]"
        }
      ],
      "name": "initialize",
      "outputs": [],
      "stateMutability": "nonpayable",
      "type": "function"
    },
    {
      "inputs": [],
      "name": "pause",
      "outputs": [],
      "stateMutability": "nonpayable",
      "type": "function"
    },
    {
      "inputs": [],
      "name": "paused",
      "outputs": [
        {
          "internalType": "bool",
          "name": "",
          "type": "bool"
        }
      ],
      "stateMutability": "view",
      "type": "function"
    },
    {
      "inputs": [
        {
          "internalType": "uint256",
          "name": "sourceTokenAmountMax",
          "type": "uint256"
        },
        {
          "internalType": "uint256",
          "name": "paymentTokenAmount",
          "type": "uint256"
        },
        {
          "internalType": "bytes32",
          "name": "paymentReference",
          "type": "bytes32"
        },
        {
          "internalType": "uint256",
          "name": "deadline",
          "type": "uint256"
        },
        {
          "internalType": "bytes",
          "name": "path",
          "type": "bytes"
        }
      ],
      "name": "payWithNativeSwap",
      "outputs": [],
      "stateMutability": "payable",
      "type": "function"
    },
    {
      "inputs": [
        {
          "internalType": "address",
          "name": "sourceTokenAddress",
          "type": "address"
        },
        {
          "internalType": "uint256",
          "name": "sourceTokenAmountMax",
          "type": "uint256"
        },
        {
          "internalType": "uint256",
          "name": "paymentTokenAmount",
          "type": "uint256"
        },
        {
          "internalType": "bytes32",
          "name": "paymentReference",
          "type": "bytes32"
        },
        {
          "internalType": "uint256",
          "name": "deadline",
          "type": "uint256"
        },
        {
          "internalType": "bytes",
          "name": "path",
          "type": "bytes"
        }
      ],
      "name": "payWithSwap",
      "outputs": [],
      "stateMutability": "nonpayable",
      "type": "function"
    },
    {
      "inputs": [
        {
          "internalType": "address",
          "name": "paymentTokenAddress",
          "type": "address"
        },
        {
          "internalType": "uint256",
          "name": "paymentTokenAmount",
          "type": "uint256"
        },
        {
          "internalType": "bytes32",
          "name": "paymentReference",
          "type": "bytes32"
        }
      ],
      "name": "payWithToken",
      "outputs": [],
      "stateMutability": "nonpayable",
      "type": "function"
    },
    {
      "inputs": [],
      "name": "paymentRecipient",
      "outputs": [
        {
          "internalType": "address",
          "name": "",
          "type": "address"
        }
      ],
      "stateMutability": "view",
      "type": "function"
    },
    {
      "inputs": [
        {
          "internalType": "address",
          "name": "newToken",
          "type": "address"
        }
      ],
      "name": "removePaymentToken",
      "outputs": [],
      "stateMutability": "nonpayable",
      "type": "function"
    },
    {
      "inputs": [
        {
          "internalType": "bytes32",
          "name": "role",
          "type": "bytes32"
        },
        {
          "internalType": "address",
          "name": "account",
          "type": "address"
        }
      ],
      "name": "renounceRole",
      "outputs": [],
      "stateMutability": "nonpayable",
      "type": "function"
    },
    {
      "inputs": [
        {
          "internalType": "address",
          "name": "delegate",
          "type": "address"
        }
      ],
      "name": "revokePaymentDelegate",
      "outputs": [],
      "stateMutability": "nonpayable",
      "type": "function"
    },
    {
      "inputs": [
        {
          "internalType": "bytes32",
          "name": "role",
          "type": "bytes32"
        },
        {
          "internalType": "address",
          "name": "account",
          "type": "address"
        }
      ],
      "name": "revokeRole",
      "outputs": [],
      "stateMutability": "nonpayable",
      "type": "function"
    },
    {
      "inputs": [
        {
          "internalType": "address",
          "name": "newPaymentRecipient",
          "type": "address"
        }
      ],
      "name": "setPaymentRecipient",
      "outputs": [],
      "stateMutability": "nonpayable",
      "type": "function"
    },
    {
      "inputs": [
        {
          "internalType": "address",
          "name": "newSwapTarget",
          "type": "address"
        }
      ],
      "name": "setSwapModule",
      "outputs": [],
      "stateMutability": "nonpayable",
      "type": "function"
    },
    {
      "inputs": [
        {
          "internalType": "bytes4",
          "name": "interfaceId",
          "type": "bytes4"
        }
      ],
      "name": "supportsInterface",
      "outputs": [
        {
          "internalType": "bool",
          "name": "",
          "type": "bool"
        }
      ],
      "stateMutability": "view",
      "type": "function"
    },
    {
      "inputs": [],
      "name": "swapModule",
      "outputs": [
        {
          "internalType": "address",
          "name": "",
          "type": "address"
        }
      ],
      "stateMutability": "view",
      "type": "function"
    },
    {
      "inputs": [],
      "name": "swapTarget",
      "outputs": [
        {
          "internalType": "address",
          "name": "",
          "type": "address"
        }
      ],
      "stateMutability": "view",
      "type": "function"
    },
    {
      "inputs": [],
      "name": "unpause",
      "outputs": [],
      "stateMutability": "nonpayable",
      "type": "function"
    },
    {
      "inputs": [],
      "name": "v3SwapTarget",
      "outputs": [
        {
          "internalType": "address",
          "name": "",
          "type": "address"
        }
      ],
      "stateMutability": "view",
      "type": "function"
    }
  ],
  "bytecode": "0x608060405234801561001057600080fd5b506126df806100206000396000f3fe6080604052600436106101d85760003560e01c80638456cb5911610102578063aca8766f11610095578063d71d963211610064578063d71d963214610589578063e63ab1e9146105a9578063f8453e7c146105dd578063fa716b3f146105fd57600080fd5b8063aca8766f14610509578063ca15c87314610529578063cec6993c14610549578063d547741f1461056957600080fd5b8063a217fddf116100d1578063a217fddf1461047e578063a512542114610493578063a5eb94b0146104b3578063aa2aedc4146104e757600080fd5b80638456cb59146103e35780639010d07c146103f857806391d14854146104185780639bfa6aa11461045e57600080fd5b806336568abe1161017a5780634a7dc8e0116101495780634a7dc8e0146103795780635c975abb1461039957806373d5d33c146103b15780637e7f0cde146103c457600080fd5b806336568abe146103045780633f03d7ff146103245780633f4ba83a14610344578063467ab01a1461035957600080fd5b8063248a9ca3116101b6578063248a9ca3146102675780632983c4b8146102a55780632b1eaf29146102c55780632f2ff15d146102e457600080fd5b806301ffc9a7146101dd57806310e05c591461021257806312f6249814610245575b600080fd5b3480156101e957600080fd5b506101fd6101f836600461235a565b61061c565b60405190151581526020015b60405180910390f35b34801561021e57600080fd5b50610132546001600160a01b03165b6040516001600160a01b039091168152602001610209565b34801561025157600080fd5b5061026561026036600461203b565b610660565b005b34801561027357600080fd5b506102976102823660046122fa565b60009081526097602052604090206001015490565b604051908152602001610209565b3480156102b157600080fd5b506102656102c036600461203b565b610678565b3480156102d157600080fd5b5061012d546001600160a01b031661022d565b3480156102f057600080fd5b506102656102ff366004612313565b61068c565b34801561031057600080fd5b5061026561031f366004612313565b6106b6565b34801561033057600080fd5b5061026561033f36600461225b565b610743565b34801561035057600080fd5b50610265610764565b34801561036557600080fd5b50610265610374366004612197565b61077a565b34801561038557600080fd5b5061026561039436600461203b565b6107c7565b3480156103a557600080fd5b5060335460ff166101fd565b6102656103bf36600461239d565b6107db565b3480156103d057600080fd5b5061012e546001600160a01b031661022d565b3480156103ef57600080fd5b50610265610a06565b34801561040457600080fd5b5061022d610413366004612338565b610a38565b34801561042457600080fd5b506101fd610433366004612313565b60009182526097602090815260408084206001600160a01b0393909316845291905290205460ff1690565b34801561046a57600080fd5b50610265610479366004612151565b610a57565b34801561048a57600080fd5b50610297600081565b34801561049f57600080fd5b506102656104ae36600461203b565b610a9c565b3480156104bf57600080fd5b506102977f45fbae69cdc6a13ea2c83026dab8ff285f702acdc48836818359b98636b4717481565b3480156104f357600080fd5b506104fc610ab0565b60405161020991906124d0565b34801561051557600080fd5b5061026561052436600461203b565b610ac2565b34801561053557600080fd5b506102976105443660046122fa565b610af7565b34801561055557600080fd5b5061026561056436600461203b565b610b0e565b34801561057557600080fd5b50610265610584366004612313565b610b43565b34801561059557600080fd5b506102656105a4366004612226565b610b68565b3480156105b557600080fd5b506102977f65d7a28e3265b37a6474929f336521b332c1681b933f6cb9f3376673440d862a81565b3480156105e957600080fd5b506102656105f8366004612092565b610b7c565b34801561060957600080fd5b50610134546001600160a01b031661022d565b60006001600160e01b031982167f5a05180f00000000000000000000000000000000000000000000000000000000148061065a575061065a82610cbf565b92915050565b600061066b81610d26565b61067482610d30565b5050565b600061068381610d26565b61067482610d87565b6000828152609760205260409020600101546106a781610d26565b6106b18383610e16565b505050565b6001600160a01b03811633146107395760405162461bcd60e51b815260206004820152602f60248201527f416363657373436f6e74726f6c3a2063616e206f6e6c792072656e6f756e636560448201527f20726f6c657320666f722073656c66000000000000000000000000000000000060648201526084015b60405180910390fd5b6106748282610e38565b61074b610e5a565b61075b3388888888888888610eaf565b50505050505050565b600061076f81610d26565b61077761113d565b50565b610782610e5a565b7f45fbae69cdc6a13ea2c83026dab8ff285f702acdc48836818359b98636b471746107ac81610d26565b6107bc8989898989898989610eaf565b505050505050505050565b60006107d281610d26565b6106748261118f565b6107e3610e5a565b6101345460405163cde99e6360e01b815260009182916001600160a01b039091169063cde99e639061081b908790879060040161251d565b6040805180830381600087803b15801561083457600080fd5b505af1158015610848573d6000803e3d6000fd5b505050506040513d601f19601f8201168201806040525081019061086c9190612058565b91509150610879816111d5565b6108a15760405163785fb0e760e11b81526001600160a01b0382166004820152602401610730565b610134546040805160c08101825261012d546001600160a01b039081168252336020808401919091528284018d9052606083018c9052608083018a90528351601f89018290048202810182019094528784526000949190911692632f2a1271928d92909160a08301918b908b908190840183828082843760009201919091525050509152506040516001600160e01b031960e085901b168152610947919060040161255f565b6020604051808303818588803b15801561096057600080fd5b505af1158015610974573d6000803e3d6000fd5b50505050506040513d601f19601f820116820180604052508101906109999190612384565b61012d54604080516001600160a01b0392831681526020810184905285831681830152606081018c9052905192935089929186169133917f2415a5b602fd0082bd30dae862c30bbf8abbfcf39db48726b2d8ef555ee1abde919081900360800190a4505050505050505050565b7f65d7a28e3265b37a6474929f336521b332c1681b933f6cb9f3376673440d862a610a3081610d26565b6107776111e3565b600082815260c960205260408120610a509083611220565b9392505050565b610a5f610e5a565b7f45fbae69cdc6a13ea2c83026dab8ff285f702acdc48836818359b98636b47174610a8981610d26565b610a958585858561122c565b5050505050565b6000610aa781610d26565b610674826112dc565b6060610abd610130611322565b905090565b6000610acd81610d26565b6106747f45fbae69cdc6a13ea2c83026dab8ff285f702acdc48836818359b98636b4717483610e38565b600081815260c96020526040812061065a9061132f565b6000610b1981610d26565b6106747f45fbae69cdc6a13ea2c83026dab8ff285f702acdc48836818359b98636b4717483610e16565b600082815260976020526040902060010154610b5e81610d26565b6106b18383610e38565b610b70610e5a565b6106b13384848461122c565b600054610100900460ff1615808015610b9c5750600054600160ff909116105b80610bb65750303b158015610bb6575060005460ff166001145b610c285760405162461bcd60e51b815260206004820152602e60248201527f496e697469616c697a61626c653a20636f6e747261637420697320616c72656160448201527f647920696e697469616c697a65640000000000000000000000000000000000006064820152608401610730565b6000805460ff191660011790558015610c4b576000805461ff0019166101001790555b610c59878787878787611339565b610c61611460565b610c696114d3565b610c7161153e565b801561075b576000805461ff0019169055604051600181527f7f26b83ff96e1f2b6a682f133852f6798a09c465da95921460cefb38474024989060200160405180910390a150505050505050565b60006001600160e01b031982167f7965db0b00000000000000000000000000000000000000000000000000000000148061065a57507f01ffc9a7000000000000000000000000000000000000000000000000000000006001600160e01b031983161461065a565b61077781336115b1565b6001600160a01b038116610d5757604051631508131960e01b815260040160405180910390fd5b610134805473ffffffffffffffffffffffffffffffffffffffff19166001600160a01b0392909216919091179055565b6001600160a01b038116610dae57604051631508131960e01b815260040160405180910390fd5b61012d805473ffffffffffffffffffffffffffffffffffffffff19166001600160a01b038316908117909155604080519182523360208301527ff2aee2de2705c86bdfda6c3ddaddc83ce3b729f850c62f38aa6c9fc93158a5d491015b60405180910390a150565b610e208282611631565b600082815260c9602052604090206106b190826116d3565b610e4282826116e8565b600082815260c9602052604090206106b1908261176b565b60335460ff1615610ead5760405162461bcd60e51b815260206004820152601060248201527f5061757361626c653a20706175736564000000000000000000000000000000006044820152606401610730565b565b6101345460405163cde99e6360e01b815260009182916001600160a01b039091169063cde99e6390610ee7908790879060040161251d565b6040805180830381600087803b158015610f0057600080fd5b505af1158015610f14573d6000803e3d6000fd5b505050506040513d601f19601f82011682018060405250810190610f389190612058565b91509150816001600160a01b0316896001600160a01b031614610f87576040517f2889ee7500000000000000000000000000000000000000000000000000000000815260040160405180910390fd5b610f90816111d5565b610fb85760405163785fb0e760e11b81526001600160a01b0382166004820152602401610730565b61013454610fd5906001600160a01b03848116918d91168b611780565b610134546040805160c08101825261012d546001600160a01b0390811682528d81166020808401919091528284018d9052606083018c9052608083018a90528351601f8901829004820281018201909452878452600094919091169263cf0e8160929160a0830191908a908a908190840183828082843760009201919091525050509152506040516001600160e01b031960e084901b16815261107b919060040161255f565b602060405180830381600087803b15801561109557600080fd5b505af11580156110a9573d6000803e3d6000fd5b505050506040513d601f19601f820116820180604052508101906110cd9190612384565b61012d54604080516001600160a01b0392831681526020810184905285831681830152606081018c905290519293508992868316928f16917f2415a5b602fd0082bd30dae862c30bbf8abbfcf39db48726b2d8ef555ee1abde919081900360800190a45050505050505050505050565b61114561180e565b6033805460ff191690557f5db9ee0a495bf2e6ff9c91a7834c1ba4fdd244a5e8aa4e537bd38aeae4b073aa335b6040516001600160a01b03909116815260200160405180910390a1565b61119b610130826116d3565b506040516001600160a01b03821681527fa317c10673baf4f03b3c1041bd5ddbb537d0333a86fec3607c75f9dbb630f48f90602001610e0b565b600061065a61013083611860565b6111eb610e5a565b6033805460ff191660011790557f62e78cea01bee320cd4e420270b5ea74000d11b0c9f74754ebdbfc544b05a2586111723390565b6000610a508383611882565b8261123961013082611860565b6112615760405163785fb0e760e11b81526001600160a01b0382166004820152602401610730565b61012d54604080516001600160a01b039283168152602081018690528683169181018290526060810186905284928816907f2415a5b602fd0082bd30dae862c30bbf8abbfcf39db48726b2d8ef555ee1abde9060800160405180910390a461012d54610a95906001600160a01b038681169188911686611780565b6112e86101308261176b565b506040516001600160a01b03821681527f85a3e72f8dd6db3794f93109c3c5f5b79d6112f6979431c45f98b26134b42af290602001610e0b565b60606000610a50836118ac565b600061065a825490565b600054610100900460ff166113a45760405162461bcd60e51b815260206004820152602b60248201527f496e697469616c697a61626c653a20636f6e7472616374206973206e6f74206960448201526a6e697469616c697a696e6760a81b6064820152608401610730565b6113af600087611908565b6113d97f65d7a28e3265b37a6474929f336521b332c1681b933f6cb9f3376673440d862a87611908565b6113e285610d87565b61012e805473ffffffffffffffffffffffffffffffffffffffff19166001600160a01b03861617905561141483611912565b60005b8181101561075b5761144e83838381811061143457611434612691565b9050602002016020810190611449919061203b565b61118f565b806114588161264a565b915050611417565b600054610100900460ff166114cb5760405162461bcd60e51b815260206004820152602b60248201527f496e697469616c697a61626c653a20636f6e7472616374206973206e6f74206960448201526a6e697469616c697a696e6760a81b6064820152608401610730565b610ead611969565b600054610100900460ff16610ead5760405162461bcd60e51b815260206004820152602b60248201527f496e697469616c697a61626c653a20636f6e7472616374206973206e6f74206960448201526a6e697469616c697a696e6760a81b6064820152608401610730565b600054610100900460ff166115a95760405162461bcd60e51b815260206004820152602b60248201527f496e697469616c697a61626c653a20636f6e7472616374206973206e6f74206960448201526a6e697469616c697a696e6760a81b6064820152608401610730565b610ead6119e0565b60008281526097602090815260408083206001600160a01b038516845290915290205460ff16610674576115ef816001600160a01b03166014611a52565b6115fa836020611a52565b60405160200161160b92919061244f565b60408051601f198184030181529082905262461bcd60e51b82526107309160040161254c565b60008281526097602090815260408083206001600160a01b038516845290915290205460ff166106745760008281526097602090815260408083206001600160a01b03851684529091529020805460ff1916600117905561168f3390565b6001600160a01b0316816001600160a01b0316837f2f8788117e7eff1d82e926ec794901d17c78024a50270940304540a733656f0d60405160405180910390a45050565b6000610a50836001600160a01b038416611c33565b60008281526097602090815260408083206001600160a01b038516845290915290205460ff16156106745760008281526097602090815260408083206001600160a01b0385168085529252808320805460ff1916905551339285917ff6391f5c32d9c69d2a47ea670b442974b53935d1edc7fd64eb21e047a839171b9190a45050565b6000610a50836001600160a01b038416611c82565b604080516001600160a01b0385811660248301528416604482015260648082018490528251808303909101815260849091019091526020810180517bffffffffffffffffffffffffffffffffffffffffffffffffffffffff167f23b872dd00000000000000000000000000000000000000000000000000000000179052611808908590611d75565b50505050565b60335460ff16610ead5760405162461bcd60e51b815260206004820152601460248201527f5061757361626c653a206e6f74207061757365640000000000000000000000006044820152606401610730565b6001600160a01b03811660009081526001830160205260408120541515610a50565b600082600001828154811061189957611899612691565b9060005260206000200154905092915050565b6060816000018054806020026020016040519081016040528092919081815260200182805480156118fc57602002820191906000526020600020905b8154815260200190600101908083116118e8575b50505050509050919050565b6106748282610e16565b6001600160a01b03811661193957604051631508131960e01b815260040160405180910390fd5b61012f805473ffffffffffffffffffffffffffffffffffffffff19166001600160a01b0392909216919091179055565b600054610100900460ff166119d45760405162461bcd60e51b815260206004820152602b60248201527f496e697469616c697a61626c653a20636f6e7472616374206973206e6f74206960448201526a6e697469616c697a696e6760a81b6064820152608401610730565b6033805460ff19169055565b600054610100900460ff16611a4b5760405162461bcd60e51b815260206004820152602b60248201527f496e697469616c697a61626c653a20636f6e7472616374206973206e6f74206960448201526a6e697469616c697a696e6760a81b6064820152608401610730565b600160fb55565b60606000611a618360026125d1565b611a6c9060026125b9565b67ffffffffffffffff811115611a8457611a846126a7565b6040519080825280601f01601f191660200182016040528015611aae576020820181803683370190505b5090507f300000000000000000000000000000000000000000000000000000000000000081600081518110611ae557611ae5612691565b60200101906001600160f81b031916908160001a9053507f780000000000000000000000000000000000000000000000000000000000000081600181518110611b3057611b30612691565b60200101906001600160f81b031916908160001a9053506000611b548460026125d1565b611b5f9060016125b9565b90505b6001811115611be4577f303132333435363738396162636465660000000000000000000000000000000085600f1660108110611ba057611ba0612691565b1a60f81b828281518110611bb657611bb6612691565b60200101906001600160f81b031916908160001a90535060049490941c93611bdd81612633565b9050611b62565b508315610a505760405162461bcd60e51b815260206004820181905260248201527f537472696e67733a20686578206c656e67746820696e73756666696369656e746044820152606401610730565b6000818152600183016020526040812054611c7a5750815460018181018455600084815260208082209093018490558454848252828601909352604090209190915561065a565b50600061065a565b60008181526001830160205260408120548015611d6b576000611ca66001836125f0565b8554909150600090611cba906001906125f0565b9050818114611d1f576000866000018281548110611cda57611cda612691565b9060005260206000200154905080876000018481548110611cfd57611cfd612691565b6000918252602080832090910192909255918252600188019052604090208390555b8554869080611d3057611d3061267b565b60019003818190600052602060002001600090559055856001016000868152602001908152602001600020600090556001935050505061065a565b600091505061065a565b6000611dca826040518060400160405280602081526020017f5361666545524332303a206c6f772d6c6576656c2063616c6c206661696c6564815250856001600160a01b0316611e5a9092919063ffffffff16565b8051909150156106b15780806020019051810190611de891906122d8565b6106b15760405162461bcd60e51b815260206004820152602a60248201527f5361666545524332303a204552433230206f7065726174696f6e20646964206e60448201527f6f742073756363656564000000000000000000000000000000000000000000006064820152608401610730565b6060611e698484600085611e71565b949350505050565b606082471015611ee95760405162461bcd60e51b815260206004820152602660248201527f416464726573733a20696e73756666696369656e742062616c616e636520666f60448201527f722063616c6c00000000000000000000000000000000000000000000000000006064820152608401610730565b6001600160a01b0385163b611f405760405162461bcd60e51b815260206004820152601d60248201527f416464726573733a2063616c6c20746f206e6f6e2d636f6e74726163740000006044820152606401610730565b600080866001600160a01b03168587604051611f5c9190612433565b60006040518083038185875af1925050503d8060008114611f99576040519150601f19603f3d011682016040523d82523d6000602084013e611f9e565b606091505b5091509150611fae828286611fb9565b979650505050505050565b60608315611fc8575081610a50565b825115611fd85782518084602001fd5b8160405162461bcd60e51b8152600401610730919061254c565b60008083601f84011261200457600080fd5b50813567ffffffffffffffff81111561201c57600080fd5b60208301915083602082850101111561203457600080fd5b9250929050565b60006020828403121561204d57600080fd5b8135610a50816126bd565b6000806040838503121561206b57600080fd5b8251612076816126bd565b6020840151909250612087816126bd565b809150509250929050565b60008060008060008060a087890312156120ab57600080fd5b86356120b6816126bd565b955060208701356120c6816126bd565b945060408701356120d6816126bd565b935060608701356120e6816126bd565b9250608087013567ffffffffffffffff8082111561210357600080fd5b818901915089601f83011261211757600080fd5b81358181111561212657600080fd5b8a60208260051b850101111561213b57600080fd5b6020830194508093505050509295509295509295565b6000806000806080858703121561216757600080fd5b8435612172816126bd565b93506020850135612182816126bd565b93969395505050506040820135916060013590565b60008060008060008060008060e0898b0312156121b357600080fd5b88356121be816126bd565b975060208901356121ce816126bd565b965060408901359550606089013594506080890135935060a0890135925060c089013567ffffffffffffffff81111561220657600080fd5b6122128b828c01611ff2565b999c989b5096995094979396929594505050565b60008060006060848603121561223b57600080fd5b8335612246816126bd565b95602085013595506040909401359392505050565b600080600080600080600060c0888a03121561227657600080fd5b8735612281816126bd565b96506020880135955060408801359450606088013593506080880135925060a088013567ffffffffffffffff8111156122b957600080fd5b6122c58a828b01611ff2565b989b979a50959850939692959293505050565b6000602082840312156122ea57600080fd5b81518015158114610a5057600080fd5b60006020828403121561230c57600080fd5b5035919050565b6000806040838503121561232657600080fd5b823591506020830135612087816126bd565b6000806040838503121561234b57600080fd5b50508035926020909101359150565b60006020828403121561236c57600080fd5b81356001600160e01b031981168114610a5057600080fd5b60006020828403121561239657600080fd5b5051919050565b60008060008060008060a087890312156123b657600080fd5b86359550602087013594506040870135935060608701359250608087013567ffffffffffffffff8111156123e957600080fd5b6123f589828a01611ff2565b979a9699509497509295939492505050565b6000815180845261241f816020860160208601612607565b601f01601f19169290920160200192915050565b60008251612445818460208701612607565b9190910192915050565b7f416363657373436f6e74726f6c3a206163636f756e7420000000000000000000815260008351612487816017850160208801612607565b7f206973206d697373696e6720726f6c652000000000000000000000000000000060179184019182015283516124c4816028840160208801612607565b01602801949350505050565b6020808252825182820181905260009190848201906040850190845b818110156125115783516001600160a01b0316835292840192918401916001016124ec565b50909695505050505050565b60208152816020820152818360408301376000818301604090810191909152601f909201601f19160101919050565b602081526000610a506020830184612407565b6020815260006001600160a01b03808451166020840152806020850151166040840152506040830151606083015260608301516080830152608083015160a083015260a083015160c080840152611e6960e0840182612407565b600082198211156125cc576125cc612665565b500190565b60008160001904831182151516156125eb576125eb612665565b500290565b60008282101561260257612602612665565b500390565b60005b8381101561262257818101518382015260200161260a565b838111156118085750506000910152565b60008161264257612642612665565b506000190190565b600060001982141561265e5761265e612665565b5060010190565b634e487b7160e01b600052601160045260246000fd5b634e487b7160e01b600052603160045260246000fd5b634e487b7160e01b600052603260045260246000fd5b634e487b7160e01b600052604160045260246000fd5b6001600160a01b038116811461077757600080fdfea164736f6c6343000807000a",
  "linkReferences": {},
  "deployedLinkReferences": {}
}