{
  "_format": "hh-sol-artifact-1",
  "contractName": "SpritzSmartPay",
  "sourceName": "contracts/SpritzSmartPay.sol",
  "abi": [
    {
      "inputs": [
        {
          "internalType": "bytes32",
          "name": "subscriptionId",
          "type": "bytes32"
        },
        {
          "internalType": "uint256",
          "name": "date",
          "type": "uint256"
        }
      ],
      "name": "InvalidPaymentCharge",
      "type": "error"
    },
    {
      "inputs": [],
      "name": "InvalidPaymentValue",
      "type": "error"
    },
    {
      "inputs": [],
      "name": "InvalidSignature",
      "type": "error"
    },
    {
      "inputs": [],
      "name": "InvalidSubscription",
      "type": "error"
    },
    {
      "inputs": [],
      "name": "InvalidSubscriptionType",
      "type": "error"
    },
    {
      "inputs": [
        {
          "internalType": "bytes32",
          "name": "subscriptionId",
          "type": "bytes32"
        }
      ],
      "name": "SubscriptionAlreadyExists",
      "type": "error"
    },
    {
      "inputs": [
        {
          "internalType": "bytes32",
          "name": "subscriptionId",
          "type": "bytes32"
        }
      ],
      "name": "SubscriptionNotFound",
      "type": "error"
    },
    {
      "anonymous": false,
      "inputs": [
        {
          "indexed": false,
          "internalType": "uint8",
          "name": "version",
          "type": "uint8"
        }
      ],
      "name": "Initialized",
      "type": "event"
    },
    {
      "anonymous": false,
      "inputs": [
        {
          "indexed": true,
          "internalType": "address",
          "name": "subscriber",
          "type": "address"
        },
        {
          "indexed": true,
          "internalType": "bytes32",
          "name": "subscriptionId",
          "type": "bytes32"
        }
      ],
      "name": "PaymentProcessed",
      "type": "event"
    },
    {
      "anonymous": false,
      "inputs": [
        {
          "indexed": true,
          "internalType": "bytes32",
          "name": "role",
          "type": "bytes32"
        },
        {
          "indexed": true,
          "internalType": "bytes32",
          "name": "previousAdminRole",
          "type": "bytes32"
        },
        {
          "indexed": true,
          "internalType": "bytes32",
          "name": "newAdminRole",
          "type": "bytes32"
        }
      ],
      "name": "RoleAdminChanged",
      "type": "event"
    },
    {
      "anonymous": false,
      "inputs": [
        {
          "indexed": true,
          "internalType": "bytes32",
          "name": "role",
          "type": "bytes32"
        },
        {
          "indexed": true,
          "internalType": "address",
          "name": "account",
          "type": "address"
        },
        {
          "indexed": true,
          "internalType": "address",
          "name": "sender",
          "type": "address"
        }
      ],
      "name": "RoleGranted",
      "type": "event"
    },
    {
      "anonymous": false,
      "inputs": [
        {
          "indexed": true,
          "internalType": "bytes32",
          "name": "role",
          "type": "bytes32"
        },
        {
          "indexed": true,
          "internalType": "address",
          "name": "account",
          "type": "address"
        },
        {
          "indexed": true,
          "internalType": "address",
          "name": "sender",
          "type": "address"
        }
      ],
      "name": "RoleRevoked",
      "type": "event"
    },
    {
      "anonymous": false,
      "inputs": [
        {
          "indexed": true,
          "internalType": "address",
          "name": "subscriber",
          "type": "address"
        },
        {
          "indexed": true,
          "internalType": "bytes32",
          "name": "subscriptionId",
          "type": "bytes32"
        },
        {
          "indexed": true,
          "internalType": "address",
          "name": "paymentToken",
          "type": "address"
        },
        {
          "indexed": false,
          "internalType": "uint256",
          "name": "paymentAmountMax",
          "type": "uint256"
        },
        {
          "indexed": false,
          "internalType": "uint256",
          "name": "startTime",
          "type": "uint256"
        },
        {
          "indexed": false,
          "internalType": "uint256",
          "name": "totalPayments",
          "type": "uint256"
        },
        {
          "indexed": false,
          "internalType": "bytes32",
          "name": "paymentReference",
          "type": "bytes32"
        },
        {
          "indexed": false,
          "internalType": "enum SpritzSmartPay.SubscriptionCadence",
          "name": "cadence",
          "type": "uint8"
        },
        {
          "indexed": false,
          "internalType": "enum SpritzSmartPay.SubscriptionType",
          "name": "subscriptionType",
          "type": "uint8"
        }
      ],
      "name": "SubscriptionCreated",
      "type": "event"
    },
    {
      "anonymous": false,
      "inputs": [
        {
          "indexed": true,
          "internalType": "bytes32",
          "name": "subscriptionId",
          "type": "bytes32"
        }
      ],
      "name": "SubscriptionDeleted",
      "type": "event"
    },
    {
      "inputs": [],
      "name": "DEFAULT_ADMIN_ROLE",
      "outputs": [
        {
          "internalType": "bytes32",
          "name": "",
          "type": "bytes32"
        }
      ],
      "stateMutability": "view",
      "type": "function"
    },
    {
      "inputs": [],
      "name": "PAYMENT_PROCESSOR_ROLE",
      "outputs": [
        {
          "internalType": "bytes32",
          "name": "",
          "type": "bytes32"
        }
      ],
      "stateMutability": "view",
      "type": "function"
    },
    {
      "inputs": [],
      "name": "SUBSCRIPTION_TYPEHASH",
      "outputs": [
        {
          "internalType": "bytes32",
          "name": "",
          "type": "bytes32"
        }
      ],
      "stateMutability": "view",
      "type": "function"
    },
    {
      "inputs": [
        {
          "internalType": "address",
          "name": "paymentToken",
          "type": "address"
        },
        {
          "internalType": "uint256",
          "name": "paymentAmountMax",
          "type": "uint256"
        },
        {
          "internalType": "uint256",
          "name": "startTime",
          "type": "uint256"
        },
        {
          "internalType": "uint256",
          "name": "totalPayments",
          "type": "uint256"
        },
        {
          "internalType": "bytes32",
          "name": "paymentReference",
          "type": "bytes32"
        },
        {
          "internalType": "enum SpritzSmartPay.SubscriptionCadence",
          "name": "cadence",
          "type": "uint8"
        },
        {
          "internalType": "enum SpritzSmartPay.SubscriptionType",
          "name": "subscriptionType",
          "type": "uint8"
        }
      ],
      "name": "createSubscription",
      "outputs": [],
      "stateMutability": "nonpayable",
      "type": "function"
    },
    {
      "inputs": [
        {
          "internalType": "address",
          "name": "_subscriber",
          "type": "address"
        },
        {
          "internalType": "address",
          "name": "paymentToken",
          "type": "address"
        },
        {
          "internalType": "uint256",
          "name": "paymentAmountMax",
          "type": "uint256"
        },
        {
          "internalType": "uint256",
          "name": "startTime",
          "type": "uint256"
        },
        {
          "internalType": "uint256",
          "name": "totalPayments",
          "type": "uint256"
        },
        {
          "internalType": "bytes32",
          "name": "paymentReference",
          "type": "bytes32"
        },
        {
          "internalType": "enum SpritzSmartPay.SubscriptionCadence",
          "name": "cadence",
          "type": "uint8"
        },
        {
          "internalType": "enum SpritzSmartPay.SubscriptionType",
          "name": "subscriptionType",
          "type": "uint8"
        },
        {
          "components": [
            {
              "internalType": "uint8",
              "name": "v",
              "type": "uint8"
            },
            {
              "internalType": "bytes32",
              "name": "r",
              "type": "bytes32"
            },
            {
              "internalType": "bytes32",
              "name": "s",
              "type": "bytes32"
            }
          ],
          "internalType": "struct SpritzSmartPay.Signature",
          "name": "signature",
          "type": "tuple"
        }
      ],
      "name": "createSubscriptionBySignature",
      "outputs": [],
      "stateMutability": "nonpayable",
      "type": "function"
    },
    {
      "inputs": [
        {
          "internalType": "bytes32",
          "name": "subscriptionId",
          "type": "bytes32"
        }
      ],
      "name": "deleteSubscription",
      "outputs": [],
      "stateMutability": "nonpayable",
      "type": "function"
    },
    {
      "inputs": [
        {
          "internalType": "bytes32",
          "name": "role",
          "type": "bytes32"
        }
      ],
      "name": "getRoleAdmin",
      "outputs": [
        {
          "internalType": "bytes32",
          "name": "",
          "type": "bytes32"
        }
      ],
      "stateMutability": "view",
      "type": "function"
    },
    {
      "inputs": [
        {
          "internalType": "bytes32",
          "name": "role",
          "type": "bytes32"
        },
        {
          "internalType": "uint256",
          "name": "index",
          "type": "uint256"
        }
      ],
      "name": "getRoleMember",
      "outputs": [
        {
          "internalType": "address",
          "name": "",
          "type": "address"
        }
      ],
      "stateMutability": "view",
      "type": "function"
    },
    {
      "inputs": [
        {
          "internalType": "bytes32",
          "name": "role",
          "type": "bytes32"
        }
      ],
      "name": "getRoleMemberCount",
      "outputs": [
        {
          "internalType": "uint256",
          "name": "",
          "type": "uint256"
        }
      ],
      "stateMutability": "view",
      "type": "function"
    },
    {
      "inputs": [
        {
          "internalType": "address",
          "name": "processor",
          "type": "address"
        }
      ],
      "name": "grantPaymentProcessor",
      "outputs": [],
      "stateMutability": "nonpayable",
      "type": "function"
    },
    {
      "inputs": [
        {
          "internalType": "bytes32",
          "name": "role",
          "type": "bytes32"
        },
        {
          "internalType": "address",
          "name": "account",
          "type": "address"
        }
      ],
      "name": "grantRole",
      "outputs": [],
      "stateMutability": "nonpayable",
      "type": "function"
    },
    {
      "inputs": [
        {
          "internalType": "bytes32",
          "name": "role",
          "type": "bytes32"
        },
        {
          "internalType": "address",
          "name": "account",
          "type": "address"
        }
      ],
      "name": "hasRole",
      "outputs": [
        {
          "internalType": "bool",
          "name": "",
          "type": "bool"
        }
      ],
      "stateMutability": "view",
      "type": "function"
    },
    {
      "inputs": [
        {
          "internalType": "address",
          "name": "subscriber",
          "type": "address"
        },
        {
          "internalType": "address",
          "name": "paymentToken",
          "type": "address"
        },
        {
          "internalType": "uint256",
          "name": "paymentAmount",
          "type": "uint256"
        },
        {
          "internalType": "uint256",
          "name": "startTime",
          "type": "uint256"
        },
        {
          "internalType": "uint256",
          "name": "totalPayments",
          "type": "uint256"
        },
        {
          "internalType": "bytes32",
          "name": "paymentReference",
          "type": "bytes32"
        },
        {
          "internalType": "enum SpritzSmartPay.SubscriptionCadence",
          "name": "cadence",
          "type": "uint8"
        },
        {
          "internalType": "enum SpritzSmartPay.SubscriptionType",
          "name": "subscriptionType",
          "type": "uint8"
        }
      ],
      "name": "hashSubscription",
      "outputs": [
        {
          "internalType": "bytes32",
          "name": "",
          "type": "bytes32"
        }
      ],
      "stateMutability": "view",
      "type": "function"
    },
    {
      "inputs": [
        {
          "internalType": "address",
          "name": "admin",
          "type": "address"
        },
        {
          "internalType": "address",
          "name": "_spritzPay",
          "type": "address"
        },
        {
          "internalType": "address",
          "name": "paymentBot",
          "type": "address"
        }
      ],
      "name": "initialize",
      "outputs": [],
      "stateMutability": "nonpayable",
      "type": "function"
    },
    {
      "inputs": [
        {
          "internalType": "address",
          "name": "subscriber",
          "type": "address"
        },
        {
          "components": [
            {
              "internalType": "address",
              "name": "paymentToken",
              "type": "address"
            },
            {
              "internalType": "uint256",
              "name": "paymentAmountMax",
              "type": "uint256"
            },
            {
              "internalType": "uint256",
              "name": "startTime",
              "type": "uint256"
            },
            {
              "internalType": "uint256",
              "name": "totalPayments",
              "type": "uint256"
            },
            {
              "internalType": "bytes32",
              "name": "paymentReference",
              "type": "bytes32"
            },
            {
              "internalType": "enum SpritzSmartPay.SubscriptionCadence",
              "name": "cadence",
              "type": "uint8"
            },
            {
              "internalType": "enum SpritzSmartPay.SubscriptionType",
              "name": "subscriptionType",
              "type": "uint8"
            }
          ],
          "internalType": "struct SpritzSmartPay.SubscriptionParams",
          "name": "params",
          "type": "tuple"
        },
        {
          "components": [
            {
              "internalType": "uint256",
              "name": "sourceTokenAmountMax",
              "type": "uint256"
            },
            {
              "internalType": "uint256",
              "name": "paymentTokenAmount",
              "type": "uint256"
            },
            {
              "internalType": "uint256",
              "name": "deadline",
              "type": "uint256"
            },
            {
              "internalType": "bytes",
              "name": "swapData",
              "type": "bytes"
            }
          ],
          "internalType": "struct SpritzSmartPay.SwapParams",
          "name": "swapParams",
          "type": "tuple"
        },
        {
          "internalType": "bytes32",
          "name": "externalPaymentReference",
          "type": "bytes32"
        }
      ],
      "name": "processSwapPayment",
      "outputs": [],
      "stateMutability": "nonpayable",
      "type": "function"
    },
    {
      "inputs": [
        {
          "internalType": "address",
          "name": "subscriber",
          "type": "address"
        },
        {
          "internalType": "uint256",
          "name": "paymentAmount",
          "type": "uint256"
        },
        {
          "components": [
            {
              "internalType": "address",
              "name": "paymentToken",
              "type": "address"
            },
            {
              "internalType": "uint256",
              "name": "paymentAmountMax",
              "type": "uint256"
            },
            {
              "internalType": "uint256",
              "name": "startTime",
              "type": "uint256"
            },
            {
              "internalType": "uint256",
              "name": "totalPayments",
              "type": "uint256"
            },
            {
              "internalType": "bytes32",
              "name": "paymentReference",
              "type": "bytes32"
            },
            {
              "internalType": "enum SpritzSmartPay.SubscriptionCadence",
              "name": "cadence",
              "type": "uint8"
            },
            {
              "internalType": "enum SpritzSmartPay.SubscriptionType",
              "name": "subscriptionType",
              "type": "uint8"
            }
          ],
          "internalType": "struct SpritzSmartPay.SubscriptionParams",
          "name": "params",
          "type": "tuple"
        },
        {
          "internalType": "bytes32",
          "name": "externalPaymentReference",
          "type": "bytes32"
        }
      ],
      "name": "processTokenPayment",
      "outputs": [],
      "stateMutability": "nonpayable",
      "type": "function"
    },
    {
      "inputs": [
        {
          "internalType": "bytes32",
          "name": "role",
          "type": "bytes32"
        },
        {
          "internalType": "address",
          "name": "account",
          "type": "address"
        }
      ],
      "name": "renounceRole",
      "outputs": [],
      "stateMutability": "nonpayable",
      "type": "function"
    },
    {
      "inputs": [
        {
          "internalType": "address",
          "name": "processor",
          "type": "address"
        }
      ],
      "name": "revokePaymentProcessor",
      "outputs": [],
      "stateMutability": "nonpayable",
      "type": "function"
    },
    {
      "inputs": [
        {
          "internalType": "bytes32",
          "name": "role",
          "type": "bytes32"
        },
        {
          "internalType": "address",
          "name": "account",
          "type": "address"
        }
      ],
      "name": "revokeRole",
      "outputs": [],
      "stateMutability": "nonpayable",
      "type": "function"
    },
    {
      "inputs": [
        {
          "internalType": "bytes32",
          "name": "",
          "type": "bytes32"
        }
      ],
      "name": "subscriptions",
      "outputs": [
        {
          "internalType": "uint256",
          "name": "paymentCount",
          "type": "uint256"
        },
        {
          "internalType": "uint256",
          "name": "startTime",
          "type": "uint256"
        },
        {
          "internalType": "uint256",
          "name": "lastPaymentTimestamp",
          "type": "uint256"
        }
      ],
      "stateMutability": "view",
      "type": "function"
    },
    {
      "inputs": [
        {
          "internalType": "bytes4",
          "name": "interfaceId",
          "type": "bytes4"
        }
      ],
      "name": "supportsInterface",
      "outputs": [
        {
          "internalType": "bool",
          "name": "",
          "type": "bool"
        }
      ],
      "stateMutability": "view",
      "type": "function"
    },
    {
      "inputs": [],
      "name": "version",
      "outputs": [
        {
          "internalType": "string",
          "name": "",
          "type": "string"
        }
      ],
      "stateMutability": "pure",
      "type": "function"
    }
  ],
  "bytecode": "0x608060405234801561001057600080fd5b506128cb806100206000396000f3fe608060405234801561001057600080fd5b50600436106101825760003560e01c806394259c6c116100d8578063a90f0a0b1161008c578063ca15c87311610066578063ca15c873146103c7578063d547741f146103da578063fae112b3146103ed57600080fd5b8063a90f0a0b1461038e578063c0ad5e8e146103a1578063c0c53b8b146103b457600080fd5b8063a031e292116100bd578063a031e29214610360578063a217fddf14610373578063a8ceacbe1461037b57600080fd5b806394259c6c146102ef5780639a7f640d1461033957600080fd5b806336568abe1161013a57806389f7e63f1161011457806389f7e63f146102785780639010d07c1461028b57806391d14854146102b657600080fd5b806336568abe1461022f5780633d50a6581461024257806354fd4d501461025557600080fd5b80631d1606be1161016b5780631d1606be146101e4578063248a9ca3146101f95780632f2ff15d1461021c57600080fd5b806301ffc9a7146101875780630b7fe72d146101af575b600080fd5b61019a6101953660046122ab565b610400565b60405190151581526020015b60405180910390f35b6101d67fd7d8b7014b7ed36eb085c9e3e427b642d74cab75ecefda8a757042e63ec5991981565b6040519081526020016101a6565b6101f76101f2366004612244565b610444565b005b6101d6610207366004612244565b60009081526065602052604090206001015490565b6101f761022a36600461225d565b6104ee565b6101f761023d36600461225d565b610518565b6101f76102503660046121a4565b6105a4565b60408051808201825260018152603160f81b602082015290516101a691906124fa565b6101f7610286366004611fc4565b610767565b61029e610299366004612289565b61079c565b6040516001600160a01b0390911681526020016101a6565b61019a6102c436600461225d565b60009182526065602090815260408084206001600160a01b0393909316845291905290205460ff1690565b61031e6102fd366004612244565b60fe6020526000908152604090208054600182015460029092015490919083565b604080519384526020840192909252908201526060016101a6565b6101d67f68851eea381a7b03bd660cf3a16b5b96991bfcf7a8bca9c7fbb96a86822b831b81565b6101f761036e366004611fc4565b6107bb565b6101d6600081565b6101f761038936600461209d565b6107f0565b6101f761039c3660046121da565b61099b565b6101f76103af366004612135565b610a78565b6101f76103c2366004611fdf565b610b89565b6101d66103d5366004612244565b610d70565b6101f76103e836600461225d565b610d87565b6101d66103fb366004612022565b610dac565b60006001600160e01b031982167f5a05180f00000000000000000000000000000000000000000000000000000000148061043e575061043e82610df3565b92915050565b7fd7d8b7014b7ed36eb085c9e3e427b642d74cab75ecefda8a757042e63ec5991961046e81610e5a565b600082815260fe60205260409020600101546104a5576040516306c8caed60e11b8152600481018390526024015b60405180910390fd5b600082815260fe6020526040808220828155600181018390556002018290555183917f3c093978bc00bbe6287a008f77c1ed5111ed4981a0b302ab4e43740120c7ad0891a25050565b60008281526065602052604090206001015461050981610e5a565b6105138383610e67565b505050565b6001600160a01b03811633146105965760405162461bcd60e51b815260206004820152602f60248201527f416363657373436f6e74726f6c3a2063616e206f6e6c792072656e6f756e636560448201527f20726f6c657320666f722073656c660000000000000000000000000000000000606482015260840161049c565b6105a08282610e89565b5050565b7fd7d8b7014b7ed36eb085c9e3e427b642d74cab75ecefda8a757042e63ec599196105ce81610e5a565b60006105e060e0850160c086016122f0565b60018111156105f1576105f1612866565b1461060f57604051638dfa9e9560e01b815260040160405180910390fd5b600061065b866106226020870187611fc4565b60208701356040880135606089013560808a013561064660c08c0160a08d016122d5565b61065660e08d0160c08e016122f0565b610eab565b9050836020013585111561069b576040517fc2bbfe3c00000000000000000000000000000000000000000000000000000000815260040160405180910390fd5b60fd546001600160a01b0316639bfa6aa1876106ba6020880188611fc4565b6040516001600160e01b031960e085901b1681526001600160a01b0392831660048201529116602482015260448101889052606481018690526084015b600060405180830381600087803b15801561071157600080fd5b505af1158015610725573d6000803e3d6000fd5b50506040518392506001600160a01b03891691507ffede1bfffe4b4708c47db227cb0825792eb1f0558b7edf8315b82675f966620b90600090a3505050505050565b600061077281610e5a565b6105a07fd7d8b7014b7ed36eb085c9e3e427b642d74cab75ecefda8a757042e63ec5991983610e89565b60008281526097602052604081206107b49083610f66565b9392505050565b60006107c681610e5a565b6105a07fd7d8b7014b7ed36eb085c9e3e427b642d74cab75ecefda8a757042e63ec5991983610e67565b8615806107fb575085155b1561081957604051630fb532db60e11b815260040160405180910390fd5b600061089761087b7f68851eea381a7b03bd660cf3a16b5b96991bfcf7a8bca9c7fbb96a86822b831b8b8b8b8b8b8b8b6040516020016108609897969594939291906124a0565b60405160208183030381529060405280519060200120610f72565b610888602085018561230b565b84602001358560400135610fdb565b9050806001600160a01b03168a6001600160a01b0316146108e4576040517f8baa579f00000000000000000000000000000000000000000000000000000000815260040160405180910390fd5b60006108f6828b8b8b8b8b8b8b610dac565b600081815260fe602052604090206001810154919250901561092e576040516354c1677160e01b81526004810183905260240161049c565b8881600101819055508a6001600160a01b031682846001600160a01b03167f84bcdef1fef5399eed7d5fab918a7d2fe721bca2d4cdf88278ff3422c0b98e148d8d8d8d8d8d6040516109859695949392919061252d565b60405180910390a4505050505050505050505050565b8515806109a6575084155b156109c457604051630fb532db60e11b815260040160405180910390fd5b60006109d63389898989898989610dac565b600081815260fe6020526040902060018101549192509015610a0e576040516354c1677160e01b81526004810183905260240161049c565b868160010181905550886001600160a01b031682336001600160a01b03167f84bcdef1fef5399eed7d5fab918a7d2fe721bca2d4cdf88278ff3422c0b98e148b8b8b8b8b8b604051610a659695949392919061252d565b60405180910390a4505050505050505050565b7fd7d8b7014b7ed36eb085c9e3e427b642d74cab75ecefda8a757042e63ec59919610aa281610e5a565b6001610ab460e0860160c087016122f0565b6001811115610ac557610ac5612866565b14610ae357604051638dfa9e9560e01b815260040160405180910390fd5b6000610b2a86610af66020880188611fc4565b6020880135604089013560608a013560808b0135610b1a60c08d0160a08e016122d5565b61065660e08e0160c08f016122f0565b60fd549091506001600160a01b031663467ab01a87610b4c6020890189611fc4565b873560208901358860408b0135610b6660608d018d612564565b6040518963ffffffff1660e01b81526004016106f79897969594939291906123d3565b600054610100900460ff1615808015610ba95750600054600160ff909116105b80610bc35750303b158015610bc3575060005460ff166001145b610c355760405162461bcd60e51b815260206004820152602e60248201527f496e697469616c697a61626c653a20636f6e747261637420697320616c72656160448201527f647920696e697469616c697a6564000000000000000000000000000000000000606482015260840161049c565b6000805460ff191660011790558015610c58576000805461ff0019166101001790555b610c60611005565b610cbc6040518060400160405280600e81526020017f53707269747a536d617274506179000000000000000000000000000000000000815250610cb76040805180820190915260018152603160f81b602082015290565b611072565b60fd80547fffffffffffffffffffffffff0000000000000000000000000000000000000000166001600160a01b038516179055610cfa600085610e67565b610d247fd7d8b7014b7ed36eb085c9e3e427b642d74cab75ecefda8a757042e63ec5991983610e67565b8015610d6a576000805461ff0019169055604051600181527f7f26b83ff96e1f2b6a682f133852f6798a09c465da95921460cefb38474024989060200160405180910390a15b50505050565b600081815260976020526040812061043e906110e7565b600082815260656020526040902060010154610da281610e5a565b6105138383610e89565b6000888888888888888846604051602001610dcf9998979695949392919061243c565b60405160208183030381529060405280519060200120905098975050505050505050565b60006001600160e01b031982167f7965db0b00000000000000000000000000000000000000000000000000000000148061043e57507f01ffc9a7000000000000000000000000000000000000000000000000000000006001600160e01b031983161461043e565b610e6481336110f1565b50565b610e718282611171565b60008281526097602052604090206105139082611213565b610e938282611228565b600082815260976020526040902061051390826112ab565b6000610ebd8989898989898989610dac565b600081815260fe60205260409020600181015491925090610ef4576040516306c8caed60e11b81526004810183905260240161049c565b6000610f0a8783600001548460010154886112c0565b905080610f4c576040517f82f4b1560000000000000000000000000000000000000000000000000000000081526004810184905242602482015260440161049c565b504260028201558054600101905598975050505050505050565b60006107b4838361136f565b600061043e610f7f611399565b836040517f19010000000000000000000000000000000000000000000000000000000000006020820152602281018390526042810182905260009060620160405160208183030381529060405280519060200120905092915050565b6000806000610fec87878787611419565b91509150610ff981611506565b5090505b949350505050565b600054610100900460ff166110705760405162461bcd60e51b815260206004820152602b60248201527f496e697469616c697a61626c653a20636f6e7472616374206973206e6f74206960448201526a6e697469616c697a696e6760a81b606482015260840161049c565b565b600054610100900460ff166110dd5760405162461bcd60e51b815260206004820152602b60248201527f496e697469616c697a61626c653a20636f6e7472616374206973206e6f74206960448201526a6e697469616c697a696e6760a81b606482015260840161049c565b6105a082826116c1565b600061043e825490565b60008281526065602090815260408083206001600160a01b038516845290915290205460ff166105a05761112f816001600160a01b03166014611746565b61113a836020611746565b60405160200161114b929190612352565b60408051601f198184030181529082905262461bcd60e51b825261049c916004016124fa565b60008281526065602090815260408083206001600160a01b038516845290915290205460ff166105a05760008281526065602090815260408083206001600160a01b03851684529091529020805460ff191660011790556111cf3390565b6001600160a01b0316816001600160a01b0316837f2f8788117e7eff1d82e926ec794901d17c78024a50270940304540a733656f0d60405160405180910390a45050565b60006107b4836001600160a01b038416611927565b60008281526065602090815260408083206001600160a01b038516845290915290205460ff16156105a05760008281526065602090815260408083206001600160a01b0385168085529252808320805460ff1916905551339285917ff6391f5c32d9c69d2a47ea670b442974b53935d1edc7fd64eb21e047a839171b9190a45050565b60006107b4836001600160a01b038416611976565b6000824210156112d257506000610ffd565b6000851180156112e157508484145b156112ee57506000610ffd565b600082600281111561130257611302612866565b141561131a57611313428486611a69565b9050610ffd565b600182600281111561132e5761132e612866565b141561133f57611313428486611b0d565b600282600281111561135357611353612866565b141561136457611313428486611b6e565b506000949350505050565b600082600001828154811061138657611386612892565b9060005260206000200154905092915050565b60006114147f8b73c3c69bb8fe3d512ecc4cf759cc79239f7b179b0ffacaa9a75d522b39400f6113c860c95490565b60ca546040805160208101859052908101839052606081018290524660808201523060a082015260009060c0016040516020818303038152906040528051906020012090509392505050565b905090565b6000807f7fffffffffffffffffffffffffffffff5d576e7357a4501ddfe92f46681b20a083111561145057506000905060036114fd565b8460ff16601b1415801561146857508460ff16601c14155b1561147957506000905060046114fd565b6040805160008082526020820180845289905260ff881692820192909252606081018690526080810185905260019060a0016020604051602081039080840390855afa1580156114cd573d6000803e3d6000fd5b5050604051601f1901519150506001600160a01b0381166114f6576000600192509250506114fd565b9150600090505b94509492505050565b600081600481111561151a5761151a612866565b14156115235750565b600181600481111561153757611537612866565b14156115855760405162461bcd60e51b815260206004820152601860248201527f45434453413a20696e76616c6964207369676e61747572650000000000000000604482015260640161049c565b600281600481111561159957611599612866565b14156115e75760405162461bcd60e51b815260206004820152601f60248201527f45434453413a20696e76616c6964207369676e6174757265206c656e67746800604482015260640161049c565b60038160048111156115fb576115fb612866565b14156116545760405162461bcd60e51b815260206004820152602260248201527f45434453413a20696e76616c6964207369676e6174757265202773272076616c604482015261756560f01b606482015260840161049c565b600481600481111561166857611668612866565b1415610e645760405162461bcd60e51b815260206004820152602260248201527f45434453413a20696e76616c6964207369676e6174757265202776272076616c604482015261756560f01b606482015260840161049c565b600054610100900460ff1661172c5760405162461bcd60e51b815260206004820152602b60248201527f496e697469616c697a61626c653a20636f6e7472616374206973206e6f74206960448201526a6e697469616c697a696e6760a81b606482015260840161049c565b81516020928301208151919092012060c99190915560ca55565b606060006117558360026126fa565b6117609060026125f1565b67ffffffffffffffff811115611778576117786128a8565b6040519080825280601f01601f1916602001820160405280156117a2576020820181803683370190505b5090507f3000000000000000000000000000000000000000000000000000000000000000816000815181106117d9576117d9612892565b60200101906001600160f81b031916908160001a9053507f78000000000000000000000000000000000000000000000000000000000000008160018151811061182457611824612892565b60200101906001600160f81b031916908160001a90535060006118488460026126fa565b6118539060016125f1565b90505b60018111156118d8577f303132333435363738396162636465660000000000000000000000000000000085600f166010811061189457611894612892565b1a60f81b8282815181106118aa576118aa612892565b60200101906001600160f81b031916908160001a90535060049490941c936118d1816127ec565b9050611856565b5083156107b45760405162461bcd60e51b815260206004820181905260248201527f537472696e67733a20686578206c656e67746820696e73756666696369656e74604482015260640161049c565b600081815260018301602052604081205461196e5750815460018181018455600084815260208082209093018490558454848252828601909352604090209190915561043e565b50600061043e565b60008181526001830160205260408120548015611a5f57600061199a600183612784565b85549091506000906119ae90600190612784565b9050818114611a135760008660000182815481106119ce576119ce612892565b90600052602060002001549050808760000184815481106119f1576119f1612892565b6000918252602080832090910192909255918252600188019052604090208390555b8554869080611a2457611a2461287c565b60019003818190600052602060002001600090559055856001016000868152602001908152602001600020600090556001935050505061043e565b600091505061043e565b600080611a7585611b95565b90506000611a8285611b95565b90506000611a908284611c07565b905084811015611aa657600093505050506107b4565b8151601d60ff821610611ae1576000611ac785604001518660200151611c7b565b9050836000015160ff168160ff161015611adf578091505b505b835160ff8083169116101580611b015750611afd8660016125f1565b8210155b98975050505050505050565b600080611b1985611d15565b90506000611b2685611d15565b90506000611b348688611d49565b905084811015611b4a57600093505050506107b4565b8183101580611b635750611b5f8560016125f1565b8110155b979650505050505050565b600080611b7a85611d6e565b90506000611b8785611d6e565b90506000611b348688611d8c565b6040805160808101825260008082526020820181905291810182905260608101829052908080611bd0611bcb620151808761265f565b611db0565b6040805160808101825260ff928316815291909216602082015263ffffffff90921690820152606081019590955250929392505050565b6000816060015183606001511115611c1e57600080fd5b826020015160ff168360400151600c611c379190612719565b836020015160ff168460400151600c611c509190612719565b611c5a9190612609565b611c64919061279b565b611c6e919061279b565b63ffffffff169392505050565b60008160ff1660011480611c9257508160ff166003145b80611ca057508160ff166005145b80611cae57508160ff166007145b80611cbc57508160ff166008145b80611cca57508160ff16600a145b80611cd857508160ff16600c145b15611ce55750601f61043e565b8160ff16600214611cf85750601e61043e565b611d0183611f24565b611d0c57601c6107b4565b50601d92915050565b600080611d25620151808461265f565b90506007611d348260036125f1565b611d3e9190612803565b6107b49060016125f1565b600080611d568484611d8c565b611d619060026125f1565b9050610ffd60078261265f565b600080611d7e6201518084612803565b90506107b4610e108261265f565b600081831115611d9b57600080fd5b82611da68184612784565b6107b4919061265f565b60008080838162253d8c611dc78362010bd96125b2565b611dd191906125b2565b9050600062023ab1611de4836004612673565b611dee9190612631565b90506004611dff8262023ab1612673565b611e0a9060036125b2565b611e149190612631565b611e1e9083612745565b9150600062164b09611e318460016125b2565b611e3d90610fa0612673565b611e479190612631565b90506004611e57826105b5612673565b611e619190612631565b611e6b9084612745565b611e7690601f6125b2565b9250600061098f611e88856050612673565b611e929190612631565b905060006050611ea48361098f612673565b611eae9190612631565b611eb89086612745565b9050611ec5600b83612631565b9450611ed285600c612673565b611edd8360026125b2565b611ee79190612745565b91508483611ef6603187612745565b611f01906064612673565b611f0b91906125b2565b611f1591906125b2565b9a919950975095505050505050565b6000611f31600483612817565b63ffffffff16158015611f535750611f4a606483612817565b63ffffffff1615155b8061043e5750611f6561019083612817565b63ffffffff161592915050565b80356001600160a01b0381168114611f8957600080fd5b919050565b803560038110611f8957600080fd5b803560028110611f8957600080fd5b600060e08284031215611fbe57600080fd5b50919050565b600060208284031215611fd657600080fd5b6107b482611f72565b600080600060608486031215611ff457600080fd5b611ffd84611f72565b925061200b60208501611f72565b915061201960408501611f72565b90509250925092565b600080600080600080600080610100898b03121561203f57600080fd5b61204889611f72565b975061205660208a01611f72565b965060408901359550606089013594506080890135935060a0890135925061208060c08a01611f8e565b915061208e60e08a01611f9d565b90509295985092959890939650565b6000806000806000806000806000898b036101608112156120bd57600080fd5b6120c68b611f72565b99506120d460208c01611f72565b985060408b0135975060608b0135965060808b0135955060a08b013594506120fe60c08c01611f8e565b935061210c60e08c01611f9d565b9250606060ff198201121561212057600080fd5b506101008a0190509295985092959850929598565b600080600080610140858703121561214c57600080fd5b61215585611f72565b93506121648660208701611fac565b925061010085013567ffffffffffffffff81111561218157600080fd5b85016080818803121561219357600080fd5b939692955092936101200135925050565b60008060008061014085870312156121bb57600080fd5b6121c485611f72565b9350602085013592506121938660408701611fac565b600080600080600080600060e0888a0312156121f557600080fd5b6121fe88611f72565b96506020880135955060408801359450606088013593506080880135925061222860a08901611f8e565b915061223660c08901611f9d565b905092959891949750929550565b60006020828403121561225657600080fd5b5035919050565b6000806040838503121561227057600080fd5b8235915061228060208401611f72565b90509250929050565b6000806040838503121561229c57600080fd5b50508035926020909101359150565b6000602082840312156122bd57600080fd5b81356001600160e01b0319811681146107b457600080fd5b6000602082840312156122e757600080fd5b6107b482611f8e565b60006020828403121561230257600080fd5b6107b482611f9d565b60006020828403121561231d57600080fd5b813560ff811681146107b457600080fd5b6003811061233e5761233e612866565b9052565b6002811061233e5761233e612866565b7f416363657373436f6e74726f6c3a206163636f756e742000000000000000000081526000835161238a8160178501602088016127c0565b7f206973206d697373696e6720726f6c652000000000000000000000000000000060179184019182015283516123c78160288401602088016127c0565b01602801949350505050565b60006001600160a01b03808b168352808a166020840152508760408301528660608301528560808301528460a083015260e060c08301528260e08301526101008385828501376000838501820152601f909301601f191690910190910198975050505050505050565b6001600160a01b038a811682528916602082015260408101889052606081018790526080810186905260a08101859052610120810161247e60c083018661232e565b61248b60e0830185612342565b826101008301529a9950505050505050505050565b6000610100820190508982526001600160a01b03891660208301528760408301528660608301528560808301528460a08301526124e060c083018561232e565b6124ed60e0830184612342565b9998505050505050505050565b60208152600082518060208401526125198160408501602087016127c0565b601f01601f19169190910160400192915050565b600060c082019050878252866020830152856040830152846060830152612557608083018561232e565b611b6360a0830184612342565b6000808335601e1984360301811261257b57600080fd5b83018035915067ffffffffffffffff82111561259657600080fd5b6020019150368190038213156125ab57600080fd5b9250929050565b6000808212826001600160ff1b03038413811516156125d3576125d361283a565b82600160ff1b0384128116156125eb576125eb61283a565b50500190565b600082198211156126045761260461283a565b500190565b600063ffffffff8083168185168083038211156126285761262861283a565b01949350505050565b60008261264057612640612850565b600160ff1b82146000198414161561265a5761265a61283a565b500590565b60008261266e5761266e612850565b500490565b60006001600160ff1b0360008413600084138583048511828216161561269b5761269b61283a565b600160ff1b60008712868205881281841616156126ba576126ba61283a565b600087129250878205871284841616156126d6576126d661283a565b878505871281841616156126ec576126ec61283a565b505050929093029392505050565b60008160001904831182151516156127145761271461283a565b500290565b600063ffffffff8083168185168183048111821515161561273c5761273c61283a565b02949350505050565b600080831283600160ff1b018312811516156127635761276361283a565b836001600160ff1b0301831381161561277e5761277e61283a565b50500390565b6000828210156127965761279661283a565b500390565b600063ffffffff838116908316818110156127b8576127b861283a565b039392505050565b60005b838110156127db5781810151838201526020016127c3565b83811115610d6a5750506000910152565b6000816127fb576127fb61283a565b506000190190565b60008261281257612812612850565b500690565b600063ffffffff8084168061282e5761282e612850565b92169190910692915050565b634e487b7160e01b600052601160045260246000fd5b634e487b7160e01b600052601260045260246000fd5b634e487b7160e01b600052602160045260246000fd5b634e487b7160e01b600052603160045260246000fd5b634e487b7160e01b600052603260045260246000fd5b634e487b7160e01b600052604160045260246000fdfea164736f6c6343000807000a",
  "linkReferences": {},
  "deployedLinkReferences": {}
}